{
  "_format": "hh3-artifact-1",
  "contractName": "MarketRegistry",
  "sourceName": "contracts/MarketRegistry.sol",
  "abi": [
    {
      "anonymous": false,
      "inputs": [
        {
          "indexed": true,
          "internalType": "uint256",
          "name": "marketId",
          "type": "uint256"
        },
        {
          "indexed": false,
          "internalType": "string",
          "name": "question",
          "type": "string"
        },
        {
          "indexed": false,
          "internalType": "string",
          "name": "category",
          "type": "string"
        },
        {
          "indexed": false,
          "internalType": "string",
          "name": "resolutionSource",
          "type": "string"
        },
        {
          "indexed": true,
          "internalType": "bytes32",
          "name": "resolutionSourceHash",
          "type": "bytes32"
        },
        {
          "indexed": false,
          "internalType": "uint256",
          "name": "deadline",
          "type": "uint256"
        },
        {
          "indexed": false,
          "internalType": "uint256",
          "name": "liquidityHint",
          "type": "uint256"
        },
        {
          "indexed": false,
          "internalType": "string",
          "name": "marketType",
          "type": "string"
        },
        {
          "indexed": true,
          "internalType": "address",
          "name": "creator",
          "type": "address"
        }
      ],
      "name": "MarketCreated",
      "type": "event"
    },
    {
      "anonymous": false,
      "inputs": [
        {
          "indexed": true,
          "internalType": "uint256",
          "name": "marketId",
          "type": "uint256"
        },
        {
          "indexed": false,
          "internalType": "enum MarketRegistry.MarketStatus",
          "name": "status",
          "type": "uint8"
        }
      ],
      "name": "MarketStatusUpdated",
      "type": "event"
    },
    {
      "inputs": [
        {
          "internalType": "string",
          "name": "question",
          "type": "string"
        },
        {
          "internalType": "string",
          "name": "category",
          "type": "string"
        },
        {
          "internalType": "string",
          "name": "resolutionSource",
          "type": "string"
        },
        {
          "internalType": "bytes32",
          "name": "resolutionSourceHash",
          "type": "bytes32"
        },
        {
          "internalType": "uint256",
          "name": "deadline",
          "type": "uint256"
        },
        {
          "internalType": "uint256",
          "name": "liquidityHint",
          "type": "uint256"
        },
        {
          "internalType": "string",
          "name": "marketType",
          "type": "string"
        }
      ],
      "name": "createMarket",
      "outputs": [
        {
          "internalType": "uint256",
          "name": "marketId",
          "type": "uint256"
        }
      ],
      "stateMutability": "nonpayable",
      "type": "function"
    },
    {
      "inputs": [
        {
          "internalType": "uint256",
          "name": "marketId",
          "type": "uint256"
        }
      ],
      "name": "getMarket",
      "outputs": [
        {
          "components": [
            {
              "internalType": "uint256",
              "name": "marketId",
              "type": "uint256"
            },
            {
              "internalType": "string",
              "name": "question",
              "type": "string"
            },
            {
              "internalType": "string",
              "name": "category",
              "type": "string"
            },
            {
              "internalType": "string",
              "name": "resolutionSource",
              "type": "string"
            },
            {
              "internalType": "bytes32",
              "name": "resolutionSourceHash",
              "type": "bytes32"
            },
            {
              "internalType": "uint256",
              "name": "deadline",
              "type": "uint256"
            },
            {
              "internalType": "uint256",
              "name": "createdAt",
              "type": "uint256"
            },
            {
              "internalType": "enum MarketRegistry.MarketStatus",
              "name": "status",
              "type": "uint8"
            },
            {
              "internalType": "address",
              "name": "creator",
              "type": "address"
            },
            {
              "internalType": "uint256",
              "name": "liquidityHint",
              "type": "uint256"
            },
            {
              "internalType": "string",
              "name": "marketType",
              "type": "string"
            }
          ],
          "internalType": "struct MarketRegistry.Market",
          "name": "",
          "type": "tuple"
        }
      ],
      "stateMutability": "view",
      "type": "function"
    },
    {
      "inputs": [],
      "name": "getMarkets",
      "outputs": [
        {
          "components": [
            {
              "internalType": "uint256",
              "name": "marketId",
              "type": "uint256"
            },
            {
              "internalType": "string",
              "name": "question",
              "type": "string"
            },
            {
              "internalType": "string",
              "name": "category",
              "type": "string"
            },
            {
              "internalType": "string",
              "name": "resolutionSource",
              "type": "string"
            },
            {
              "internalType": "bytes32",
              "name": "resolutionSourceHash",
              "type": "bytes32"
            },
            {
              "internalType": "uint256",
              "name": "deadline",
              "type": "uint256"
            },
            {
              "internalType": "uint256",
              "name": "createdAt",
              "type": "uint256"
            },
            {
              "internalType": "enum MarketRegistry.MarketStatus",
              "name": "status",
              "type": "uint8"
            },
            {
              "internalType": "address",
              "name": "creator",
              "type": "address"
            },
            {
              "internalType": "uint256",
              "name": "liquidityHint",
              "type": "uint256"
            },
            {
              "internalType": "string",
              "name": "marketType",
              "type": "string"
            }
          ],
          "internalType": "struct MarketRegistry.Market[]",
          "name": "results",
          "type": "tuple[]"
        }
      ],
      "stateMutability": "view",
      "type": "function"
    },
    {
      "inputs": [
        {
          "internalType": "uint256",
          "name": "marketId",
          "type": "uint256"
        },
        {
          "internalType": "enum MarketRegistry.MarketStatus",
          "name": "status",
          "type": "uint8"
        }
      ],
      "name": "updateMarketStatus",
      "outputs": [],
      "stateMutability": "nonpayable",
      "type": "function"
    }
  ],
  "bytecode": "0x6080806040523461001a5760015f55610fa6908161001f8239f35b5f80fdfe60806040526004361015610011575f80fd5b60e05f3560e01c90816348d0eca214610ae1578163eb44fdd3146109ea578163ec2c901614610832575063f40bc9fb14610049575f80fd5b3461082e5760e036600319011261082e576004356001600160401b03811161082e57610079903690600401610c9f565b6024356001600160401b03811161082e57610098903690600401610c9f565b9290916044356001600160401b03811161082e576100ba903690600401610c9f565b909460c4356001600160401b03811161082e576100db903690600401610c9f565b94909380156107f55783156107be57426084351115610786575f54965f19881461077257600188015f5560405161011181610d23565b88815261011f368486610f0b565b602082015261012f368684610f0b565b604082015261013f36878c610f0b565b6060820152606435608082015260843560a08201524260c08201525f60e08201523361010082015260a43561012082015261017b368989610f0b565b610140820152885f52600260205260405f20908051825560208101518051906001600160401b0382116104365781906101b76001860154610db1565b601f8111610722575b50602090601f83116001146106b4575f926106a9575b50508160011b915f199060031b1c19161760018301555b60408101518051906001600160401b0382116104365781906102126002860154610db1565b601f8111610659575b50602090601f83116001146105eb575f926105e0575b50508160011b915f199060031b1c19161760028301555b60608101518051906001600160401b03821161043657819061026d6003860154610db1565b601f8111610590575b50602090601f8311600114610522575f92610517575b50508160011b915f199060031b1c19161760038301555b6080810151600483015560a0810151600583015560c08101516006830155600782019060e0810151916004831015610503576102e26101409382610d0b565b6101008201518154610100600160a81b031916600891821b610100600160a81b0316179091556101208201519084015501518051906001600160401b038211610436576103326009840154610db1565b601f81116104bf575b50602090601f831160011461045557600992915f918361044a575b50508160011b915f199060031b1c1916179101555b60015493680100000000000000008510156104365760209989966103fa61042b94610408946103c18a60017fcd0a61f6247c75e1d6ff75ade7fc138cfbd35f664e59bfa6348eeb0521dc59669c01600155610eae565b81549060031b908d821b915f19901b19161790556103ec604051998a9960c08b5260c08b0191610f50565b9188830360208a0152610f50565b918583036040870152610f50565b608435606084015260a435608084015282810360a0840152339760643597610f50565b0390a4604051908152f35b634e487b7160e01b5f52604160045260245ffd5b015190505f80610356565b90601f19831691600985015f5260205f20925f5b8181106104a75750916001939185600996941061048f575b505050811b0191015561036b565b01515f1960f88460031b161c191690555f8080610481565b92936020600181928786015181550195019301610469565b600984015f5260205f20601f840160051c8101602085106104fc575b601f830160051c820181106104f157505061033b565b5f81556001016104db565b50806104db565b634e487b7160e01b5f52602160045260245ffd5b015190505f8061028c565b9250600385015f5260205f20905f935b601f1984168510610575576001945083601f1981161061055d575b505050811b0160038301556102a3565b01515f1960f88460031b161c191690555f808061054d565b81810151835560209485019460019093019290910190610532565b909150600385015f5260205f20601f840160051c8101602085106105d9575b90849392915b601f830160051c820181106105cb575050610276565b5f81558594506001016105b5565b50806105af565b015190505f80610231565b9250600285015f5260205f20905f935b601f198416851061063e576001945083601f19811610610626575b505050811b016002830155610248565b01515f1960f88460031b161c191690555f8080610616565b818101518355602094850194600190930192909101906105fb565b909150600285015f5260205f20601f840160051c8101602085106106a2575b90849392915b601f830160051c8201811061069457505061021b565b5f815585945060010161067e565b5080610678565b015190505f806101d6565b9250600185015f5260205f20905f935b601f1984168510610707576001945083601f198116106106ef575b505050811b0160018301556101ed565b01515f1960f88460031b161c191690555f80806106df565b818101518355602094850194600190930192909101906106c4565b909150600185015f5260205f20601f840160051c81016020851061076b575b90849392915b601f830160051c8201811061075d5750506101c0565b5f8155859450600101610747565b5080610741565b634e487b7160e01b5f52601160045260245ffd5b60405162461bcd60e51b815260206004820152601060248201526f111150511312539157d25397d41054d560821b6044820152606490fd5b60405162461bcd60e51b815260206004820152600f60248201526e14d3d55490d157d491545552549151608a1b6044820152606490fd5b60405162461bcd60e51b815260206004820152601160248201527014555154d51253d397d491545552549151607a1b6044820152606490fd5b5f80fd5b3461082e575f36600319011261082e576001906001549161085283610e97565b926108606040519485610d3f565b80845261086c81610e97565b60209390601f19015f5b8181106109ce5750505f5b8281106108e95750505060405191808301818452845180915260408401918060408360051b8701019601925f905b8382106108bc5786880387f35b909192939483806108d8839a603f198b82030186528951610bed565b9997019594939190910191016108af565b908382866109a660096108fe859b9997610eae565b9054600391821b1c5f5261094c60029182865261094060405f20936040519761092689610d23565b855489526109358b8701610de9565b908901528401610de9565b60408701528201610de9565b606085015260048101546080850152600581015460a0850152600681015460c0850152600781015461098360ff8216898701610e8b565b600890811c6001600160a01b031661010086015281015461012085015201610de9565b6101408201526109b68288610ef7565b526109c18187610ef7565b5001909150949294610881565b85906109db979597610d60565b82828801015201959395610876565b3461082e57602036600319011261082e57610a03610d60565b506004355f526002602052610add60405f20610ac960405191610a2583610d23565b80548352610a3560018201610de9565b6020840152610a4660028201610de9565b6040840152610a5760038201610de9565b606084015260048101546080840152600581015460a0840152600681015460c08401526007810154610a8f60ff821660e08601610e8b565b610aba600960018060a01b03938461010088019460081c168452600881015461012088015201610de9565b61014085015251161515610ccc565b604051918291602083526020830190610bed565b0390f35b3461082e57604036600319011261082e57600435602435600481101561082e575f828152600260205260409020600701805460081c6001600160a01b0316610b2a811515610ccc565b3303610b6e5781610b5e7fd067ebf1565b7b7f7e3c08ccb7f355defc06fd6a3e5e3da1f0a43c8a235350ac93602093610d0b565b610b6b6040518092610be0565ba2005b60405162461bcd60e51b815260206004820152600c60248201526b27a7262cafa1a922a0aa27a960a11b6044820152606490fd5b91908251928382525f5b848110610bcc575050825f602080949584010152601f8019910116010190565b602081830181015184830182015201610bac565b9060048210156105035752565b90610c9c91610c3a610c28610c1661016084518652602085015190806020880152860190610ba2565b60408401518582036040870152610ba2565b60608301518482036060860152610ba2565b916080820151608082015260a082015160a082015260c082015160c0820152610c6b60e083015160e0830190610be0565b61010060018060a01b0381840151169082015261012080830151908201526101408092015191818403910152610ba2565b90565b9181601f8401121561082e578235916001600160401b03831161082e576020838186019501011161082e57565b15610cd357565b60405162461bcd60e51b815260206004820152601060248201526f13505492d15517d393d517d193d5539160821b6044820152606490fd5b9060048110156105035760ff80198354169116179055565b61016081019081106001600160401b0382111761043657604052565b90601f801991011681019081106001600160401b0382111761043657604052565b60405190610d6d82610d23565b6060610140835f815282602082015282604082015282808201525f60808201525f60a08201525f60c08201525f60e08201525f6101008201525f6101208201520152565b90600182811c92168015610ddf575b6020831014610dcb57565b634e487b7160e01b5f52602260045260245ffd5b91607f1691610dc0565b9060405191825f8254610dfb81610db1565b908184526020946001916001811690815f14610e695750600114610e2b575b505050610e2992500383610d3f565b565b5f90815285812095935091905b818310610e51575050610e2993508201015f8080610e1a565b85548884018501529485019487945091830191610e38565b92505050610e2994925060ff191682840152151560051b8201015f8080610e1a565b60048210156105035752565b6001600160401b0381116104365760051b60200190565b600154811015610ee35760015f527fb10e2d527612073b26eecdfd717e6a320cf44b4afac2b0732d9fcbe2b7fa0cf601905f90565b634e487b7160e01b5f52603260045260245ffd5b8051821015610ee35760209160051b010190565b9291926001600160401b0382116104365760405191610f34601f8201601f191660200184610d3f565b82948184528183011161082e578281602093845f960137010152565b908060209392818452848401375f828201840152601f01601f191601019056fea2646970667358221220c665a6d36addb0bb821272f441df20904b3197b5ce7a2fe2222c0234490f099f64736f6c63430008180033",
  "linkReferences": {},
  "deployedLinkReferences": {},
  "immutableReferences": {},
  "inputSourceName": "project/contracts/MarketRegistry.sol",
  "buildInfoId": "solc-0_8_24-3f4d22c95a69e67f71a95edb9ed901b17cdd3744"
}