{"project/contracts/MarketAuditRegistry.sol":{"MarketAuditRegistry":{"abi":[{"anonymous":false,"inputs":[{"indexed":true,"internalType":"uint256","name":"auditTargetId","type":"uint256"},{"indexed":false,"internalType":"string","name":"title","type":"string"},{"indexed":false,"internalType":"string","name":"category","type":"string"},{"indexed":false,"internalType":"string","name":"sourceUrl","type":"string"},{"indexed":true,"internalType":"bytes32","name":"sourceHash","type":"bytes32"},{"indexed":false,"internalType":"uint256","name":"deadline","type":"uint256"},{"indexed":true,"internalType":"bytes32","name":"metadataHash","type":"bytes32"},{"indexed":false,"internalType":"address","name":"creator","type":"address"}],"name":"AuditTargetCreated","type":"event"},{"anonymous":false,"inputs":[{"indexed":true,"internalType":"uint256","name":"auditTargetId","type":"uint256"},{"indexed":false,"internalType":"enum MarketAuditRegistry.AuditTargetStatus","name":"status","type":"uint8"}],"name":"AuditTargetStatusUpdated","type":"event"},{"inputs":[{"internalType":"string","name":"title","type":"string"},{"internalType":"string","name":"category","type":"string"},{"internalType":"string","name":"sourceUrl","type":"string"},{"internalType":"bytes32","name":"sourceHash","type":"bytes32"},{"internalType":"uint256","name":"deadline","type":"uint256"},{"internalType":"bytes32","name":"metadataHash","type":"bytes32"}],"name":"createAuditTarget","outputs":[{"internalType":"uint256","name":"auditTargetId","type":"uint256"}],"stateMutability":"nonpayable","type":"function"},{"inputs":[{"internalType":"uint256","name":"auditTargetId","type":"uint256"}],"name":"getAuditTarget","outputs":[{"components":[{"internalType":"uint256","name":"auditTargetId","type":"uint256"},{"internalType":"string","name":"title","type":"string"},{"internalType":"string","name":"category","type":"string"},{"internalType":"string","name":"sourceUrl","type":"string"},{"internalType":"bytes32","name":"sourceHash","type":"bytes32"},{"internalType":"uint256","name":"deadline","type":"uint256"},{"internalType":"uint256","name":"createdAt","type":"uint256"},{"internalType":"enum MarketAuditRegistry.AuditTargetStatus","name":"status","type":"uint8"},{"internalType":"address","name":"creator","type":"address"},{"internalType":"bytes32","name":"metadataHash","type":"bytes32"}],"internalType":"struct MarketAuditRegistry.AuditTarget","name":"","type":"tuple"}],"stateMutability":"view","type":"function"},{"inputs":[],"name":"getAuditTargets","outputs":[{"components":[{"internalType":"uint256","name":"auditTargetId","type":"uint256"},{"internalType":"string","name":"title","type":"string"},{"internalType":"string","name":"category","type":"string"},{"internalType":"string","name":"sourceUrl","type":"string"},{"internalType":"bytes32","name":"sourceHash","type":"bytes32"},{"internalType":"uint256","name":"deadline","type":"uint256"},{"internalType":"uint256","name":"createdAt","type":"uint256"},{"internalType":"enum MarketAuditRegistry.AuditTargetStatus","name":"status","type":"uint8"},{"internalType":"address","name":"creator","type":"address"},{"internalType":"bytes32","name":"metadataHash","type":"bytes32"}],"internalType":"struct MarketAuditRegistry.AuditTarget[]","name":"results","type":"tuple[]"}],"stateMutability":"view","type":"function"},{"inputs":[{"internalType":"uint256","name":"auditTargetId","type":"uint256"},{"internalType":"enum MarketAuditRegistry.AuditTargetStatus","name":"status","type":"uint8"}],"name":"updateAuditTargetStatus","outputs":[],"stateMutability":"nonpayable","type":"function"}],"evm":{"bytecode":{"linkReferences":{},"object":"6080806040523461001a5760015f55610e95908161001f8239f35b5f80fdfe6080806040526004361015610012575f80fd5b60e05f3560e01c91826315ebc15814610393575081632581d2a7146101f2575080634dbf426a146101105763dc0ff6561461004b575f80fd5b3461010c57604036600319011261010c57600435602435600481101561010c575f828152600260205260409020600701805460081c6001600160a01b0316610094811515610e1a565b33036100d857816100c87f1530e29d5631e73c1608802ce913788d8b055c64ad2e7305526e7a6d1e513d3893602093610c7f565b6100d56040518092610b0e565ba2005b60405162461bcd60e51b815260206004820152600c60248201526b27a7262cafa1a922a0aa27a960a11b6044820152606490fd5b5f80fd5b3461010c57602036600319011261010c57610129610d18565b506004355f5260026020526101ee60405f206101da6040519161014b83610bb6565b8054835261015b60018201610d78565b602084015261016c60028201610d78565b604084015261017d60038201610d78565b606084015260048101546080840152600581015460a0840152600681015460c0840152600860078201546101b760ff821660e08701610c3b565b811c6001600160a01b031661010085018190529101546101208401521515610e1a565b604051918291602083526020830190610b1b565b0390f35b3461010c575f36600319011261010c576001906001549161021283610d00565b926102206040519485610bd3565b80845261022c81610d00565b60209390601f19015f5b8181106103775750505f5b8281106102a95750505060405191808301818452845180915260408401918060408360051b8701019601925f905b83821061027c5786880387f35b90919293948380610298839a603f198b82030186528951610b1b565b99970195949391909101910161026f565b92836102b6829795610c97565b9054600391821b1c5f5260029081885261030460405f20916102f8604051946102de86610bb6565b845486526102ed888601610d78565b8c8701528401610d78565b60408501528201610d78565b606083015260048101546080830152600581015460a0830152600681015460c083015260078101549061033c60ff8316878501610c3b565b600891821c6001600160a01b031661010084015201546101208201526103628287610d64565b5261036d8186610d64565b5001949294610241565b8590610384979597610d18565b82828801015201959395610236565b3461010c5760c036600319011261010c5760043567ffffffffffffffff811161010c576103c4903690600401610aa2565b909160243567ffffffffffffffff811161010c576103e6903690600401610aa2565b9290604493843567ffffffffffffffff811161010c5761040a903690600401610aa2565b90956064958515610a7257508115610a39578535156109ff5760a435156109c35742608435111561098d57505f54955f19871461097957600187015f5560405161045381610bb6565b87815261046136878b610bf5565b9060208101918252610474368688610bf5565b6040820152610484368585610bf5565b60608201528735608082015260843560a08201524260c08201525f60e08201523361010082015260a435610120820152885f52600260205260405f2091815183555180519067ffffffffffffffff82116106f65781906104e76001860154610c47565b601f8111610929575b50602090601f83116001146108bb575f926108b0575b50508160011b915f199060031b1c19161760018301555b604081015180519067ffffffffffffffff82116106f65781906105436002860154610c47565b601f8111610860575b50602090601f83116001146107f2575f926107e7575b50508160011b915f199060031b1c19161760028301555b606081015180519067ffffffffffffffff82116106f657819061059f6003860154610c47565b601f8111610797575b50602090601f8311600114610729575f9261071e575b50508160011b915f199060031b1c19161760038301555b6080810151600483015560a0810151600583015560c08101516006830155600782019060e081015190600482101561070a578261061761012093600895610c7f565b6101008201518154610100600160a81b03191690851b610100600160a81b0316179055015191015560015491680100000000000000008310156106f6576106c788957fe403e22b7ca5f285c8b9d6bb22f786ddfce8c2e648a69d14cff679b2fd28a9c1956106ba60209c6106948860016106d59a01600155610c97565b81549060031b908c821b915f19901b19161790556040519a60a08c5260a08c0191610ce0565b918983038d8b0152610ce0565b918683036040880152610ce0565b9260843560608201523360808201528060a4359535940390a4604051908152f35b634e487b7160e01b5f52604160045260245ffd5b634e487b7160e01b5f52602160045260245ffd5b015190508c806105be565b9250600385015f5260205f20905f935b601f198416851061077c576001945083601f19811610610764575b505050811b0160038301556105d5565b01515f1960f88460031b161c191690558c8080610754565b81810151835560209485019460019093019290910190610739565b909150600385015f5260205f20601f840160051c8101602085106107e0575b90849392915b601f830160051c820181106107d25750506105a8565b5f81558594506001016107bc565b50806107b6565b015190508c80610562565b9250600285015f5260205f20905f935b601f1984168510610845576001945083601f1981161061082d575b505050811b016002830155610579565b01515f1960f88460031b161c191690558c808061081d565b81810151835560209485019460019093019290910190610802565b909150600285015f5260205f20601f840160051c8101602085106108a9575b90849392915b601f830160051c8201811061089b57505061054c565b5f8155859450600101610885565b508061087f565b015190508c80610506565b9250600185015f5260205f20905f935b601f198416851061090e576001945083601f198116106108f6575b505050811b01600183015561051d565b01515f1960f88460031b161c191690558c80806108e6565b818101518355602094850194600190930192909101906108cb565b909150600185015f5260205f20601f840160051c810160208510610972575b90849392915b601f830160051c820181106109645750506104f0565b5f815585945060010161094e565b5080610948565b634e487b7160e01b5f52601160045260245ffd5b85906f111150511312539157d25397d41054d560821b6040519162461bcd60e51b83526020600484015260106024840152820152fd5b859075135155105110551057d21054d217d49154555254915160521b6040519162461bcd60e51b83526020600484015260166024840152820152fd5b85907314d3d55490d157d21054d217d49154555254915160621b6040519162461bcd60e51b83526020600484015260146024840152820152fd5b85907214d3d55490d157d5549317d491545552549151606a1b6040519162461bcd60e51b83526020600484015260136024840152820152fd5b6d151255131157d49154555254915160921b879262461bcd60e51b835260206004840152600e6024840152820152fd5b9181601f8401121561010c5782359167ffffffffffffffff831161010c576020838186019501011161010c57565b91908251928382525f5b848110610afa575050825f602080949584010152601f8019910116010190565b602081830181015184830182015201610ada565b90600482101561070a5752565b90610b64610b52610b4061014085518552602086015190806020870152850190610ad0565b60408501518482036040860152610ad0565b60608401518382036060850152610ad0565b916080810151608083015260a081015160a083015260c081015160c0830152610b9560e082015160e0840190610b0e565b610100818101516001600160a01b0316908301526101209081015191015290565b610140810190811067ffffffffffffffff8211176106f657604052565b90601f8019910116810190811067ffffffffffffffff8211176106f657604052565b92919267ffffffffffffffff82116106f65760405191610c1f601f8201601f191660200184610bd3565b82948184528183011161010c578281602093845f960137010152565b600482101561070a5752565b90600182811c92168015610c75575b6020831014610c6157565b634e487b7160e01b5f52602260045260245ffd5b91607f1691610c56565b90600481101561070a5760ff80198354169116179055565b600154811015610ccc5760015f527fb10e2d527612073b26eecdfd717e6a320cf44b4afac2b0732d9fcbe2b7fa0cf601905f90565b634e487b7160e01b5f52603260045260245ffd5b908060209392818452848401375f828201840152601f01601f1916010190565b67ffffffffffffffff81116106f65760051b60200190565b60405190610d2582610bb6565b5f6101208382815260606020820152606060408201526060808201528260808201528260a08201528260c08201528260e0820152826101008201520152565b8051821015610ccc5760209160051b010190565b9060405191825f8254610d8a81610c47565b908184526020946001916001811690815f14610df85750600114610dba575b505050610db892500383610bd3565b565b5f90815285812095935091905b818310610de0575050610db893508201015f8080610da9565b85548884018501529485019487945091830191610dc7565b92505050610db894925060ff191682840152151560051b8201015f8080610da9565b15610e2157565b60405162461bcd60e51b8152602060048201526016602482015275105551125517d5105491d15517d393d517d193d5539160521b6044820152606490fdfea264697066735822122094ca29b5bbff12593d62b66f2b5f25de2a472257ac4a4b72c8de68f95a230e0b64736f6c63430008180033","opcodes":"PUSH1 0x80 DUP1 PUSH1 0x40 MSTORE CALLVALUE PUSH2 0x1A JUMPI PUSH1 0x1 PUSH0 SSTORE PUSH2 0xE95 SWAP1 DUP2 PUSH2 0x1F DUP3 CODECOPY RETURN JUMPDEST PUSH0 DUP1 REVERT INVALID PUSH1 0x80 DUP1 PUSH1 0x40 MSTORE PUSH1 0x4 CALLDATASIZE LT ISZERO PUSH2 0x12 JUMPI PUSH0 DUP1 REVERT JUMPDEST PUSH1 0xE0 PUSH0 CALLDATALOAD PUSH1 0xE0 SHR SWAP2 DUP3 PUSH4 0x15EBC158 EQ PUSH2 0x393 JUMPI POP DUP2 PUSH4 0x2581D2A7 EQ PUSH2 0x1F2 JUMPI POP DUP1 PUSH4 0x4DBF426A EQ PUSH2 0x110 JUMPI PUSH4 0xDC0FF656 EQ PUSH2 0x4B JUMPI PUSH0 DUP1 REVERT JUMPDEST CALLVALUE PUSH2 0x10C JUMPI PUSH1 0x40 CALLDATASIZE PUSH1 0x3 NOT ADD SLT PUSH2 0x10C JUMPI PUSH1 0x4 CALLDATALOAD PUSH1 0x24 CALLDATALOAD PUSH1 0x4 DUP2 LT ISZERO PUSH2 0x10C JUMPI PUSH0 DUP3 DUP2 MSTORE PUSH1 0x2 PUSH1 0x20 MSTORE PUSH1 0x40 SWAP1 KECCAK256 PUSH1 0x7 ADD DUP1 SLOAD PUSH1 0x8 SHR PUSH1 0x1 PUSH1 0x1 PUSH1 0xA0 SHL SUB AND PUSH2 0x94 DUP2 ISZERO ISZERO PUSH2 0xE1A JUMP JUMPDEST CALLER SUB PUSH2 0xD8 JUMPI DUP2 PUSH2 0xC8 PUSH32 0x1530E29D5631E73C1608802CE913788D8B055C64AD2E7305526E7A6D1E513D38 SWAP4 PUSH1 0x20 SWAP4 PUSH2 0xC7F JUMP JUMPDEST PUSH2 0xD5 PUSH1 0x40 MLOAD DUP1 SWAP3 PUSH2 0xB0E JUMP JUMPDEST LOG2 STOP JUMPDEST PUSH1 0x40 MLOAD PUSH3 0x461BCD PUSH1 0xE5 SHL DUP2 MSTORE PUSH1 0x20 PUSH1 0x4 DUP3 ADD MSTORE PUSH1 0xC PUSH1 0x24 DUP3 ADD MSTORE PUSH12 0x27A7262CAFA1A922A0AA27A9 PUSH1 0xA1 SHL PUSH1 0x44 DUP3 ADD MSTORE PUSH1 0x64 SWAP1 REVERT JUMPDEST PUSH0 DUP1 REVERT JUMPDEST CALLVALUE PUSH2 0x10C JUMPI PUSH1 0x20 CALLDATASIZE PUSH1 0x3 NOT ADD SLT PUSH2 0x10C JUMPI PUSH2 0x129 PUSH2 0xD18 JUMP JUMPDEST POP PUSH1 0x4 CALLDATALOAD PUSH0 MSTORE PUSH1 0x2 PUSH1 0x20 MSTORE PUSH2 0x1EE PUSH1 0x40 PUSH0 KECCAK256 PUSH2 0x1DA PUSH1 0x40 MLOAD SWAP2 PUSH2 0x14B DUP4 PUSH2 0xBB6 JUMP JUMPDEST DUP1 SLOAD DUP4 MSTORE PUSH2 0x15B PUSH1 0x1 DUP3 ADD PUSH2 0xD78 JUMP JUMPDEST PUSH1 0x20 DUP5 ADD MSTORE PUSH2 0x16C PUSH1 0x2 DUP3 ADD PUSH2 0xD78 JUMP JUMPDEST PUSH1 0x40 DUP5 ADD MSTORE PUSH2 0x17D PUSH1 0x3 DUP3 ADD PUSH2 0xD78 JUMP JUMPDEST PUSH1 0x60 DUP5 ADD MSTORE PUSH1 0x4 DUP2 ADD SLOAD PUSH1 0x80 DUP5 ADD MSTORE PUSH1 0x5 DUP2 ADD SLOAD PUSH1 0xA0 DUP5 ADD MSTORE PUSH1 0x6 DUP2 ADD SLOAD PUSH1 0xC0 DUP5 ADD MSTORE PUSH1 0x8 PUSH1 0x7 DUP3 ADD SLOAD PUSH2 0x1B7 PUSH1 0xFF DUP3 AND PUSH1 0xE0 DUP8 ADD PUSH2 0xC3B JUMP JUMPDEST DUP2 SHR PUSH1 0x1 PUSH1 0x1 PUSH1 0xA0 SHL SUB AND PUSH2 0x100 DUP6 ADD DUP2 SWAP1 MSTORE SWAP2 ADD SLOAD PUSH2 0x120 DUP5 ADD MSTORE ISZERO ISZERO PUSH2 0xE1A JUMP JUMPDEST PUSH1 0x40 MLOAD SWAP2 DUP3 SWAP2 PUSH1 0x20 DUP4 MSTORE PUSH1 0x20 DUP4 ADD SWAP1 PUSH2 0xB1B JUMP JUMPDEST SUB SWAP1 RETURN JUMPDEST CALLVALUE PUSH2 0x10C JUMPI PUSH0 CALLDATASIZE PUSH1 0x3 NOT ADD SLT PUSH2 0x10C JUMPI PUSH1 0x1 SWAP1 PUSH1 0x1 SLOAD SWAP2 PUSH2 0x212 DUP4 PUSH2 0xD00 JUMP JUMPDEST SWAP3 PUSH2 0x220 PUSH1 0x40 MLOAD SWAP5 DUP6 PUSH2 0xBD3 JUMP JUMPDEST DUP1 DUP5 MSTORE PUSH2 0x22C DUP2 PUSH2 0xD00 JUMP JUMPDEST PUSH1 0x20 SWAP4 SWAP1 PUSH1 0x1F NOT ADD PUSH0 JUMPDEST DUP2 DUP2 LT PUSH2 0x377 JUMPI POP POP PUSH0 JUMPDEST DUP3 DUP2 LT PUSH2 0x2A9 JUMPI POP POP POP PUSH1 0x40 MLOAD SWAP2 DUP1 DUP4 ADD DUP2 DUP5 MSTORE DUP5 MLOAD DUP1 SWAP2 MSTORE PUSH1 0x40 DUP5 ADD SWAP2 DUP1 PUSH1 0x40 DUP4 PUSH1 0x5 SHL DUP8 ADD ADD SWAP7 ADD SWAP3 PUSH0 SWAP1 JUMPDEST DUP4 DUP3 LT PUSH2 0x27C JUMPI DUP7 DUP9 SUB DUP8 RETURN JUMPDEST SWAP1 SWAP2 SWAP3 SWAP4 SWAP5 DUP4 DUP1 PUSH2 0x298 DUP4 SWAP11 PUSH1 0x3F NOT DUP12 DUP3 SUB ADD DUP7 MSTORE DUP10 MLOAD PUSH2 0xB1B JUMP JUMPDEST SWAP10 SWAP8 ADD SWAP6 SWAP5 SWAP4 SWAP2 SWAP1 SWAP2 ADD SWAP2 ADD PUSH2 0x26F JUMP JUMPDEST SWAP3 DUP4 PUSH2 0x2B6 DUP3 SWAP8 SWAP6 PUSH2 0xC97 JUMP JUMPDEST SWAP1 SLOAD PUSH1 0x3 SWAP2 DUP3 SHL SHR PUSH0 MSTORE PUSH1 0x2 SWAP1 DUP2 DUP9 MSTORE PUSH2 0x304 PUSH1 0x40 PUSH0 KECCAK256 SWAP2 PUSH2 0x2F8 PUSH1 0x40 MLOAD SWAP5 PUSH2 0x2DE DUP7 PUSH2 0xBB6 JUMP JUMPDEST DUP5 SLOAD DUP7 MSTORE PUSH2 0x2ED DUP9 DUP7 ADD PUSH2 0xD78 JUMP JUMPDEST DUP13 DUP8 ADD MSTORE DUP5 ADD PUSH2 0xD78 JUMP JUMPDEST PUSH1 0x40 DUP6 ADD MSTORE DUP3 ADD PUSH2 0xD78 JUMP JUMPDEST PUSH1 0x60 DUP4 ADD MSTORE PUSH1 0x4 DUP2 ADD SLOAD PUSH1 0x80 DUP4 ADD MSTORE PUSH1 0x5 DUP2 ADD SLOAD PUSH1 0xA0 DUP4 ADD MSTORE PUSH1 0x6 DUP2 ADD SLOAD PUSH1 0xC0 DUP4 ADD MSTORE PUSH1 0x7 DUP2 ADD SLOAD SWAP1 PUSH2 0x33C PUSH1 0xFF DUP4 AND DUP8 DUP6 ADD PUSH2 0xC3B JUMP JUMPDEST PUSH1 0x8 SWAP2 DUP3 SHR PUSH1 0x1 PUSH1 0x1 PUSH1 0xA0 SHL SUB AND PUSH2 0x100 DUP5 ADD MSTORE ADD SLOAD PUSH2 0x120 DUP3 ADD MSTORE PUSH2 0x362 DUP3 DUP8 PUSH2 0xD64 JUMP JUMPDEST MSTORE PUSH2 0x36D DUP2 DUP7 PUSH2 0xD64 JUMP JUMPDEST POP ADD SWAP5 SWAP3 SWAP5 PUSH2 0x241 JUMP JUMPDEST DUP6 SWAP1 PUSH2 0x384 SWAP8 SWAP6 SWAP8 PUSH2 0xD18 JUMP JUMPDEST DUP3 DUP3 DUP9 ADD ADD MSTORE ADD SWAP6 SWAP4 SWAP6 PUSH2 0x236 JUMP JUMPDEST CALLVALUE PUSH2 0x10C JUMPI PUSH1 0xC0 CALLDATASIZE PUSH1 0x3 NOT ADD SLT PUSH2 0x10C JUMPI PUSH1 0x4 CALLDATALOAD PUSH8 0xFFFFFFFFFFFFFFFF DUP2 GT PUSH2 0x10C JUMPI PUSH2 0x3C4 SWAP1 CALLDATASIZE SWAP1 PUSH1 0x4 ADD PUSH2 0xAA2 JUMP JUMPDEST SWAP1 SWAP2 PUSH1 0x24 CALLDATALOAD PUSH8 0xFFFFFFFFFFFFFFFF DUP2 GT PUSH2 0x10C JUMPI PUSH2 0x3E6 SWAP1 CALLDATASIZE SWAP1 PUSH1 0x4 ADD PUSH2 0xAA2 JUMP JUMPDEST SWAP3 SWAP1 PUSH1 0x44 SWAP4 DUP5 CALLDATALOAD PUSH8 0xFFFFFFFFFFFFFFFF DUP2 GT PUSH2 0x10C JUMPI PUSH2 0x40A SWAP1 CALLDATASIZE SWAP1 PUSH1 0x4 ADD PUSH2 0xAA2 JUMP JUMPDEST SWAP1 SWAP6 PUSH1 0x64 SWAP6 DUP6 ISZERO PUSH2 0xA72 JUMPI POP DUP2 ISZERO PUSH2 0xA39 JUMPI DUP6 CALLDATALOAD ISZERO PUSH2 0x9FF JUMPI PUSH1 0xA4 CALLDATALOAD ISZERO PUSH2 0x9C3 JUMPI TIMESTAMP PUSH1 0x84 CALLDATALOAD GT ISZERO PUSH2 0x98D JUMPI POP PUSH0 SLOAD SWAP6 PUSH0 NOT DUP8 EQ PUSH2 0x979 JUMPI PUSH1 0x1 DUP8 ADD PUSH0 SSTORE PUSH1 0x40 MLOAD PUSH2 0x453 DUP2 PUSH2 0xBB6 JUMP JUMPDEST DUP8 DUP2 MSTORE PUSH2 0x461 CALLDATASIZE DUP8 DUP12 PUSH2 0xBF5 JUMP JUMPDEST SWAP1 PUSH1 0x20 DUP2 ADD SWAP2 DUP3 MSTORE PUSH2 0x474 CALLDATASIZE DUP7 DUP9 PUSH2 0xBF5 JUMP JUMPDEST PUSH1 0x40 DUP3 ADD MSTORE PUSH2 0x484 CALLDATASIZE DUP6 DUP6 PUSH2 0xBF5 JUMP JUMPDEST PUSH1 0x60 DUP3 ADD MSTORE DUP8 CALLDATALOAD PUSH1 0x80 DUP3 ADD MSTORE PUSH1 0x84 CALLDATALOAD PUSH1 0xA0 DUP3 ADD MSTORE TIMESTAMP PUSH1 0xC0 DUP3 ADD MSTORE PUSH0 PUSH1 0xE0 DUP3 ADD MSTORE CALLER PUSH2 0x100 DUP3 ADD MSTORE PUSH1 0xA4 CALLDATALOAD PUSH2 0x120 DUP3 ADD MSTORE DUP9 PUSH0 MSTORE PUSH1 0x2 PUSH1 0x20 MSTORE PUSH1 0x40 PUSH0 KECCAK256 SWAP2 DUP2 MLOAD DUP4 SSTORE MLOAD DUP1 MLOAD SWAP1 PUSH8 0xFFFFFFFFFFFFFFFF DUP3 GT PUSH2 0x6F6 JUMPI DUP2 SWAP1 PUSH2 0x4E7 PUSH1 0x1 DUP7 ADD SLOAD PUSH2 0xC47 JUMP JUMPDEST PUSH1 0x1F DUP2 GT PUSH2 0x929 JUMPI JUMPDEST POP PUSH1 0x20 SWAP1 PUSH1 0x1F DUP4 GT PUSH1 0x1 EQ PUSH2 0x8BB JUMPI PUSH0 SWAP3 PUSH2 0x8B0 JUMPI JUMPDEST POP POP DUP2 PUSH1 0x1 SHL SWAP2 PUSH0 NOT SWAP1 PUSH1 0x3 SHL SHR NOT AND OR PUSH1 0x1 DUP4 ADD SSTORE JUMPDEST PUSH1 0x40 DUP2 ADD MLOAD DUP1 MLOAD SWAP1 PUSH8 0xFFFFFFFFFFFFFFFF DUP3 GT PUSH2 0x6F6 JUMPI DUP2 SWAP1 PUSH2 0x543 PUSH1 0x2 DUP7 ADD SLOAD PUSH2 0xC47 JUMP JUMPDEST PUSH1 0x1F DUP2 GT PUSH2 0x860 JUMPI JUMPDEST POP PUSH1 0x20 SWAP1 PUSH1 0x1F DUP4 GT PUSH1 0x1 EQ PUSH2 0x7F2 JUMPI PUSH0 SWAP3 PUSH2 0x7E7 JUMPI JUMPDEST POP POP DUP2 PUSH1 0x1 SHL SWAP2 PUSH0 NOT SWAP1 PUSH1 0x3 SHL SHR NOT AND OR PUSH1 0x2 DUP4 ADD SSTORE JUMPDEST PUSH1 0x60 DUP2 ADD MLOAD DUP1 MLOAD SWAP1 PUSH8 0xFFFFFFFFFFFFFFFF DUP3 GT PUSH2 0x6F6 JUMPI DUP2 SWAP1 PUSH2 0x59F PUSH1 0x3 DUP7 ADD SLOAD PUSH2 0xC47 JUMP JUMPDEST PUSH1 0x1F DUP2 GT PUSH2 0x797 JUMPI JUMPDEST POP PUSH1 0x20 SWAP1 PUSH1 0x1F DUP4 GT PUSH1 0x1 EQ PUSH2 0x729 JUMPI PUSH0 SWAP3 PUSH2 0x71E JUMPI JUMPDEST POP POP DUP2 PUSH1 0x1 SHL SWAP2 PUSH0 NOT SWAP1 PUSH1 0x3 SHL SHR NOT AND OR PUSH1 0x3 DUP4 ADD SSTORE JUMPDEST PUSH1 0x80 DUP2 ADD MLOAD PUSH1 0x4 DUP4 ADD SSTORE PUSH1 0xA0 DUP2 ADD MLOAD PUSH1 0x5 DUP4 ADD SSTORE PUSH1 0xC0 DUP2 ADD MLOAD PUSH1 0x6 DUP4 ADD SSTORE PUSH1 0x7 DUP3 ADD SWAP1 PUSH1 0xE0 DUP2 ADD MLOAD SWAP1 PUSH1 0x4 DUP3 LT ISZERO PUSH2 0x70A JUMPI DUP3 PUSH2 0x617 PUSH2 0x120 SWAP4 PUSH1 0x8 SWAP6 PUSH2 0xC7F JUMP JUMPDEST PUSH2 0x100 DUP3 ADD MLOAD DUP2 SLOAD PUSH2 0x100 PUSH1 0x1 PUSH1 0xA8 SHL SUB NOT AND SWAP1 DUP6 SHL PUSH2 0x100 PUSH1 0x1 PUSH1 0xA8 SHL SUB AND OR SWAP1 SSTORE ADD MLOAD SWAP2 ADD SSTORE PUSH1 0x1 SLOAD SWAP2 PUSH9 0x10000000000000000 DUP4 LT ISZERO PUSH2 0x6F6 JUMPI PUSH2 0x6C7 DUP9 SWAP6 PUSH32 0xE403E22B7CA5F285C8B9D6BB22F786DDFCE8C2E648A69D14CFF679B2FD28A9C1 SWAP6 PUSH2 0x6BA PUSH1 0x20 SWAP13 PUSH2 0x694 DUP9 PUSH1 0x1 PUSH2 0x6D5 SWAP11 ADD PUSH1 0x1 SSTORE PUSH2 0xC97 JUMP JUMPDEST DUP2 SLOAD SWAP1 PUSH1 0x3 SHL SWAP1 DUP13 DUP3 SHL SWAP2 PUSH0 NOT SWAP1 SHL NOT AND OR SWAP1 SSTORE PUSH1 0x40 MLOAD SWAP11 PUSH1 0xA0 DUP13 MSTORE PUSH1 0xA0 DUP13 ADD SWAP2 PUSH2 0xCE0 JUMP JUMPDEST SWAP2 DUP10 DUP4 SUB DUP14 DUP12 ADD MSTORE PUSH2 0xCE0 JUMP JUMPDEST SWAP2 DUP7 DUP4 SUB PUSH1 0x40 DUP9 ADD MSTORE PUSH2 0xCE0 JUMP JUMPDEST SWAP3 PUSH1 0x84 CALLDATALOAD PUSH1 0x60 DUP3 ADD MSTORE CALLER PUSH1 0x80 DUP3 ADD MSTORE DUP1 PUSH1 0xA4 CALLDATALOAD SWAP6 CALLDATALOAD SWAP5 SUB SWAP1 LOG4 PUSH1 0x40 MLOAD SWAP1 DUP2 MSTORE RETURN JUMPDEST PUSH4 0x4E487B71 PUSH1 0xE0 SHL PUSH0 MSTORE PUSH1 0x41 PUSH1 0x4 MSTORE PUSH1 0x24 PUSH0 REVERT JUMPDEST PUSH4 0x4E487B71 PUSH1 0xE0 SHL PUSH0 MSTORE PUSH1 0x21 PUSH1 0x4 MSTORE PUSH1 0x24 PUSH0 REVERT JUMPDEST ADD MLOAD SWAP1 POP DUP13 DUP1 PUSH2 0x5BE JUMP JUMPDEST SWAP3 POP PUSH1 0x3 DUP6 ADD PUSH0 MSTORE PUSH1 0x20 PUSH0 KECCAK256 SWAP1 PUSH0 SWAP4 JUMPDEST PUSH1 0x1F NOT DUP5 AND DUP6 LT PUSH2 0x77C JUMPI PUSH1 0x1 SWAP5 POP DUP4 PUSH1 0x1F NOT DUP2 AND LT PUSH2 0x764 JUMPI JUMPDEST POP POP POP DUP2 SHL ADD PUSH1 0x3 DUP4 ADD SSTORE PUSH2 0x5D5 JUMP JUMPDEST ADD MLOAD PUSH0 NOT PUSH1 0xF8 DUP5 PUSH1 0x3 SHL AND SHR NOT AND SWAP1 SSTORE DUP13 DUP1 DUP1 PUSH2 0x754 JUMP JUMPDEST DUP2 DUP2 ADD MLOAD DUP4 SSTORE PUSH1 0x20 SWAP5 DUP6 ADD SWAP5 PUSH1 0x1 SWAP1 SWAP4 ADD SWAP3 SWAP1 SWAP2 ADD SWAP1 PUSH2 0x739 JUMP JUMPDEST SWAP1 SWAP2 POP PUSH1 0x3 DUP6 ADD PUSH0 MSTORE PUSH1 0x20 PUSH0 KECCAK256 PUSH1 0x1F DUP5 ADD PUSH1 0x5 SHR DUP2 ADD PUSH1 0x20 DUP6 LT PUSH2 0x7E0 JUMPI JUMPDEST SWAP1 DUP5 SWAP4 SWAP3 SWAP2 JUMPDEST PUSH1 0x1F DUP4 ADD PUSH1 0x5 SHR DUP3 ADD DUP2 LT PUSH2 0x7D2 JUMPI POP POP PUSH2 0x5A8 JUMP JUMPDEST PUSH0 DUP2 SSTORE DUP6 SWAP5 POP PUSH1 0x1 ADD PUSH2 0x7BC JUMP JUMPDEST POP DUP1 PUSH2 0x7B6 JUMP JUMPDEST ADD MLOAD SWAP1 POP DUP13 DUP1 PUSH2 0x562 JUMP JUMPDEST SWAP3 POP PUSH1 0x2 DUP6 ADD PUSH0 MSTORE PUSH1 0x20 PUSH0 KECCAK256 SWAP1 PUSH0 SWAP4 JUMPDEST PUSH1 0x1F NOT DUP5 AND DUP6 LT PUSH2 0x845 JUMPI PUSH1 0x1 SWAP5 POP DUP4 PUSH1 0x1F NOT DUP2 AND LT PUSH2 0x82D JUMPI JUMPDEST POP POP POP DUP2 SHL ADD PUSH1 0x2 DUP4 ADD SSTORE PUSH2 0x579 JUMP JUMPDEST ADD MLOAD PUSH0 NOT PUSH1 0xF8 DUP5 PUSH1 0x3 SHL AND SHR NOT AND SWAP1 SSTORE DUP13 DUP1 DUP1 PUSH2 0x81D JUMP JUMPDEST DUP2 DUP2 ADD MLOAD DUP4 SSTORE PUSH1 0x20 SWAP5 DUP6 ADD SWAP5 PUSH1 0x1 SWAP1 SWAP4 ADD SWAP3 SWAP1 SWAP2 ADD SWAP1 PUSH2 0x802 JUMP JUMPDEST SWAP1 SWAP2 POP PUSH1 0x2 DUP6 ADD PUSH0 MSTORE PUSH1 0x20 PUSH0 KECCAK256 PUSH1 0x1F DUP5 ADD PUSH1 0x5 SHR DUP2 ADD PUSH1 0x20 DUP6 LT PUSH2 0x8A9 JUMPI JUMPDEST SWAP1 DUP5 SWAP4 SWAP3 SWAP2 JUMPDEST PUSH1 0x1F DUP4 ADD PUSH1 0x5 SHR DUP3 ADD DUP2 LT PUSH2 0x89B JUMPI POP POP PUSH2 0x54C JUMP JUMPDEST PUSH0 DUP2 SSTORE DUP6 SWAP5 POP PUSH1 0x1 ADD PUSH2 0x885 JUMP JUMPDEST POP DUP1 PUSH2 0x87F JUMP JUMPDEST ADD MLOAD SWAP1 POP DUP13 DUP1 PUSH2 0x506 JUMP JUMPDEST SWAP3 POP PUSH1 0x1 DUP6 ADD PUSH0 MSTORE PUSH1 0x20 PUSH0 KECCAK256 SWAP1 PUSH0 SWAP4 JUMPDEST PUSH1 0x1F NOT DUP5 AND DUP6 LT PUSH2 0x90E JUMPI PUSH1 0x1 SWAP5 POP DUP4 PUSH1 0x1F NOT DUP2 AND LT PUSH2 0x8F6 JUMPI JUMPDEST POP POP POP DUP2 SHL ADD PUSH1 0x1 DUP4 ADD SSTORE PUSH2 0x51D JUMP JUMPDEST ADD MLOAD PUSH0 NOT PUSH1 0xF8 DUP5 PUSH1 0x3 SHL AND SHR NOT AND SWAP1 SSTORE DUP13 DUP1 DUP1 PUSH2 0x8E6 JUMP JUMPDEST DUP2 DUP2 ADD MLOAD DUP4 SSTORE PUSH1 0x20 SWAP5 DUP6 ADD SWAP5 PUSH1 0x1 SWAP1 SWAP4 ADD SWAP3 SWAP1 SWAP2 ADD SWAP1 PUSH2 0x8CB JUMP JUMPDEST SWAP1 SWAP2 POP PUSH1 0x1 DUP6 ADD PUSH0 MSTORE PUSH1 0x20 PUSH0 KECCAK256 PUSH1 0x1F DUP5 ADD PUSH1 0x5 SHR DUP2 ADD PUSH1 0x20 DUP6 LT PUSH2 0x972 JUMPI JUMPDEST SWAP1 DUP5 SWAP4 SWAP3 SWAP2 JUMPDEST PUSH1 0x1F DUP4 ADD PUSH1 0x5 SHR DUP3 ADD DUP2 LT PUSH2 0x964 JUMPI POP POP PUSH2 0x4F0 JUMP JUMPDEST PUSH0 DUP2 SSTORE DUP6 SWAP5 POP PUSH1 0x1 ADD PUSH2 0x94E JUMP JUMPDEST POP DUP1 PUSH2 0x948 JUMP JUMPDEST PUSH4 0x4E487B71 PUSH1 0xE0 SHL PUSH0 MSTORE PUSH1 0x11 PUSH1 0x4 MSTORE PUSH1 0x24 PUSH0 REVERT JUMPDEST DUP6 SWAP1 PUSH16 0x111150511312539157D25397D41054D5 PUSH1 0x82 SHL PUSH1 0x40 MLOAD SWAP2 PUSH3 0x461BCD PUSH1 0xE5 SHL DUP4 MSTORE PUSH1 0x20 PUSH1 0x4 DUP5 ADD MSTORE PUSH1 0x10 PUSH1 0x24 DUP5 ADD MSTORE DUP3 ADD MSTORE REVERT JUMPDEST DUP6 SWAP1 PUSH22 0x135155105110551057D21054D217D491545552549151 PUSH1 0x52 SHL PUSH1 0x40 MLOAD SWAP2 PUSH3 0x461BCD PUSH1 0xE5 SHL DUP4 MSTORE PUSH1 0x20 PUSH1 0x4 DUP5 ADD MSTORE PUSH1 0x16 PUSH1 0x24 DUP5 ADD MSTORE DUP3 ADD MSTORE REVERT JUMPDEST DUP6 SWAP1 PUSH20 0x14D3D55490D157D21054D217D491545552549151 PUSH1 0x62 SHL PUSH1 0x40 MLOAD SWAP2 PUSH3 0x461BCD PUSH1 0xE5 SHL DUP4 MSTORE PUSH1 0x20 PUSH1 0x4 DUP5 ADD MSTORE PUSH1 0x14 PUSH1 0x24 DUP5 ADD MSTORE DUP3 ADD MSTORE REVERT JUMPDEST DUP6 SWAP1 PUSH19 0x14D3D55490D157D5549317D491545552549151 PUSH1 0x6A SHL PUSH1 0x40 MLOAD SWAP2 PUSH3 0x461BCD PUSH1 0xE5 SHL DUP4 MSTORE PUSH1 0x20 PUSH1 0x4 DUP5 ADD MSTORE PUSH1 0x13 PUSH1 0x24 DUP5 ADD MSTORE DUP3 ADD MSTORE REVERT JUMPDEST PUSH14 0x151255131157D491545552549151 PUSH1 0x92 SHL DUP8 SWAP3 PUSH3 0x461BCD PUSH1 0xE5 SHL DUP4 MSTORE PUSH1 0x20 PUSH1 0x4 DUP5 ADD MSTORE PUSH1 0xE PUSH1 0x24 DUP5 ADD MSTORE DUP3 ADD MSTORE REVERT JUMPDEST SWAP2 DUP2 PUSH1 0x1F DUP5 ADD SLT ISZERO PUSH2 0x10C JUMPI DUP3 CALLDATALOAD SWAP2 PUSH8 0xFFFFFFFFFFFFFFFF DUP4 GT PUSH2 0x10C JUMPI PUSH1 0x20 DUP4 DUP2 DUP7 ADD SWAP6 ADD ADD GT PUSH2 0x10C JUMPI JUMP JUMPDEST SWAP2 SWAP1 DUP3 MLOAD SWAP3 DUP4 DUP3 MSTORE PUSH0 JUMPDEST DUP5 DUP2 LT PUSH2 0xAFA JUMPI POP POP DUP3 PUSH0 PUSH1 0x20 DUP1 SWAP5 SWAP6 DUP5 ADD ADD MSTORE PUSH1 0x1F DUP1 NOT SWAP2 ADD AND ADD ADD SWAP1 JUMP JUMPDEST PUSH1 0x20 DUP2 DUP4 ADD DUP2 ADD MLOAD DUP5 DUP4 ADD DUP3 ADD MSTORE ADD PUSH2 0xADA JUMP JUMPDEST SWAP1 PUSH1 0x4 DUP3 LT ISZERO PUSH2 0x70A JUMPI MSTORE JUMP JUMPDEST SWAP1 PUSH2 0xB64 PUSH2 0xB52 PUSH2 0xB40 PUSH2 0x140 DUP6 MLOAD DUP6 MSTORE PUSH1 0x20 DUP7 ADD MLOAD SWAP1 DUP1 PUSH1 0x20 DUP8 ADD MSTORE DUP6 ADD SWAP1 PUSH2 0xAD0 JUMP JUMPDEST PUSH1 0x40 DUP6 ADD MLOAD DUP5 DUP3 SUB PUSH1 0x40 DUP7 ADD MSTORE PUSH2 0xAD0 JUMP JUMPDEST PUSH1 0x60 DUP5 ADD MLOAD DUP4 DUP3 SUB PUSH1 0x60 DUP6 ADD MSTORE PUSH2 0xAD0 JUMP JUMPDEST SWAP2 PUSH1 0x80 DUP2 ADD MLOAD PUSH1 0x80 DUP4 ADD MSTORE PUSH1 0xA0 DUP2 ADD MLOAD PUSH1 0xA0 DUP4 ADD MSTORE PUSH1 0xC0 DUP2 ADD MLOAD PUSH1 0xC0 DUP4 ADD MSTORE PUSH2 0xB95 PUSH1 0xE0 DUP3 ADD MLOAD PUSH1 0xE0 DUP5 ADD SWAP1 PUSH2 0xB0E JUMP JUMPDEST PUSH2 0x100 DUP2 DUP2 ADD MLOAD PUSH1 0x1 PUSH1 0x1 PUSH1 0xA0 SHL SUB AND SWAP1 DUP4 ADD MSTORE PUSH2 0x120 SWAP1 DUP2 ADD MLOAD SWAP2 ADD MSTORE SWAP1 JUMP JUMPDEST PUSH2 0x140 DUP2 ADD SWAP1 DUP2 LT PUSH8 0xFFFFFFFFFFFFFFFF DUP3 GT OR PUSH2 0x6F6 JUMPI PUSH1 0x40 MSTORE JUMP JUMPDEST SWAP1 PUSH1 0x1F DUP1 NOT SWAP2 ADD AND DUP2 ADD SWAP1 DUP2 LT PUSH8 0xFFFFFFFFFFFFFFFF DUP3 GT OR PUSH2 0x6F6 JUMPI PUSH1 0x40 MSTORE JUMP JUMPDEST SWAP3 SWAP2 SWAP3 PUSH8 0xFFFFFFFFFFFFFFFF DUP3 GT PUSH2 0x6F6 JUMPI PUSH1 0x40 MLOAD SWAP2 PUSH2 0xC1F PUSH1 0x1F DUP3 ADD PUSH1 0x1F NOT AND PUSH1 0x20 ADD DUP5 PUSH2 0xBD3 JUMP JUMPDEST DUP3 SWAP5 DUP2 DUP5 MSTORE DUP2 DUP4 ADD GT PUSH2 0x10C JUMPI DUP3 DUP2 PUSH1 0x20 SWAP4 DUP5 PUSH0 SWAP7 ADD CALLDATACOPY ADD ADD MSTORE JUMP JUMPDEST PUSH1 0x4 DUP3 LT ISZERO PUSH2 0x70A JUMPI MSTORE JUMP JUMPDEST SWAP1 PUSH1 0x1 DUP3 DUP2 SHR SWAP3 AND DUP1 ISZERO PUSH2 0xC75 JUMPI JUMPDEST PUSH1 0x20 DUP4 LT EQ PUSH2 0xC61 JUMPI JUMP JUMPDEST PUSH4 0x4E487B71 PUSH1 0xE0 SHL PUSH0 MSTORE PUSH1 0x22 PUSH1 0x4 MSTORE PUSH1 0x24 PUSH0 REVERT JUMPDEST SWAP2 PUSH1 0x7F AND SWAP2 PUSH2 0xC56 JUMP JUMPDEST SWAP1 PUSH1 0x4 DUP2 LT ISZERO PUSH2 0x70A JUMPI PUSH1 0xFF DUP1 NOT DUP4 SLOAD AND SWAP2 AND OR SWAP1 SSTORE JUMP JUMPDEST PUSH1 0x1 SLOAD DUP2 LT ISZERO PUSH2 0xCCC JUMPI PUSH1 0x1 PUSH0 MSTORE PUSH32 0xB10E2D527612073B26EECDFD717E6A320CF44B4AFAC2B0732D9FCBE2B7FA0CF6 ADD SWAP1 PUSH0 SWAP1 JUMP JUMPDEST PUSH4 0x4E487B71 PUSH1 0xE0 SHL PUSH0 MSTORE PUSH1 0x32 PUSH1 0x4 MSTORE PUSH1 0x24 PUSH0 REVERT JUMPDEST SWAP1 DUP1 PUSH1 0x20 SWAP4 SWAP3 DUP2 DUP5 MSTORE DUP5 DUP5 ADD CALLDATACOPY PUSH0 DUP3 DUP3 ADD DUP5 ADD MSTORE PUSH1 0x1F ADD PUSH1 0x1F NOT AND ADD ADD SWAP1 JUMP JUMPDEST PUSH8 0xFFFFFFFFFFFFFFFF DUP2 GT PUSH2 0x6F6 JUMPI PUSH1 0x5 SHL PUSH1 0x20 ADD SWAP1 JUMP JUMPDEST PUSH1 0x40 MLOAD SWAP1 PUSH2 0xD25 DUP3 PUSH2 0xBB6 JUMP JUMPDEST PUSH0 PUSH2 0x120 DUP4 DUP3 DUP2 MSTORE PUSH1 0x60 PUSH1 0x20 DUP3 ADD MSTORE PUSH1 0x60 PUSH1 0x40 DUP3 ADD MSTORE PUSH1 0x60 DUP1 DUP3 ADD MSTORE DUP3 PUSH1 0x80 DUP3 ADD MSTORE DUP3 PUSH1 0xA0 DUP3 ADD MSTORE DUP3 PUSH1 0xC0 DUP3 ADD MSTORE DUP3 PUSH1 0xE0 DUP3 ADD MSTORE DUP3 PUSH2 0x100 DUP3 ADD MSTORE ADD MSTORE JUMP JUMPDEST DUP1 MLOAD DUP3 LT ISZERO PUSH2 0xCCC JUMPI PUSH1 0x20 SWAP2 PUSH1 0x5 SHL ADD ADD SWAP1 JUMP JUMPDEST SWAP1 PUSH1 0x40 MLOAD SWAP2 DUP3 PUSH0 DUP3 SLOAD PUSH2 0xD8A DUP2 PUSH2 0xC47 JUMP JUMPDEST SWAP1 DUP2 DUP5 MSTORE PUSH1 0x20 SWAP5 PUSH1 0x1 SWAP2 PUSH1 0x1 DUP2 AND SWAP1 DUP2 PUSH0 EQ PUSH2 0xDF8 JUMPI POP PUSH1 0x1 EQ PUSH2 0xDBA JUMPI JUMPDEST POP POP POP PUSH2 0xDB8 SWAP3 POP SUB DUP4 PUSH2 0xBD3 JUMP JUMPDEST JUMP JUMPDEST PUSH0 SWAP1 DUP2 MSTORE DUP6 DUP2 KECCAK256 SWAP6 SWAP4 POP SWAP2 SWAP1 JUMPDEST DUP2 DUP4 LT PUSH2 0xDE0 JUMPI POP POP PUSH2 0xDB8 SWAP4 POP DUP3 ADD ADD PUSH0 DUP1 DUP1 PUSH2 0xDA9 JUMP JUMPDEST DUP6 SLOAD DUP9 DUP5 ADD DUP6 ADD MSTORE SWAP5 DUP6 ADD SWAP5 DUP8 SWAP5 POP SWAP2 DUP4 ADD SWAP2 PUSH2 0xDC7 JUMP JUMPDEST SWAP3 POP POP POP PUSH2 0xDB8 SWAP5 SWAP3 POP PUSH1 0xFF NOT AND DUP3 DUP5 ADD MSTORE ISZERO ISZERO PUSH1 0x5 SHL DUP3 ADD ADD PUSH0 DUP1 DUP1 PUSH2 0xDA9 JUMP JUMPDEST ISZERO PUSH2 0xE21 JUMPI JUMP JUMPDEST PUSH1 0x40 MLOAD PUSH3 0x461BCD PUSH1 0xE5 SHL DUP2 MSTORE PUSH1 0x20 PUSH1 0x4 DUP3 ADD MSTORE PUSH1 0x16 PUSH1 0x24 DUP3 ADD MSTORE PUSH22 0x105551125517D5105491D15517D393D517D193D55391 PUSH1 0x52 SHL PUSH1 0x44 DUP3 ADD MSTORE PUSH1 0x64 SWAP1 REVERT INVALID LOG2 PUSH5 0x6970667358 0x22 SLT KECCAK256 SWAP5 0xCA 0x29 0xB5 0xBB SELFDESTRUCT SLT MSIZE RETURNDATASIZE PUSH3 0xB66F2B PUSH0 0x25 0xDE 0x2A SELFBALANCE 0x22 JUMPI 0xAC BLOBBASEFEE 0x4B PUSH19 0xC8DE68F95A230E0B64736F6C63430008180033 "},"methodIdentifiers":{"createAuditTarget(string,string,string,bytes32,uint256,bytes32)":"15ebc158","getAuditTarget(uint256)":"4dbf426a","getAuditTargets()":"2581d2a7","updateAuditTargetStatus(uint256,uint8)":"dc0ff656"}}}}}