{"project/contracts/ReasoningReceiptRegistry.sol":{"ReasoningReceiptRegistry":{"abi":[{"anonymous":false,"inputs":[{"indexed":true,"internalType":"uint256","name":"receiptId","type":"uint256"},{"indexed":false,"internalType":"enum ReasoningReceiptRegistry.LifecycleState","name":"lifecycleState","type":"uint8"}],"name":"LifecycleUpdated","type":"event"},{"anonymous":false,"inputs":[{"indexed":true,"internalType":"uint256","name":"receiptId","type":"uint256"},{"indexed":false,"internalType":"string","name":"agentId","type":"string"},{"indexed":true,"internalType":"uint256","name":"marketId","type":"uint256"},{"indexed":true,"internalType":"bytes32","name":"reasoningHash","type":"bytes32"},{"indexed":false,"internalType":"uint16","name":"integrityScore","type":"uint16"},{"indexed":false,"internalType":"string","name":"decision","type":"string"}],"name":"ReceiptWritten","type":"event"},{"inputs":[{"internalType":"uint256","name":"receiptId","type":"uint256"}],"name":"getReceipt","outputs":[{"components":[{"internalType":"uint256","name":"receiptId","type":"uint256"},{"internalType":"string","name":"agentId","type":"string"},{"internalType":"uint256","name":"marketId","type":"uint256"},{"internalType":"bytes32","name":"signalHash","type":"bytes32"},{"internalType":"bytes32","name":"reasoningHash","type":"bytes32"},{"internalType":"uint16","name":"integrityScore","type":"uint16"},{"internalType":"uint16","name":"agentProbability","type":"uint16"},{"internalType":"uint16","name":"marketProbability","type":"uint16"},{"internalType":"int256","name":"edgeBps","type":"int256"},{"internalType":"uint256","name":"suggestedUsdcAmount","type":"uint256"},{"internalType":"string","name":"decision","type":"string"},{"internalType":"enum ReasoningReceiptRegistry.LifecycleState","name":"lifecycleState","type":"uint8"},{"internalType":"uint256","name":"timestamp","type":"uint256"}],"internalType":"struct ReasoningReceiptRegistry.Receipt","name":"","type":"tuple"}],"stateMutability":"view","type":"function"},{"inputs":[{"internalType":"string","name":"agentId","type":"string"}],"name":"getReceiptsByAgent","outputs":[{"components":[{"internalType":"uint256","name":"receiptId","type":"uint256"},{"internalType":"string","name":"agentId","type":"string"},{"internalType":"uint256","name":"marketId","type":"uint256"},{"internalType":"bytes32","name":"signalHash","type":"bytes32"},{"internalType":"bytes32","name":"reasoningHash","type":"bytes32"},{"internalType":"uint16","name":"integrityScore","type":"uint16"},{"internalType":"uint16","name":"agentProbability","type":"uint16"},{"internalType":"uint16","name":"marketProbability","type":"uint16"},{"internalType":"int256","name":"edgeBps","type":"int256"},{"internalType":"uint256","name":"suggestedUsdcAmount","type":"uint256"},{"internalType":"string","name":"decision","type":"string"},{"internalType":"enum ReasoningReceiptRegistry.LifecycleState","name":"lifecycleState","type":"uint8"},{"internalType":"uint256","name":"timestamp","type":"uint256"}],"internalType":"struct ReasoningReceiptRegistry.Receipt[]","name":"results","type":"tuple[]"}],"stateMutability":"view","type":"function"},{"inputs":[{"internalType":"uint256","name":"receiptId","type":"uint256"},{"internalType":"enum ReasoningReceiptRegistry.LifecycleState","name":"lifecycleState","type":"uint8"}],"name":"updateLifecycleState","outputs":[],"stateMutability":"nonpayable","type":"function"},{"inputs":[{"internalType":"string","name":"agentId","type":"string"},{"internalType":"uint256","name":"marketId","type":"uint256"},{"internalType":"bytes32","name":"signalHash","type":"bytes32"},{"internalType":"bytes32","name":"reasoningHash","type":"bytes32"},{"internalType":"uint16","name":"integrityScore","type":"uint16"},{"internalType":"uint16","name":"agentProbability","type":"uint16"},{"internalType":"uint16","name":"marketProbability","type":"uint16"},{"internalType":"int256","name":"edgeBps","type":"int256"},{"internalType":"uint256","name":"suggestedUsdcAmount","type":"uint256"},{"internalType":"string","name":"decision","type":"string"}],"name":"writeReceipt","outputs":[{"internalType":"uint256","name":"receiptId","type":"uint256"}],"stateMutability":"nonpayable","type":"function"}],"evm":{"bytecode":{"linkReferences":{},"object":"6080806040523461001a5760015f55610de2908161001f8239f35b5f80fdfe60806040526004361015610011575f80fd5b60e05f3560e01c90816331a294ee146107ee575080635f4d654c1461076a578063b63e6ac3146106665763dbfbc8e914610049575f80fd5b34610662576101403660031901126106625760043567ffffffffffffffff81116106625761007b903690600401610a11565b60843591606461ffff841684036106625760a4359061ffff821682036106625760c4359361ffff85168503610662576101243567ffffffffffffffff8111610662576100cb903690600401610a11565b949093821561062d578361ffff8916116105f3578361ffff8216116105b7578361ffff88161161057a575f54965f1988146105665761ffff90600189015f55816040519361011885610b3c565b8a8552610126368888610b7b565b60208601526024356040860152604435606086015287356080860152818c1660a08601521660c08401521660e082015260e43561010082015261010435610120820152610174368787610b7b565b6101408201525f61016082015242610180820152865f52600160205260405f209080518255602081015180519067ffffffffffffffff82116103af5781906101bf6001860154610c4e565b601f8111610516575b50602090601f83116001146104a8575f9261049d575b50508160011b915f199060031b1c19161760018301555b6040810151600283015560608101516003830155608081015160048301556005820161ffff60a08301511681549063ffff000060c085015160101b169065ffff0000000060e086015160201b169265ffffffffffff191617171790556101008101516006830155610120810151600783015561014081015180519067ffffffffffffffff82116103af57819061028e6008860154610c4e565b601f811161044d575b50602090601f83116001146103e2575f926103d7575b50508160011b915f199060031b1c19161760088301555b61016081015160058110156103c357600a916102e66101809260098601610d74565b01519101556102f6368383610b7b565b602081519101205f52600260205260405f20918254680100000000000000008110156103af576001810180855581101561039b57602098889586610390937f1030bdb9fc309af7d6a0dd29c97534f946da088d34a4fb695a855bd9123d379e975f528c5f20015561ffff610377604051968796606088526060880191610d8c565b92168b8501528382036040850152359760243597610d8c565b0390a4604051908152f35b634e487b7160e01b5f52603260045260245ffd5b634e487b7160e01b5f52604160045260245ffd5b634e487b7160e01b5f52602160045260245ffd5b015190505f806102ad565b600886015f908152602081209350601f198516905b818110610435575090846001959493921061041d575b505050811b0160088301556102c4565b01515f1960f88460031b161c191690555f808061040d565b929360206001819287860151815501950193016103f7565b909150600885015f5260205f20601f840160051c810160208510610496575b90849392915b601f830160051c82018110610488575050610297565b5f8155859450600101610472565b508061046c565b015190505f806101de565b9250600185015f5260205f20905f935b601f19841685106104fb576001945083601f198116106104e3575b505050811b0160018301556101f5565b01515f1960f88460031b161c191690555f80806104d3565b818101518355602094850194600190930192909101906104b8565b909150600185015f5260205f20601f840160051c81016020851061055f575b90849392915b601f830160051c820181106105515750506101c8565b5f815585945060010161053b565b5080610535565b634e487b7160e01b5f52601160045260245ffd5b60405162461bcd60e51b81526020600482015260166024820152754241445f4d41524b45545f50524f424142494c49545960501b60448201528490fd5b60405162461bcd60e51b81526020600482015260156024820152744241445f4147454e545f50524f424142494c49545960581b60448201528490fd5b60405162461bcd60e51b81526020600482015260136024820152724241445f494e544547524954595f53434f524560681b60448201528490fd5b60405162461bcd60e51b815260206004820152600e60248201526d1051d1539517d49154555254915160921b60448201528490fd5b5f80fd5b346106625760208060031936011261066257600435610683610bd9565b50805f526001825261069d600a60405f2001541515610d34565b5f526001815260405f2090600a604051926106b784610b3c565b805484526106c760018201610c86565b83850152600281015460408501526003810154606085015260048101546080850152600581015461ffff9081811660a0870152818160101c1660c0870152841c1660e08501526006810154610100850152600781015461012085015261072f60088201610c86565b61014085015261074a60ff6009830154166101608601610d28565b0154610180830152610766604051928284938452830190610a8a565b0390f35b346106625760403660031901126106625760043560243560058110156106625760207f05793ae55a91f2e4613bfd41e271bf4378995073bfbe4cba18bede561586d39491835f52600182526107c7600a60405f2001541515610d34565b835f52600182526107de81600960405f2001610d74565b6107eb6040518092610a7d565ba2005b3461066257602090816003193601126106625760043567ffffffffffffffff81116106625761082461082b913690600401610a11565b3691610b7b565b8281519101205f526002906002835260405f20916040518084868296549384815201905f52865f20925f5b888282106109fb5750505061086d92500384610b59565b82519161089261087c84610bc1565b9361088a6040519586610b59565b808552610bc1565b601f1901855f5b8281106109e5575050505f5b845181101561098857806108bb60019287610c3a565b515f5281808852600a60405f206108e3604051936108d885610b3c565b825485528201610c86565b8a8401528681015460408401526003810154606084015260048101546080840152600581015461ffff9081811660a0860152818160101c1660c08601528b1c16868401526006810154610100840152600781015461012084015261094960088201610c86565b61014084015261096460ff6009830154166101608501610d28565b01546101808201526109768287610c3a565b526109818186610c3a565b50016108a5565b6040805187815285518189018190525f92600582901b8301810191888b01918b9085015b8287106109b95785850386f35b9091929382806109d5600193603f198a82030186528851610a8a565b96019201960195929190926109ac565b6109ed610bd9565b828288010152018690610899565b8554845260019586019589955093019201610856565b9181601f840112156106625782359167ffffffffffffffff8311610662576020838186019501011161066257565b91908251928382525f5b848110610a69575050825f602080949584010152601f8019910116010190565b602081830181015184830182015201610a49565b9060058210156103c35752565b90610b1b610aac6101a084518452602085015190806020860152840190610a3f565b60408401516040840152606084015160608401526080840151608084015260a084015161ffff80911660a08501528060c08601511660c085015260e08501511660e084015261010080850151908401526101208085015190840152610140808501519084830390850152610a3f565b91610b2f6101608083015190840190610a7d565b6101808091015191015290565b6101a0810190811067ffffffffffffffff8211176103af57604052565b90601f8019910116810190811067ffffffffffffffff8211176103af57604052565b92919267ffffffffffffffff82116103af5760405191610ba5601f8201601f191660200184610b59565b829481845281830111610662578281602093845f960137010152565b67ffffffffffffffff81116103af5760051b60200190565b60405190610be682610b3c565b5f61018083828152606060208201528260408201528260608201528260808201528260a08201528260c08201528260e082015282610100820152826101208201526060610140820152826101608201520152565b805182101561039b5760209160051b010190565b90600182811c92168015610c7c575b6020831014610c6857565b634e487b7160e01b5f52602260045260245ffd5b91607f1691610c5d565b9060405191825f8254610c9881610c4e565b908184526020946001916001811690815f14610d065750600114610cc8575b505050610cc692500383610b59565b565b5f90815285812095935091905b818310610cee575050610cc693508201015f8080610cb7565b85548884018501529485019487945091830191610cd5565b92505050610cc694925060ff191682840152151560051b8201015f8080610cb7565b60058210156103c35752565b15610d3b57565b60405162461bcd60e51b8152602060048201526011602482015270149150d152541517d393d517d193d55391607a1b6044820152606490fd5b9060058110156103c35760ff80198354169116179055565b908060209392818452848401375f828201840152601f01601f191601019056fea2646970667358221220730e03ad649fb348983331764d964f4ac3c49a9acb1341b32d6251c75a5074b064736f6c63430008180033","opcodes":"PUSH1 0x80 DUP1 PUSH1 0x40 MSTORE CALLVALUE PUSH2 0x1A JUMPI PUSH1 0x1 PUSH0 SSTORE PUSH2 0xDE2 SWAP1 DUP2 PUSH2 0x1F DUP3 CODECOPY RETURN JUMPDEST PUSH0 DUP1 REVERT INVALID PUSH1 0x80 PUSH1 0x40 MSTORE PUSH1 0x4 CALLDATASIZE LT ISZERO PUSH2 0x11 JUMPI PUSH0 DUP1 REVERT JUMPDEST PUSH1 0xE0 PUSH0 CALLDATALOAD PUSH1 0xE0 SHR SWAP1 DUP2 PUSH4 0x31A294EE EQ PUSH2 0x7EE JUMPI POP DUP1 PUSH4 0x5F4D654C EQ PUSH2 0x76A JUMPI DUP1 PUSH4 0xB63E6AC3 EQ PUSH2 0x666 JUMPI PUSH4 0xDBFBC8E9 EQ PUSH2 0x49 JUMPI PUSH0 DUP1 REVERT JUMPDEST CALLVALUE PUSH2 0x662 JUMPI PUSH2 0x140 CALLDATASIZE PUSH1 0x3 NOT ADD SLT PUSH2 0x662 JUMPI PUSH1 0x4 CALLDATALOAD PUSH8 0xFFFFFFFFFFFFFFFF DUP2 GT PUSH2 0x662 JUMPI PUSH2 0x7B SWAP1 CALLDATASIZE SWAP1 PUSH1 0x4 ADD PUSH2 0xA11 JUMP JUMPDEST PUSH1 0x84 CALLDATALOAD SWAP2 PUSH1 0x64 PUSH2 0xFFFF DUP5 AND DUP5 SUB PUSH2 0x662 JUMPI PUSH1 0xA4 CALLDATALOAD SWAP1 PUSH2 0xFFFF DUP3 AND DUP3 SUB PUSH2 0x662 JUMPI PUSH1 0xC4 CALLDATALOAD SWAP4 PUSH2 0xFFFF DUP6 AND DUP6 SUB PUSH2 0x662 JUMPI PUSH2 0x124 CALLDATALOAD PUSH8 0xFFFFFFFFFFFFFFFF DUP2 GT PUSH2 0x662 JUMPI PUSH2 0xCB SWAP1 CALLDATASIZE SWAP1 PUSH1 0x4 ADD PUSH2 0xA11 JUMP JUMPDEST SWAP5 SWAP1 SWAP4 DUP3 ISZERO PUSH2 0x62D JUMPI DUP4 PUSH2 0xFFFF DUP10 AND GT PUSH2 0x5F3 JUMPI DUP4 PUSH2 0xFFFF DUP3 AND GT PUSH2 0x5B7 JUMPI DUP4 PUSH2 0xFFFF DUP9 AND GT PUSH2 0x57A JUMPI PUSH0 SLOAD SWAP7 PUSH0 NOT DUP9 EQ PUSH2 0x566 JUMPI PUSH2 0xFFFF SWAP1 PUSH1 0x1 DUP10 ADD PUSH0 SSTORE DUP2 PUSH1 0x40 MLOAD SWAP4 PUSH2 0x118 DUP6 PUSH2 0xB3C JUMP JUMPDEST DUP11 DUP6 MSTORE PUSH2 0x126 CALLDATASIZE DUP9 DUP9 PUSH2 0xB7B JUMP JUMPDEST PUSH1 0x20 DUP7 ADD MSTORE PUSH1 0x24 CALLDATALOAD PUSH1 0x40 DUP7 ADD MSTORE PUSH1 0x44 CALLDATALOAD PUSH1 0x60 DUP7 ADD MSTORE DUP8 CALLDATALOAD PUSH1 0x80 DUP7 ADD MSTORE DUP2 DUP13 AND PUSH1 0xA0 DUP7 ADD MSTORE AND PUSH1 0xC0 DUP5 ADD MSTORE AND PUSH1 0xE0 DUP3 ADD MSTORE PUSH1 0xE4 CALLDATALOAD PUSH2 0x100 DUP3 ADD MSTORE PUSH2 0x104 CALLDATALOAD PUSH2 0x120 DUP3 ADD MSTORE PUSH2 0x174 CALLDATASIZE DUP8 DUP8 PUSH2 0xB7B JUMP JUMPDEST PUSH2 0x140 DUP3 ADD MSTORE PUSH0 PUSH2 0x160 DUP3 ADD MSTORE TIMESTAMP PUSH2 0x180 DUP3 ADD MSTORE DUP7 PUSH0 MSTORE PUSH1 0x1 PUSH1 0x20 MSTORE PUSH1 0x40 PUSH0 KECCAK256 SWAP1 DUP1 MLOAD DUP3 SSTORE PUSH1 0x20 DUP2 ADD MLOAD DUP1 MLOAD SWAP1 PUSH8 0xFFFFFFFFFFFFFFFF DUP3 GT PUSH2 0x3AF JUMPI DUP2 SWAP1 PUSH2 0x1BF PUSH1 0x1 DUP7 ADD SLOAD PUSH2 0xC4E JUMP JUMPDEST PUSH1 0x1F DUP2 GT PUSH2 0x516 JUMPI JUMPDEST POP PUSH1 0x20 SWAP1 PUSH1 0x1F DUP4 GT PUSH1 0x1 EQ PUSH2 0x4A8 JUMPI PUSH0 SWAP3 PUSH2 0x49D JUMPI JUMPDEST POP POP DUP2 PUSH1 0x1 SHL SWAP2 PUSH0 NOT SWAP1 PUSH1 0x3 SHL SHR NOT AND OR PUSH1 0x1 DUP4 ADD SSTORE JUMPDEST PUSH1 0x40 DUP2 ADD MLOAD PUSH1 0x2 DUP4 ADD SSTORE PUSH1 0x60 DUP2 ADD MLOAD PUSH1 0x3 DUP4 ADD SSTORE PUSH1 0x80 DUP2 ADD MLOAD PUSH1 0x4 DUP4 ADD SSTORE PUSH1 0x5 DUP3 ADD PUSH2 0xFFFF PUSH1 0xA0 DUP4 ADD MLOAD AND DUP2 SLOAD SWAP1 PUSH4 0xFFFF0000 PUSH1 0xC0 DUP6 ADD MLOAD PUSH1 0x10 SHL AND SWAP1 PUSH6 0xFFFF00000000 PUSH1 0xE0 DUP7 ADD MLOAD PUSH1 0x20 SHL AND SWAP3 PUSH6 0xFFFFFFFFFFFF NOT AND OR OR OR SWAP1 SSTORE PUSH2 0x100 DUP2 ADD MLOAD PUSH1 0x6 DUP4 ADD SSTORE PUSH2 0x120 DUP2 ADD MLOAD PUSH1 0x7 DUP4 ADD SSTORE PUSH2 0x140 DUP2 ADD MLOAD DUP1 MLOAD SWAP1 PUSH8 0xFFFFFFFFFFFFFFFF DUP3 GT PUSH2 0x3AF JUMPI DUP2 SWAP1 PUSH2 0x28E PUSH1 0x8 DUP7 ADD SLOAD PUSH2 0xC4E JUMP JUMPDEST PUSH1 0x1F DUP2 GT PUSH2 0x44D JUMPI JUMPDEST POP PUSH1 0x20 SWAP1 PUSH1 0x1F DUP4 GT PUSH1 0x1 EQ PUSH2 0x3E2 JUMPI PUSH0 SWAP3 PUSH2 0x3D7 JUMPI JUMPDEST POP POP DUP2 PUSH1 0x1 SHL SWAP2 PUSH0 NOT SWAP1 PUSH1 0x3 SHL SHR NOT AND OR PUSH1 0x8 DUP4 ADD SSTORE JUMPDEST PUSH2 0x160 DUP2 ADD MLOAD PUSH1 0x5 DUP2 LT ISZERO PUSH2 0x3C3 JUMPI PUSH1 0xA SWAP2 PUSH2 0x2E6 PUSH2 0x180 SWAP3 PUSH1 0x9 DUP7 ADD PUSH2 0xD74 JUMP JUMPDEST ADD MLOAD SWAP2 ADD SSTORE PUSH2 0x2F6 CALLDATASIZE DUP4 DUP4 PUSH2 0xB7B JUMP JUMPDEST PUSH1 0x20 DUP2 MLOAD SWAP2 ADD KECCAK256 PUSH0 MSTORE PUSH1 0x2 PUSH1 0x20 MSTORE PUSH1 0x40 PUSH0 KECCAK256 SWAP2 DUP3 SLOAD PUSH9 0x10000000000000000 DUP2 LT ISZERO PUSH2 0x3AF JUMPI PUSH1 0x1 DUP2 ADD DUP1 DUP6 SSTORE DUP2 LT ISZERO PUSH2 0x39B JUMPI PUSH1 0x20 SWAP9 DUP9 SWAP6 DUP7 PUSH2 0x390 SWAP4 PUSH32 0x1030BDB9FC309AF7D6A0DD29C97534F946DA088D34A4FB695A855BD9123D379E SWAP8 PUSH0 MSTORE DUP13 PUSH0 KECCAK256 ADD SSTORE PUSH2 0xFFFF PUSH2 0x377 PUSH1 0x40 MLOAD SWAP7 DUP8 SWAP7 PUSH1 0x60 DUP9 MSTORE PUSH1 0x60 DUP9 ADD SWAP2 PUSH2 0xD8C JUMP JUMPDEST SWAP3 AND DUP12 DUP6 ADD MSTORE DUP4 DUP3 SUB PUSH1 0x40 DUP6 ADD MSTORE CALLDATALOAD SWAP8 PUSH1 0x24 CALLDATALOAD SWAP8 PUSH2 0xD8C JUMP JUMPDEST SUB SWAP1 LOG4 PUSH1 0x40 MLOAD SWAP1 DUP2 MSTORE RETURN JUMPDEST PUSH4 0x4E487B71 PUSH1 0xE0 SHL PUSH0 MSTORE PUSH1 0x32 PUSH1 0x4 MSTORE PUSH1 0x24 PUSH0 REVERT JUMPDEST PUSH4 0x4E487B71 PUSH1 0xE0 SHL PUSH0 MSTORE PUSH1 0x41 PUSH1 0x4 MSTORE PUSH1 0x24 PUSH0 REVERT JUMPDEST PUSH4 0x4E487B71 PUSH1 0xE0 SHL PUSH0 MSTORE PUSH1 0x21 PUSH1 0x4 MSTORE PUSH1 0x24 PUSH0 REVERT JUMPDEST ADD MLOAD SWAP1 POP PUSH0 DUP1 PUSH2 0x2AD JUMP JUMPDEST PUSH1 0x8 DUP7 ADD PUSH0 SWAP1 DUP2 MSTORE PUSH1 0x20 DUP2 KECCAK256 SWAP4 POP PUSH1 0x1F NOT DUP6 AND SWAP1 JUMPDEST DUP2 DUP2 LT PUSH2 0x435 JUMPI POP SWAP1 DUP5 PUSH1 0x1 SWAP6 SWAP5 SWAP4 SWAP3 LT PUSH2 0x41D JUMPI JUMPDEST POP POP POP DUP2 SHL ADD PUSH1 0x8 DUP4 ADD SSTORE PUSH2 0x2C4 JUMP JUMPDEST ADD MLOAD PUSH0 NOT PUSH1 0xF8 DUP5 PUSH1 0x3 SHL AND SHR NOT AND SWAP1 SSTORE PUSH0 DUP1 DUP1 PUSH2 0x40D JUMP JUMPDEST SWAP3 SWAP4 PUSH1 0x20 PUSH1 0x1 DUP2 SWAP3 DUP8 DUP7 ADD MLOAD DUP2 SSTORE ADD SWAP6 ADD SWAP4 ADD PUSH2 0x3F7 JUMP JUMPDEST SWAP1 SWAP2 POP PUSH1 0x8 DUP6 ADD PUSH0 MSTORE PUSH1 0x20 PUSH0 KECCAK256 PUSH1 0x1F DUP5 ADD PUSH1 0x5 SHR DUP2 ADD PUSH1 0x20 DUP6 LT PUSH2 0x496 JUMPI JUMPDEST SWAP1 DUP5 SWAP4 SWAP3 SWAP2 JUMPDEST PUSH1 0x1F DUP4 ADD PUSH1 0x5 SHR DUP3 ADD DUP2 LT PUSH2 0x488 JUMPI POP POP PUSH2 0x297 JUMP JUMPDEST PUSH0 DUP2 SSTORE DUP6 SWAP5 POP PUSH1 0x1 ADD PUSH2 0x472 JUMP JUMPDEST POP DUP1 PUSH2 0x46C JUMP JUMPDEST ADD MLOAD SWAP1 POP PUSH0 DUP1 PUSH2 0x1DE JUMP JUMPDEST SWAP3 POP PUSH1 0x1 DUP6 ADD PUSH0 MSTORE PUSH1 0x20 PUSH0 KECCAK256 SWAP1 PUSH0 SWAP4 JUMPDEST PUSH1 0x1F NOT DUP5 AND DUP6 LT PUSH2 0x4FB JUMPI PUSH1 0x1 SWAP5 POP DUP4 PUSH1 0x1F NOT DUP2 AND LT PUSH2 0x4E3 JUMPI JUMPDEST POP POP POP DUP2 SHL ADD PUSH1 0x1 DUP4 ADD SSTORE PUSH2 0x1F5 JUMP JUMPDEST ADD MLOAD PUSH0 NOT PUSH1 0xF8 DUP5 PUSH1 0x3 SHL AND SHR NOT AND SWAP1 SSTORE PUSH0 DUP1 DUP1 PUSH2 0x4D3 JUMP JUMPDEST DUP2 DUP2 ADD MLOAD DUP4 SSTORE PUSH1 0x20 SWAP5 DUP6 ADD SWAP5 PUSH1 0x1 SWAP1 SWAP4 ADD SWAP3 SWAP1 SWAP2 ADD SWAP1 PUSH2 0x4B8 JUMP JUMPDEST SWAP1 SWAP2 POP PUSH1 0x1 DUP6 ADD PUSH0 MSTORE PUSH1 0x20 PUSH0 KECCAK256 PUSH1 0x1F DUP5 ADD PUSH1 0x5 SHR DUP2 ADD PUSH1 0x20 DUP6 LT PUSH2 0x55F JUMPI JUMPDEST SWAP1 DUP5 SWAP4 SWAP3 SWAP2 JUMPDEST PUSH1 0x1F DUP4 ADD PUSH1 0x5 SHR DUP3 ADD DUP2 LT PUSH2 0x551 JUMPI POP POP PUSH2 0x1C8 JUMP JUMPDEST PUSH0 DUP2 SSTORE DUP6 SWAP5 POP PUSH1 0x1 ADD PUSH2 0x53B JUMP JUMPDEST POP DUP1 PUSH2 0x535 JUMP JUMPDEST PUSH4 0x4E487B71 PUSH1 0xE0 SHL PUSH0 MSTORE PUSH1 0x11 PUSH1 0x4 MSTORE PUSH1 0x24 PUSH0 REVERT JUMPDEST PUSH1 0x40 MLOAD PUSH3 0x461BCD PUSH1 0xE5 SHL DUP2 MSTORE PUSH1 0x20 PUSH1 0x4 DUP3 ADD MSTORE PUSH1 0x16 PUSH1 0x24 DUP3 ADD MSTORE PUSH22 0x4241445F4D41524B45545F50524F424142494C495459 PUSH1 0x50 SHL PUSH1 0x44 DUP3 ADD MSTORE DUP5 SWAP1 REVERT JUMPDEST PUSH1 0x40 MLOAD PUSH3 0x461BCD PUSH1 0xE5 SHL DUP2 MSTORE PUSH1 0x20 PUSH1 0x4 DUP3 ADD MSTORE PUSH1 0x15 PUSH1 0x24 DUP3 ADD MSTORE PUSH21 0x4241445F4147454E545F50524F424142494C495459 PUSH1 0x58 SHL PUSH1 0x44 DUP3 ADD MSTORE DUP5 SWAP1 REVERT JUMPDEST PUSH1 0x40 MLOAD PUSH3 0x461BCD PUSH1 0xE5 SHL DUP2 MSTORE PUSH1 0x20 PUSH1 0x4 DUP3 ADD MSTORE PUSH1 0x13 PUSH1 0x24 DUP3 ADD MSTORE PUSH19 0x4241445F494E544547524954595F53434F5245 PUSH1 0x68 SHL PUSH1 0x44 DUP3 ADD MSTORE DUP5 SWAP1 REVERT JUMPDEST PUSH1 0x40 MLOAD PUSH3 0x461BCD PUSH1 0xE5 SHL DUP2 MSTORE PUSH1 0x20 PUSH1 0x4 DUP3 ADD MSTORE PUSH1 0xE PUSH1 0x24 DUP3 ADD MSTORE PUSH14 0x1051D1539517D491545552549151 PUSH1 0x92 SHL PUSH1 0x44 DUP3 ADD MSTORE DUP5 SWAP1 REVERT JUMPDEST PUSH0 DUP1 REVERT JUMPDEST CALLVALUE PUSH2 0x662 JUMPI PUSH1 0x20 DUP1 PUSH1 0x3 NOT CALLDATASIZE ADD SLT PUSH2 0x662 JUMPI PUSH1 0x4 CALLDATALOAD PUSH2 0x683 PUSH2 0xBD9 JUMP JUMPDEST POP DUP1 PUSH0 MSTORE PUSH1 0x1 DUP3 MSTORE PUSH2 0x69D PUSH1 0xA PUSH1 0x40 PUSH0 KECCAK256 ADD SLOAD ISZERO ISZERO PUSH2 0xD34 JUMP JUMPDEST PUSH0 MSTORE PUSH1 0x1 DUP2 MSTORE PUSH1 0x40 PUSH0 KECCAK256 SWAP1 PUSH1 0xA PUSH1 0x40 MLOAD SWAP3 PUSH2 0x6B7 DUP5 PUSH2 0xB3C JUMP JUMPDEST DUP1 SLOAD DUP5 MSTORE PUSH2 0x6C7 PUSH1 0x1 DUP3 ADD PUSH2 0xC86 JUMP JUMPDEST DUP4 DUP6 ADD MSTORE PUSH1 0x2 DUP2 ADD SLOAD PUSH1 0x40 DUP6 ADD MSTORE PUSH1 0x3 DUP2 ADD SLOAD PUSH1 0x60 DUP6 ADD MSTORE PUSH1 0x4 DUP2 ADD SLOAD PUSH1 0x80 DUP6 ADD MSTORE PUSH1 0x5 DUP2 ADD SLOAD PUSH2 0xFFFF SWAP1 DUP2 DUP2 AND PUSH1 0xA0 DUP8 ADD MSTORE DUP2 DUP2 PUSH1 0x10 SHR AND PUSH1 0xC0 DUP8 ADD MSTORE DUP5 SHR AND PUSH1 0xE0 DUP6 ADD MSTORE PUSH1 0x6 DUP2 ADD SLOAD PUSH2 0x100 DUP6 ADD MSTORE PUSH1 0x7 DUP2 ADD SLOAD PUSH2 0x120 DUP6 ADD MSTORE PUSH2 0x72F PUSH1 0x8 DUP3 ADD PUSH2 0xC86 JUMP JUMPDEST PUSH2 0x140 DUP6 ADD MSTORE PUSH2 0x74A PUSH1 0xFF PUSH1 0x9 DUP4 ADD SLOAD AND PUSH2 0x160 DUP7 ADD PUSH2 0xD28 JUMP JUMPDEST ADD SLOAD PUSH2 0x180 DUP4 ADD MSTORE PUSH2 0x766 PUSH1 0x40 MLOAD SWAP3 DUP3 DUP5 SWAP4 DUP5 MSTORE DUP4 ADD SWAP1 PUSH2 0xA8A JUMP JUMPDEST SUB SWAP1 RETURN JUMPDEST CALLVALUE PUSH2 0x662 JUMPI PUSH1 0x40 CALLDATASIZE PUSH1 0x3 NOT ADD SLT PUSH2 0x662 JUMPI PUSH1 0x4 CALLDATALOAD PUSH1 0x24 CALLDATALOAD PUSH1 0x5 DUP2 LT ISZERO PUSH2 0x662 JUMPI PUSH1 0x20 PUSH32 0x5793AE55A91F2E4613BFD41E271BF4378995073BFBE4CBA18BEDE561586D394 SWAP2 DUP4 PUSH0 MSTORE PUSH1 0x1 DUP3 MSTORE PUSH2 0x7C7 PUSH1 0xA PUSH1 0x40 PUSH0 KECCAK256 ADD SLOAD ISZERO ISZERO PUSH2 0xD34 JUMP JUMPDEST DUP4 PUSH0 MSTORE PUSH1 0x1 DUP3 MSTORE PUSH2 0x7DE DUP2 PUSH1 0x9 PUSH1 0x40 PUSH0 KECCAK256 ADD PUSH2 0xD74 JUMP JUMPDEST PUSH2 0x7EB PUSH1 0x40 MLOAD DUP1 SWAP3 PUSH2 0xA7D JUMP JUMPDEST LOG2 STOP JUMPDEST CALLVALUE PUSH2 0x662 JUMPI PUSH1 0x20 SWAP1 DUP2 PUSH1 0x3 NOT CALLDATASIZE ADD SLT PUSH2 0x662 JUMPI PUSH1 0x4 CALLDATALOAD PUSH8 0xFFFFFFFFFFFFFFFF DUP2 GT PUSH2 0x662 JUMPI PUSH2 0x824 PUSH2 0x82B SWAP2 CALLDATASIZE SWAP1 PUSH1 0x4 ADD PUSH2 0xA11 JUMP JUMPDEST CALLDATASIZE SWAP2 PUSH2 0xB7B JUMP JUMPDEST DUP3 DUP2 MLOAD SWAP2 ADD KECCAK256 PUSH0 MSTORE PUSH1 0x2 SWAP1 PUSH1 0x2 DUP4 MSTORE PUSH1 0x40 PUSH0 KECCAK256 SWAP2 PUSH1 0x40 MLOAD DUP1 DUP5 DUP7 DUP3 SWAP7 SLOAD SWAP4 DUP5 DUP2 MSTORE ADD SWAP1 PUSH0 MSTORE DUP7 PUSH0 KECCAK256 SWAP3 PUSH0 JUMPDEST DUP9 DUP3 DUP3 LT PUSH2 0x9FB JUMPI POP POP POP PUSH2 0x86D SWAP3 POP SUB DUP5 PUSH2 0xB59 JUMP JUMPDEST DUP3 MLOAD SWAP2 PUSH2 0x892 PUSH2 0x87C DUP5 PUSH2 0xBC1 JUMP JUMPDEST SWAP4 PUSH2 0x88A PUSH1 0x40 MLOAD SWAP6 DUP7 PUSH2 0xB59 JUMP JUMPDEST DUP1 DUP6 MSTORE PUSH2 0xBC1 JUMP JUMPDEST PUSH1 0x1F NOT ADD DUP6 PUSH0 JUMPDEST DUP3 DUP2 LT PUSH2 0x9E5 JUMPI POP POP POP PUSH0 JUMPDEST DUP5 MLOAD DUP2 LT ISZERO PUSH2 0x988 JUMPI DUP1 PUSH2 0x8BB PUSH1 0x1 SWAP3 DUP8 PUSH2 0xC3A JUMP JUMPDEST MLOAD PUSH0 MSTORE DUP2 DUP1 DUP9 MSTORE PUSH1 0xA PUSH1 0x40 PUSH0 KECCAK256 PUSH2 0x8E3 PUSH1 0x40 MLOAD SWAP4 PUSH2 0x8D8 DUP6 PUSH2 0xB3C JUMP JUMPDEST DUP3 SLOAD DUP6 MSTORE DUP3 ADD PUSH2 0xC86 JUMP JUMPDEST DUP11 DUP5 ADD MSTORE DUP7 DUP2 ADD SLOAD PUSH1 0x40 DUP5 ADD MSTORE PUSH1 0x3 DUP2 ADD SLOAD PUSH1 0x60 DUP5 ADD MSTORE PUSH1 0x4 DUP2 ADD SLOAD PUSH1 0x80 DUP5 ADD MSTORE PUSH1 0x5 DUP2 ADD SLOAD PUSH2 0xFFFF SWAP1 DUP2 DUP2 AND PUSH1 0xA0 DUP7 ADD MSTORE DUP2 DUP2 PUSH1 0x10 SHR AND PUSH1 0xC0 DUP7 ADD MSTORE DUP12 SHR AND DUP7 DUP5 ADD MSTORE PUSH1 0x6 DUP2 ADD SLOAD PUSH2 0x100 DUP5 ADD MSTORE PUSH1 0x7 DUP2 ADD SLOAD PUSH2 0x120 DUP5 ADD MSTORE PUSH2 0x949 PUSH1 0x8 DUP3 ADD PUSH2 0xC86 JUMP JUMPDEST PUSH2 0x140 DUP5 ADD MSTORE PUSH2 0x964 PUSH1 0xFF PUSH1 0x9 DUP4 ADD SLOAD AND PUSH2 0x160 DUP6 ADD PUSH2 0xD28 JUMP JUMPDEST ADD SLOAD PUSH2 0x180 DUP3 ADD MSTORE PUSH2 0x976 DUP3 DUP8 PUSH2 0xC3A JUMP JUMPDEST MSTORE PUSH2 0x981 DUP2 DUP7 PUSH2 0xC3A JUMP JUMPDEST POP ADD PUSH2 0x8A5 JUMP JUMPDEST PUSH1 0x40 DUP1 MLOAD DUP8 DUP2 MSTORE DUP6 MLOAD DUP2 DUP10 ADD DUP2 SWAP1 MSTORE PUSH0 SWAP3 PUSH1 0x5 DUP3 SWAP1 SHL DUP4 ADD DUP2 ADD SWAP2 DUP9 DUP12 ADD SWAP2 DUP12 SWAP1 DUP6 ADD JUMPDEST DUP3 DUP8 LT PUSH2 0x9B9 JUMPI DUP6 DUP6 SUB DUP7 RETURN JUMPDEST SWAP1 SWAP2 SWAP3 SWAP4 DUP3 DUP1 PUSH2 0x9D5 PUSH1 0x1 SWAP4 PUSH1 0x3F NOT DUP11 DUP3 SUB ADD DUP7 MSTORE DUP9 MLOAD PUSH2 0xA8A JUMP JUMPDEST SWAP7 ADD SWAP3 ADD SWAP7 ADD SWAP6 SWAP3 SWAP2 SWAP1 SWAP3 PUSH2 0x9AC JUMP JUMPDEST PUSH2 0x9ED PUSH2 0xBD9 JUMP JUMPDEST DUP3 DUP3 DUP9 ADD ADD MSTORE ADD DUP7 SWAP1 PUSH2 0x899 JUMP JUMPDEST DUP6 SLOAD DUP5 MSTORE PUSH1 0x1 SWAP6 DUP7 ADD SWAP6 DUP10 SWAP6 POP SWAP4 ADD SWAP3 ADD PUSH2 0x856 JUMP JUMPDEST SWAP2 DUP2 PUSH1 0x1F DUP5 ADD SLT ISZERO PUSH2 0x662 JUMPI DUP3 CALLDATALOAD SWAP2 PUSH8 0xFFFFFFFFFFFFFFFF DUP4 GT PUSH2 0x662 JUMPI PUSH1 0x20 DUP4 DUP2 DUP7 ADD SWAP6 ADD ADD GT PUSH2 0x662 JUMPI JUMP JUMPDEST SWAP2 SWAP1 DUP3 MLOAD SWAP3 DUP4 DUP3 MSTORE PUSH0 JUMPDEST DUP5 DUP2 LT PUSH2 0xA69 JUMPI POP POP DUP3 PUSH0 PUSH1 0x20 DUP1 SWAP5 SWAP6 DUP5 ADD ADD MSTORE PUSH1 0x1F DUP1 NOT SWAP2 ADD AND ADD ADD SWAP1 JUMP JUMPDEST PUSH1 0x20 DUP2 DUP4 ADD DUP2 ADD MLOAD DUP5 DUP4 ADD DUP3 ADD MSTORE ADD PUSH2 0xA49 JUMP JUMPDEST SWAP1 PUSH1 0x5 DUP3 LT ISZERO PUSH2 0x3C3 JUMPI MSTORE JUMP JUMPDEST SWAP1 PUSH2 0xB1B PUSH2 0xAAC PUSH2 0x1A0 DUP5 MLOAD DUP5 MSTORE PUSH1 0x20 DUP6 ADD MLOAD SWAP1 DUP1 PUSH1 0x20 DUP7 ADD MSTORE DUP5 ADD SWAP1 PUSH2 0xA3F JUMP JUMPDEST PUSH1 0x40 DUP5 ADD MLOAD PUSH1 0x40 DUP5 ADD MSTORE PUSH1 0x60 DUP5 ADD MLOAD PUSH1 0x60 DUP5 ADD MSTORE PUSH1 0x80 DUP5 ADD MLOAD PUSH1 0x80 DUP5 ADD MSTORE PUSH1 0xA0 DUP5 ADD MLOAD PUSH2 0xFFFF DUP1 SWAP2 AND PUSH1 0xA0 DUP6 ADD MSTORE DUP1 PUSH1 0xC0 DUP7 ADD MLOAD AND PUSH1 0xC0 DUP6 ADD MSTORE PUSH1 0xE0 DUP6 ADD MLOAD AND PUSH1 0xE0 DUP5 ADD MSTORE PUSH2 0x100 DUP1 DUP6 ADD MLOAD SWAP1 DUP5 ADD MSTORE PUSH2 0x120 DUP1 DUP6 ADD MLOAD SWAP1 DUP5 ADD MSTORE PUSH2 0x140 DUP1 DUP6 ADD MLOAD SWAP1 DUP5 DUP4 SUB SWAP1 DUP6 ADD MSTORE PUSH2 0xA3F JUMP JUMPDEST SWAP2 PUSH2 0xB2F PUSH2 0x160 DUP1 DUP4 ADD MLOAD SWAP1 DUP5 ADD SWAP1 PUSH2 0xA7D JUMP JUMPDEST PUSH2 0x180 DUP1 SWAP2 ADD MLOAD SWAP2 ADD MSTORE SWAP1 JUMP JUMPDEST PUSH2 0x1A0 DUP2 ADD SWAP1 DUP2 LT PUSH8 0xFFFFFFFFFFFFFFFF DUP3 GT OR PUSH2 0x3AF JUMPI PUSH1 0x40 MSTORE JUMP JUMPDEST SWAP1 PUSH1 0x1F DUP1 NOT SWAP2 ADD AND DUP2 ADD SWAP1 DUP2 LT PUSH8 0xFFFFFFFFFFFFFFFF DUP3 GT OR PUSH2 0x3AF JUMPI PUSH1 0x40 MSTORE JUMP JUMPDEST SWAP3 SWAP2 SWAP3 PUSH8 0xFFFFFFFFFFFFFFFF DUP3 GT PUSH2 0x3AF JUMPI PUSH1 0x40 MLOAD SWAP2 PUSH2 0xBA5 PUSH1 0x1F DUP3 ADD PUSH1 0x1F NOT AND PUSH1 0x20 ADD DUP5 PUSH2 0xB59 JUMP JUMPDEST DUP3 SWAP5 DUP2 DUP5 MSTORE DUP2 DUP4 ADD GT PUSH2 0x662 JUMPI DUP3 DUP2 PUSH1 0x20 SWAP4 DUP5 PUSH0 SWAP7 ADD CALLDATACOPY ADD ADD MSTORE JUMP JUMPDEST PUSH8 0xFFFFFFFFFFFFFFFF DUP2 GT PUSH2 0x3AF JUMPI PUSH1 0x5 SHL PUSH1 0x20 ADD SWAP1 JUMP JUMPDEST PUSH1 0x40 MLOAD SWAP1 PUSH2 0xBE6 DUP3 PUSH2 0xB3C JUMP JUMPDEST PUSH0 PUSH2 0x180 DUP4 DUP3 DUP2 MSTORE PUSH1 0x60 PUSH1 0x20 DUP3 ADD MSTORE DUP3 PUSH1 0x40 DUP3 ADD MSTORE DUP3 PUSH1 0x60 DUP3 ADD MSTORE DUP3 PUSH1 0x80 DUP3 ADD MSTORE DUP3 PUSH1 0xA0 DUP3 ADD MSTORE DUP3 PUSH1 0xC0 DUP3 ADD MSTORE DUP3 PUSH1 0xE0 DUP3 ADD MSTORE DUP3 PUSH2 0x100 DUP3 ADD MSTORE DUP3 PUSH2 0x120 DUP3 ADD MSTORE PUSH1 0x60 PUSH2 0x140 DUP3 ADD MSTORE DUP3 PUSH2 0x160 DUP3 ADD MSTORE ADD MSTORE JUMP JUMPDEST DUP1 MLOAD DUP3 LT ISZERO PUSH2 0x39B JUMPI PUSH1 0x20 SWAP2 PUSH1 0x5 SHL ADD ADD SWAP1 JUMP JUMPDEST SWAP1 PUSH1 0x1 DUP3 DUP2 SHR SWAP3 AND DUP1 ISZERO PUSH2 0xC7C JUMPI JUMPDEST PUSH1 0x20 DUP4 LT EQ PUSH2 0xC68 JUMPI JUMP JUMPDEST PUSH4 0x4E487B71 PUSH1 0xE0 SHL PUSH0 MSTORE PUSH1 0x22 PUSH1 0x4 MSTORE PUSH1 0x24 PUSH0 REVERT JUMPDEST SWAP2 PUSH1 0x7F AND SWAP2 PUSH2 0xC5D JUMP JUMPDEST SWAP1 PUSH1 0x40 MLOAD SWAP2 DUP3 PUSH0 DUP3 SLOAD PUSH2 0xC98 DUP2 PUSH2 0xC4E JUMP JUMPDEST SWAP1 DUP2 DUP5 MSTORE PUSH1 0x20 SWAP5 PUSH1 0x1 SWAP2 PUSH1 0x1 DUP2 AND SWAP1 DUP2 PUSH0 EQ PUSH2 0xD06 JUMPI POP PUSH1 0x1 EQ PUSH2 0xCC8 JUMPI JUMPDEST POP POP POP PUSH2 0xCC6 SWAP3 POP SUB DUP4 PUSH2 0xB59 JUMP JUMPDEST JUMP JUMPDEST PUSH0 SWAP1 DUP2 MSTORE DUP6 DUP2 KECCAK256 SWAP6 SWAP4 POP SWAP2 SWAP1 JUMPDEST DUP2 DUP4 LT PUSH2 0xCEE JUMPI POP POP PUSH2 0xCC6 SWAP4 POP DUP3 ADD ADD PUSH0 DUP1 DUP1 PUSH2 0xCB7 JUMP JUMPDEST DUP6 SLOAD DUP9 DUP5 ADD DUP6 ADD MSTORE SWAP5 DUP6 ADD SWAP5 DUP8 SWAP5 POP SWAP2 DUP4 ADD SWAP2 PUSH2 0xCD5 JUMP JUMPDEST SWAP3 POP POP POP PUSH2 0xCC6 SWAP5 SWAP3 POP PUSH1 0xFF NOT AND DUP3 DUP5 ADD MSTORE ISZERO ISZERO PUSH1 0x5 SHL DUP3 ADD ADD PUSH0 DUP1 DUP1 PUSH2 0xCB7 JUMP JUMPDEST PUSH1 0x5 DUP3 LT ISZERO PUSH2 0x3C3 JUMPI MSTORE JUMP JUMPDEST ISZERO PUSH2 0xD3B JUMPI JUMP JUMPDEST PUSH1 0x40 MLOAD PUSH3 0x461BCD PUSH1 0xE5 SHL DUP2 MSTORE PUSH1 0x20 PUSH1 0x4 DUP3 ADD MSTORE PUSH1 0x11 PUSH1 0x24 DUP3 ADD MSTORE PUSH17 0x149150D152541517D393D517D193D55391 PUSH1 0x7A SHL PUSH1 0x44 DUP3 ADD MSTORE PUSH1 0x64 SWAP1 REVERT JUMPDEST SWAP1 PUSH1 0x5 DUP2 LT ISZERO PUSH2 0x3C3 JUMPI PUSH1 0xFF DUP1 NOT DUP4 SLOAD AND SWAP2 AND OR SWAP1 SSTORE JUMP JUMPDEST SWAP1 DUP1 PUSH1 0x20 SWAP4 SWAP3 DUP2 DUP5 MSTORE DUP5 DUP5 ADD CALLDATACOPY PUSH0 DUP3 DUP3 ADD DUP5 ADD MSTORE PUSH1 0x1F ADD PUSH1 0x1F NOT AND ADD ADD SWAP1 JUMP INVALID LOG2 PUSH5 0x6970667358 0x22 SLT KECCAK256 PUSH20 0xE03AD649FB348983331764D964F4AC3C49A9ACB SGT COINBASE 0xB3 0x2D PUSH3 0x51C75A POP PUSH21 0xB064736F6C63430008180033000000000000000000 "},"methodIdentifiers":{"getReceipt(uint256)":"b63e6ac3","getReceiptsByAgent(string)":"31a294ee","updateLifecycleState(uint256,uint8)":"5f4d654c","writeReceipt(string,uint256,bytes32,bytes32,uint16,uint16,uint16,int256,uint256,string)":"dbfbc8e9"}}}}}