{"project/contracts/MarketRegistry.sol":{"MarketRegistry":{"abi":[{"anonymous":false,"inputs":[{"indexed":true,"internalType":"uint256","name":"marketId","type":"uint256"},{"indexed":false,"internalType":"string","name":"externalMarketId","type":"string"},{"indexed":false,"internalType":"string","name":"platform","type":"string"},{"indexed":false,"internalType":"string","name":"question","type":"string"},{"indexed":false,"internalType":"string","name":"category","type":"string"},{"indexed":false,"internalType":"string","name":"resolutionSource","type":"string"},{"indexed":false,"internalType":"uint256","name":"deadline","type":"uint256"},{"indexed":false,"internalType":"uint256","name":"liquidityHint","type":"uint256"},{"indexed":false,"internalType":"uint16","name":"impliedProbability","type":"uint16"},{"indexed":false,"internalType":"string","name":"marketType","type":"string"},{"indexed":false,"internalType":"string","name":"marketUrl","type":"string"},{"indexed":true,"internalType":"bytes32","name":"metadataHash","type":"bytes32"},{"indexed":true,"internalType":"address","name":"creator","type":"address"}],"name":"ExternalMarketImported","type":"event"},{"anonymous":false,"inputs":[{"indexed":true,"internalType":"uint256","name":"marketId","type":"uint256"},{"indexed":false,"internalType":"string","name":"question","type":"string"},{"indexed":false,"internalType":"string","name":"category","type":"string"},{"indexed":false,"internalType":"string","name":"resolutionSource","type":"string"},{"indexed":false,"internalType":"uint256","name":"deadline","type":"uint256"},{"indexed":false,"internalType":"uint256","name":"liquidityHint","type":"uint256"},{"indexed":false,"internalType":"string","name":"marketType","type":"string"},{"indexed":true,"internalType":"address","name":"creator","type":"address"}],"name":"MarketCreated","type":"event"},{"anonymous":false,"inputs":[{"indexed":true,"internalType":"uint256","name":"marketId","type":"uint256"},{"indexed":false,"internalType":"enum MarketRegistry.MarketStatus","name":"status","type":"uint8"}],"name":"MarketStatusUpdated","type":"event"},{"inputs":[{"internalType":"string","name":"question","type":"string"},{"internalType":"string","name":"category","type":"string"},{"internalType":"string","name":"resolutionSource","type":"string"},{"internalType":"uint256","name":"deadline","type":"uint256"},{"internalType":"uint256","name":"liquidityHint","type":"uint256"},{"internalType":"string","name":"marketType","type":"string"}],"name":"createMarket","outputs":[{"internalType":"uint256","name":"marketId","type":"uint256"}],"stateMutability":"nonpayable","type":"function"},{"inputs":[{"internalType":"uint256","name":"marketId","type":"uint256"}],"name":"getMarket","outputs":[{"components":[{"internalType":"uint256","name":"marketId","type":"uint256"},{"internalType":"string","name":"externalMarketId","type":"string"},{"internalType":"string","name":"platform","type":"string"},{"internalType":"string","name":"question","type":"string"},{"internalType":"string","name":"category","type":"string"},{"internalType":"string","name":"resolutionSource","type":"string"},{"internalType":"uint256","name":"deadline","type":"uint256"},{"internalType":"uint256","name":"createdAt","type":"uint256"},{"internalType":"enum MarketRegistry.MarketStatus","name":"status","type":"uint8"},{"internalType":"address","name":"creator","type":"address"},{"internalType":"uint256","name":"liquidityHint","type":"uint256"},{"internalType":"uint16","name":"impliedProbability","type":"uint16"},{"internalType":"string","name":"marketType","type":"string"},{"internalType":"string","name":"marketUrl","type":"string"},{"internalType":"bytes32","name":"metadataHash","type":"bytes32"}],"internalType":"struct MarketRegistry.Market","name":"","type":"tuple"}],"stateMutability":"view","type":"function"},{"inputs":[],"name":"getMarkets","outputs":[{"components":[{"internalType":"uint256","name":"marketId","type":"uint256"},{"internalType":"string","name":"externalMarketId","type":"string"},{"internalType":"string","name":"platform","type":"string"},{"internalType":"string","name":"question","type":"string"},{"internalType":"string","name":"category","type":"string"},{"internalType":"string","name":"resolutionSource","type":"string"},{"internalType":"uint256","name":"deadline","type":"uint256"},{"internalType":"uint256","name":"createdAt","type":"uint256"},{"internalType":"enum MarketRegistry.MarketStatus","name":"status","type":"uint8"},{"internalType":"address","name":"creator","type":"address"},{"internalType":"uint256","name":"liquidityHint","type":"uint256"},{"internalType":"uint16","name":"impliedProbability","type":"uint16"},{"internalType":"string","name":"marketType","type":"string"},{"internalType":"string","name":"marketUrl","type":"string"},{"internalType":"bytes32","name":"metadataHash","type":"bytes32"}],"internalType":"struct MarketRegistry.Market[]","name":"results","type":"tuple[]"}],"stateMutability":"view","type":"function"},{"inputs":[{"internalType":"string","name":"externalMarketId","type":"string"},{"internalType":"string","name":"platform","type":"string"},{"internalType":"string","name":"question","type":"string"},{"internalType":"string","name":"category","type":"string"},{"internalType":"string","name":"resolutionSource","type":"string"},{"internalType":"uint256","name":"deadline","type":"uint256"},{"internalType":"uint256","name":"liquidityHint","type":"uint256"},{"internalType":"uint16","name":"impliedProbability","type":"uint16"},{"internalType":"string","name":"marketType","type":"string"},{"internalType":"string","name":"marketUrl","type":"string"},{"internalType":"bytes32","name":"metadataHash","type":"bytes32"}],"name":"importExternalMarket","outputs":[{"internalType":"uint256","name":"marketId","type":"uint256"}],"stateMutability":"nonpayable","type":"function"},{"inputs":[{"internalType":"uint256","name":"marketId","type":"uint256"},{"internalType":"enum MarketRegistry.MarketStatus","name":"status","type":"uint8"}],"name":"updateMarketStatus","outputs":[],"stateMutability":"nonpayable","type":"function"}],"evm":{"bytecode":{"linkReferences":{},"object":"6080806040523461001a5760015f5561231f908161001f8239f35b5f80fdfe6102006040526004361015610012575f80fd5b5f3560e01c806348d0eca214611d74578063b0b6585214610f6a578063eb44fdd314610e2a578063ec2c901614610c365763ef688d3714610051575f80fd5b34610c325760c0366003190112610c32576004356001600160401b038111610c3257610081903690600401611e33565b906024356001600160401b038111610c32576100a1903690600401611e33565b916044356001600160401b038111610c32576100c1903690600401611e33565b9060a4356001600160401b038111610c32576100e1903690600401611e33565b959085856101198a61010b8b866040519586948c8c8c602089019b8c94608435966064359661228c565b03601f19810183528261203f565b5190209660405161012981612024565b5f8152604051988960408101106001600160401b0360408c0111176105d95760408a01604052600b8a526a105c98c815195cdd1b995d60aa1b60208b0152610172368c8a612060565b61017d36878c612060565b610188368a8a612060565b610193368789612060565b91604051936101a185612024565b5f8552805115610bf957825115610bc257426064351115610b8a575f549e8f5f1914610b76578f97600189015f55604051986101dc8a612008565b8952602089015260408801526060870152608086015260a085015260643560c08501524260e08501525f610100850152336101208501526084356101408501525f6101608501526101808401526101a08301526101c0820152885f52600260205260405f20908051825560208101518051906001600160401b0382116105d957819061026b6001860154612132565b601f8111610b26575b50602090601f8311600114610ab8575f92610aad575b50508160011b915f199060031b1c19161760018301555b60408101518051906001600160401b0382116105d95781906102c66002860154612132565b601f8111610a5d575b50602090601f83116001146109ef575f926109e4575b50508160011b915f199060031b1c19161760028301555b60608101518051906001600160401b0382116105d95781906103216003860154612132565b601f8111610994575b50602090601f8311600114610926575f9261091b575b50508160011b915f199060031b1c19161760038301555b60808101518051906001600160401b0382116105d957819061037c6004860154612132565b601f81116108cb575b50602090601f831160011461085d575f92610852575b50508160011b915f199060031b1c19161760048301555b60a08101518051906001600160401b0382116105d95781906103d76005860154612132565b601f8111610802575b50602090601f8311600114610794575f92610789575b50508160011b915f199060031b1c19161760058301555b60c0810151600683015560e081015160078301556008820161010082015160048110156107755761043e9082611ff0565b6101208201518154610100600160a81b03191660089190911b610100600160a81b03161790556101408101516009830155610160810151600a8301805461ffff191661ffff929092169190911790556101808101518051906001600160401b0382116105d95781906104b3600b860154612132565b601f8111610725575b50602090601f83116001146106b7575f926106ac575b50508160011b915f199060031b1c191617600b8301555b6101a08101518051906001600160401b0382116105d95761050d600c850154612132565b601f8111610668575b50602090601f83116001146105f8579180600d94926101c0945f926105ed575b50508160011b915f199060031b1c191617600c8501555b015191015560015491600160401b8310156105d95760209989977f90fc1547421380bc81cba8398e5ba5df9de237dd6c66d5521cd800956b367a65976105b88a6105a08860016105ce9a0160015561222f565b90919082549060031b91821b915f19901b1916179055565b604051978897339c60843595606435958b61228c565b0390a3604051908152f35b634e487b7160e01b5f52604160045260245ffd5b015190505f80610536565b90601f19831691600c86015f5260205f20925f5b81811061065057509260019285926101c096600d989610610638575b505050811b01600c85015561054d565b01515f1960f88460031b161c191690555f8080610628565b9293602060018192878601518155019501930161060c565b600c85015f5260205f20601f840160051c8101602085106106a5575b601f830160051c8201811061069a575050610516565b5f8155600101610684565b5080610684565b015190505f806104d2565b9250600b85015f5260205f20905f935b601f198416851061070a576001945083601f198116106106f2575b505050811b01600b8301556104e9565b01515f1960f88460031b161c191690555f80806106e2565b818101518355602094850194600190930192909101906106c7565b909150600b85015f5260205f20601f840160051c81016020851061076e575b90849392915b601f830160051c820181106107605750506104bc565b5f815585945060010161074a565b5080610744565b634e487b7160e01b5f52602160045260245ffd5b015190505f806103f6565b9250600585015f5260205f20905f935b601f19841685106107e7576001945083601f198116106107cf575b505050811b01600583015561040d565b01515f1960f88460031b161c191690555f80806107bf565b818101518355602094850194600190930192909101906107a4565b909150600585015f5260205f20601f840160051c81016020851061084b575b90849392915b601f830160051c8201811061083d5750506103e0565b5f8155859450600101610827565b5080610821565b015190505f8061039b565b9250600485015f5260205f20905f935b601f19841685106108b0576001945083601f19811610610898575b505050811b0160048301556103b2565b01515f1960f88460031b161c191690555f8080610888565b8181015183556020948501946001909301929091019061086d565b909150600485015f5260205f20601f840160051c810160208510610914575b90849392915b601f830160051c82018110610906575050610385565b5f81558594506001016108f0565b50806108ea565b015190505f80610340565b9250600385015f5260205f20905f935b601f1984168510610979576001945083601f19811610610961575b505050811b016003830155610357565b01515f1960f88460031b161c191690555f8080610951565b81810151835560209485019460019093019290910190610936565b909150600385015f5260205f20601f840160051c8101602085106109dd575b90849392915b601f830160051c820181106109cf57505061032a565b5f81558594506001016109b9565b50806109b3565b015190505f806102e5565b9250600285015f5260205f20905f935b601f1984168510610a42576001945083601f19811610610a2a575b505050811b0160028301556102fc565b01515f1960f88460031b161c191690555f8080610a1a565b818101518355602094850194600190930192909101906109ff565b909150600285015f5260205f20601f840160051c810160208510610aa6575b90849392915b601f830160051c82018110610a985750506102cf565b5f8155859450600101610a82565b5080610a7c565b015190505f8061028a565b9250600185015f5260205f20905f935b601f1984168510610b0b576001945083601f19811610610af3575b505050811b0160018301556102a1565b01515f1960f88460031b161c191690555f8080610ae3565b81810151835560209485019460019093019290910190610ac8565b909150600185015f5260205f20601f840160051c810160208510610b6f575b90849392915b601f830160051c82018110610b61575050610274565b5f8155859450600101610b4b565b5080610b45565b634e487b7160e01b5f52601160045260245ffd5b60405162461bcd60e51b815260206004820152601060248201526f111150511312539157d25397d41054d560821b6044820152606490fd5b60405162461bcd60e51b815260206004820152600f60248201526e14d3d55490d157d491545552549151608a1b6044820152606490fd5b60405162461bcd60e51b815260206004820152601160248201527014555154d51253d397d491545552549151607a1b6044820152606490fd5b5f80fd5b34610c32575f366003190112610c325760018054610c5381612218565b91610c61604051938461203f565b818352610c6d82612218565b60209290601f19015f5b818110610e0e5750505f5b818110610ce957505060405191808301818452845180915260408401918060408360051b8701019601925f905b838210610cbc5786880387f35b90919293948380610cd8839a603f198b82030186528951611eab565b999701959493919091019101610caf565b9182610cf682969461222f565b9054600391821b1c5f52600d600291828852610d4660405f2091610d3a60405195610d2087612008565b84548752610d2f89860161216a565b8c880152840161216a565b6040860152820161216a565b6060840152610d576004820161216a565b6080840152610d686005820161216a565b60a0840152600681015460c0840152600781015460e0840152600880820154610d9860ff8216610100870161220c565b901c6001600160a01b03166101208401526009810154610140840152600a81015461ffff16610160840152610dcf600b820161216a565b610180840152610de1600c820161216a565b6101a084015201546101c0820152610df98286612278565b52610e048185612278565b5001939193610c82565b8490610e1b9694966120c5565b82828701015201949294610c77565b34610c32576020366003190112610c3257610e436120c5565b506004355f526002602052610f6660405f20610f5260405191610e6583612008565b80548352610e756001820161216a565b6020840152610e866002820161216a565b6040840152610e976003820161216a565b6060840152610ea86004820161216a565b6080840152610eb96005820161216a565b60a0840152600681015460c0840152600781015460e08401526008810154610ee860ff8216610100860161220c565b60081c6001600160a01b0390811661012085019081526009830154610140860152600a83015461ffff166101608601529091600d90610f29600b820161216a565b610180870152610f3b600c820161216a565b6101a087015201546101c085015251161515611fb1565b604051918291602083526020830190611eab565b0390f35b34610c3257610160366003190112610c32576004356001600160401b038111610c3257610f9b903690600401611e33565b6101605261018052602480356001600160401b038111610c3257610fc3903690600401611e33565b91906044356001600160401b038111610c3257610fe4903690600401611e33565b90916064356001600160401b038111610c3257611005903690600401611e33565b906101e052936084356001600160401b038111610c325761102a903690600401611e33565b60c0526101005261ffff60e4351660e43503610c3257610104356001600160401b038111610c3257611060903690600401611e33565b6101205261014052610124356001600160401b038111610c3257611088903690600401611e33565b6101a0526101c0526101605115611d39578515611d01576101a05115611cc7576101443515611c8a576110c2366101605161018051612060565b6110cd368885612060565b6110d8368688612060565b60e0526110e936886101e051612060565b6110f93660c05161010051612060565b61110a366101205161014051612060565b9161111c366101a0516101c051612060565b9360e0515115611c5257825115611c1c574260a4351115611be5575f5460a08190525f1914611bd257600160a051015f556040519561115a87612008565b60a05187526020870152604086015260e0516060860152608085015260a084015260a43560c08401524260e08401525f6101008401523361012084015260c43561014084015261ffff60e435166101608401526101808301526101a0820152610144356101c082015260a0515f52600260205260405f20908051825560208101518051906001600160401b0382116116f65781906111fb6001860154612132565b601f8111611b82575b50602090601f8311600114611b14575f92611b09575b50508160011b915f199060031b1c19161760018301555b60408101518051906001600160401b0382116116f65781906112566002860154612132565b601f8111611ab9575b50602090601f8311600114611a4b575f92611a40575b50508160011b915f199060031b1c19161760028301555b60608101518051906001600160401b0382116116f65781906112b16003860154612132565b601f81116119f0575b50602090601f8311600114611982575f92611977575b50508160011b915f199060031b1c19161760038301555b60808101518051906001600160401b0382116116f657819061130c6004860154612132565b601f8111611927575b50602090601f83116001146118b9575f926118ae575b50508160011b915f199060031b1c19161760048301555b60a08101518051906001600160401b0382116116f65781906113676005860154612132565b601f811161185e575b50602090601f83116001146117f0575f926117e5575b50508160011b915f199060031b1c19161760058301555b60c0810151600683015560e081015160078301556008820161010082015160048110156117d2576113ce9082611ff0565b6101208201518154610100600160a81b03191660089190911b610100600160a81b03161790556101408101516009830155610160810151600a8301805461ffff191661ffff929092169190911790556101808101518051906001600160401b0382116116f6578190611443600b860154612132565b601f8111611782575b50602090601f8311600114611714575f92611709575b50508160011b915f199060031b1c191617600b8301555b6101a08101518051906001600160401b0382116116f65761149d600c850154612132565b601f81116116b2575b50602090601f8311600114611640579180600d94926101c0945f92611635575b50508160011b915f199060031b1c191617600c8501555b0151910155600154608052600160401b608051101561162257509261157461159a93611586936115666115cc9760016080510160015561153a61152160805161222f565b60a05182545f1960039390931b92831b1916911b179055565b604051996101408b526115586101408c0161016051610180516120a5565b918b830360208d01526120a5565b9188830360408a01526120a5565b9085820360608701526101e0516120a5565b838103608085015260c051610100516120a5565b60a43560a084015260c43560c084015261ffff60e4351660e084015282810361010084015261012051610140516120a5565b9080820361012082015233917f64e664c1777ea4cb70135b71e094c35d9b2aa86c69df2eb009b4f984dcd34f5461014435928061161360a051946101a0516101c0516120a5565b0390a4602060405160a0518152f35b634e487b7160e01b5f9081526041600452fd5b015190508c806114c6565b90600c85015f5260205f20915f5b601f198516811061169a575092600d94926001926101c09583601f19811610611682575b505050811b01600c8501556114dd565b01515f1960f88460031b161c191690558c8080611672565b9192602060018192868501518155019401920161164e565b600c85015f5260205f20601f840160051c8101602085106116ef575b601f830160051c820181106116e45750506114a6565b5f81556001016116ce565b50806116ce565b84634e487b7160e01b5f5260416004525ffd5b015190508a80611462565b9250600b85015f5260205f20905f935b601f1984168510611767576001945083601f1981161061174f575b505050811b01600b830155611479565b01515f1960f88460031b161c191690558a808061173f565b81810151835560209485019460019093019290910190611724565b909150600b85015f5260205f20601f840160051c8101602085106117cb575b90849392915b601f830160051c820181106117bd57505061144c565b5f81558594506001016117a7565b50806117a1565b84634e487b7160e01b5f5260216004525ffd5b015190508a80611386565b9250600585015f5260205f20905f935b601f1984168510611843576001945083601f1981161061182b575b505050811b01600583015561139d565b01515f1960f88460031b161c191690558a808061181b565b81810151835560209485019460019093019290910190611800565b909150600585015f5260205f20601f840160051c8101602085106118a7575b90849392915b601f830160051c82018110611899575050611370565b5f8155859450600101611883565b508061187d565b015190508a8061132b565b9250600485015f5260205f20905f935b601f198416851061190c576001945083601f198116106118f4575b505050811b016004830155611342565b01515f1960f88460031b161c191690558a80806118e4565b818101518355602094850194600190930192909101906118c9565b909150600485015f5260205f20601f840160051c810160208510611970575b90849392915b601f830160051c82018110611962575050611315565b5f815585945060010161194c565b5080611946565b015190508a806112d0565b9250600385015f5260205f20905f935b601f19841685106119d5576001945083601f198116106119bd575b505050811b0160038301556112e7565b01515f1960f88460031b161c191690558a80806119ad565b81810151835560209485019460019093019290910190611992565b909150600385015f5260205f20601f840160051c810160208510611a39575b90849392915b601f830160051c82018110611a2b5750506112ba565b5f8155859450600101611a15565b5080611a0f565b015190508a80611275565b9250600285015f5260205f20905f935b601f1984168510611a9e576001945083601f19811610611a86575b505050811b01600283015561128c565b01515f1960f88460031b161c191690558a8080611a76565b81810151835560209485019460019093019290910190611a5b565b909150600285015f5260205f20601f840160051c810160208510611b02575b90849392915b601f830160051c82018110611af457505061125f565b5f8155859450600101611ade565b5080611ad8565b015190508a8061121a565b9250600185015f5260205f20905f935b601f1984168510611b67576001945083601f19811610611b4f575b505050811b016001830155611231565b01515f1960f88460031b161c191690558a8080611b3f565b81810151835560209485019460019093019290910190611b24565b909150600185015f5260205f20601f840160051c810160208510611bcb575b90849392915b601f830160051c82018110611bbd575050611204565b5f8155859450600101611ba7565b5080611ba1565b86634e487b7160e01b5f5260116004525ffd5b60405162461bcd60e51b8152602060048201526010818901526f111150511312539157d25397d41054d560821b6044820152606490fd5b60405162461bcd60e51b815260206004820152600f818901526e14d3d55490d157d491545552549151608a1b6044820152606490fd5b60405162461bcd60e51b8152602060048201526011818901527014555154d51253d397d491545552549151607a1b6044820152606490fd5b60649060166040519162461bcd60e51b83526020600484015282015275135155105110551057d21054d217d49154555254915160521b6044820152fd5b60649060136040519162461bcd60e51b8352602060048401528201527213505492d15517d5549317d491545552549151606a1b6044820152fd5b60649060116040519162461bcd60e51b83526020600484015282015270141310551193d49357d491545552549151607a1b6044820152fd5b60649060146040519162461bcd60e51b83526020600484015282015273115615115493905317d25117d49154555254915160621b6044820152fd5b34610c32576040366003190112610c32576004356024356004811015610c3257815f526002602052600860405f200160018060a01b03815460081c16611dbb811515611fb1565b3303611dff5781611def7fd067ebf1565b7b7f7e3c08ccb7f355defc06fd6a3e5e3da1f0a43c8a235350ac93602093611ff0565b611dfc6040518092611e9e565ba2005b60405162461bcd60e51b815260206004820152600c60248201526b27a7262cafa1a922a0aa27a960a11b6044820152606490fd5b9181601f84011215610c32578235916001600160401b038311610c325760208381860195010111610c3257565b91908251928382525f5b848110611e8a575050825f602080949584010152601f8019910116010190565b602081830181015184830182015201611e6a565b9060048210156107755752565b90611fa3611f8f611f24611f12611f00611eee611edc6101e08951895260208a0151908060208b0152890190611e60565b604089015188820360408a0152611e60565b60608801518782036060890152611e60565b60808701518682036080880152611e60565b60a086015185820360a0870152611e60565b60c085015160c085015260e085015160e0850152611f4b6101008087015190860190611e9e565b610120858101516001600160a01b03169085015261014080860151908501526101608086015161ffff16908501526101808086015185830391860191909152611e60565b6101a0808501519084830390850152611e60565b916101c08091015191015290565b15611fb857565b60405162461bcd60e51b815260206004820152601060248201526f13505492d15517d393d517d193d5539160821b6044820152606490fd5b9060048110156107755760ff80198354169116179055565b6101e081019081106001600160401b038211176105d957604052565b602081019081106001600160401b038211176105d957604052565b90601f801991011681019081106001600160401b038211176105d957604052565b9291926001600160401b0382116105d95760405191612089601f8201601f19166020018461203f565b829481845281830111610c32578281602093845f960137010152565b908060209392818452848401375f828201840152601f01601f1916010190565b604051906120d282612008565b5f6101c083828152606080602083015280604083015280808301528060808301528060a08301528360c08301528360e083015283610100830152836101208301528361014083015283610160830152806101808301526101a08201520152565b90600182811c92168015612160575b602083101461214c57565b634e487b7160e01b5f52602260045260245ffd5b91607f1691612141565b9060405191825f825461217c81612132565b908184526020946001916001811690815f146121ea57506001146121ac575b5050506121aa9250038361203f565b565b5f90815285812095935091905b8183106121d25750506121aa93508201015f808061219b565b855488840185015294850194879450918301916121b9565b925050506121aa94925060ff191682840152151560051b8201015f808061219b565b60048210156107755752565b6001600160401b0381116105d95760051b60200190565b6001548110156122645760015f527fb10e2d527612073b26eecdfd717e6a320cf44b4afac2b0732d9fcbe2b7fa0cf601905f90565b634e487b7160e01b5f52603260045260245ffd5b80518210156122645760209160051b010190565b9591926122ce946122b26122c0936122e69d9b98969c9a9c60c08b5260c08b01916120a5565b9188830360208a01526120a5565b9185830360408701526120a5565b946060830152608082015260a08185039101526120a5565b9056fea26469706673582212202f4d2faf874c4634b159b429e1d6a84dc34f3ddbfdb40527ba363339db304c3264736f6c63430008180033","opcodes":"PUSH1 0x80 DUP1 PUSH1 0x40 MSTORE CALLVALUE PUSH2 0x1A JUMPI PUSH1 0x1 PUSH0 SSTORE PUSH2 0x231F SWAP1 DUP2 PUSH2 0x1F DUP3 CODECOPY RETURN JUMPDEST PUSH0 DUP1 REVERT INVALID PUSH2 0x200 PUSH1 0x40 MSTORE PUSH1 0x4 CALLDATASIZE LT ISZERO PUSH2 0x12 JUMPI PUSH0 DUP1 REVERT JUMPDEST PUSH0 CALLDATALOAD PUSH1 0xE0 SHR DUP1 PUSH4 0x48D0ECA2 EQ PUSH2 0x1D74 JUMPI DUP1 PUSH4 0xB0B65852 EQ PUSH2 0xF6A JUMPI DUP1 PUSH4 0xEB44FDD3 EQ PUSH2 0xE2A JUMPI DUP1 PUSH4 0xEC2C9016 EQ PUSH2 0xC36 JUMPI PUSH4 0xEF688D37 EQ PUSH2 0x51 JUMPI PUSH0 DUP1 REVERT JUMPDEST CALLVALUE PUSH2 0xC32 JUMPI PUSH1 0xC0 CALLDATASIZE PUSH1 0x3 NOT ADD SLT PUSH2 0xC32 JUMPI PUSH1 0x4 CALLDATALOAD PUSH1 0x1 PUSH1 0x1 PUSH1 0x40 SHL SUB DUP2 GT PUSH2 0xC32 JUMPI PUSH2 0x81 SWAP1 CALLDATASIZE SWAP1 PUSH1 0x4 ADD PUSH2 0x1E33 JUMP JUMPDEST SWAP1 PUSH1 0x24 CALLDATALOAD PUSH1 0x1 PUSH1 0x1 PUSH1 0x40 SHL SUB DUP2 GT PUSH2 0xC32 JUMPI PUSH2 0xA1 SWAP1 CALLDATASIZE SWAP1 PUSH1 0x4 ADD PUSH2 0x1E33 JUMP JUMPDEST SWAP2 PUSH1 0x44 CALLDATALOAD PUSH1 0x1 PUSH1 0x1 PUSH1 0x40 SHL SUB DUP2 GT PUSH2 0xC32 JUMPI PUSH2 0xC1 SWAP1 CALLDATASIZE SWAP1 PUSH1 0x4 ADD PUSH2 0x1E33 JUMP JUMPDEST SWAP1 PUSH1 0xA4 CALLDATALOAD PUSH1 0x1 PUSH1 0x1 PUSH1 0x40 SHL SUB DUP2 GT PUSH2 0xC32 JUMPI PUSH2 0xE1 SWAP1 CALLDATASIZE SWAP1 PUSH1 0x4 ADD PUSH2 0x1E33 JUMP JUMPDEST SWAP6 SWAP1 DUP6 DUP6 PUSH2 0x119 DUP11 PUSH2 0x10B DUP12 DUP7 PUSH1 0x40 MLOAD SWAP6 DUP7 SWAP5 DUP13 DUP13 DUP13 PUSH1 0x20 DUP10 ADD SWAP12 DUP13 SWAP5 PUSH1 0x84 CALLDATALOAD SWAP7 PUSH1 0x64 CALLDATALOAD SWAP7 PUSH2 0x228C JUMP JUMPDEST SUB PUSH1 0x1F NOT DUP2 ADD DUP4 MSTORE DUP3 PUSH2 0x203F JUMP JUMPDEST MLOAD SWAP1 KECCAK256 SWAP7 PUSH1 0x40 MLOAD PUSH2 0x129 DUP2 PUSH2 0x2024 JUMP JUMPDEST PUSH0 DUP2 MSTORE PUSH1 0x40 MLOAD SWAP9 DUP10 PUSH1 0x40 DUP2 ADD LT PUSH1 0x1 PUSH1 0x1 PUSH1 0x40 SHL SUB PUSH1 0x40 DUP13 ADD GT OR PUSH2 0x5D9 JUMPI PUSH1 0x40 DUP11 ADD PUSH1 0x40 MSTORE PUSH1 0xB DUP11 MSTORE PUSH11 0x105C98C815195CDD1B995D PUSH1 0xAA SHL PUSH1 0x20 DUP12 ADD MSTORE PUSH2 0x172 CALLDATASIZE DUP13 DUP11 PUSH2 0x2060 JUMP JUMPDEST PUSH2 0x17D CALLDATASIZE DUP8 DUP13 PUSH2 0x2060 JUMP JUMPDEST PUSH2 0x188 CALLDATASIZE DUP11 DUP11 PUSH2 0x2060 JUMP JUMPDEST PUSH2 0x193 CALLDATASIZE DUP8 DUP10 PUSH2 0x2060 JUMP JUMPDEST SWAP2 PUSH1 0x40 MLOAD SWAP4 PUSH2 0x1A1 DUP6 PUSH2 0x2024 JUMP JUMPDEST PUSH0 DUP6 MSTORE DUP1 MLOAD ISZERO PUSH2 0xBF9 JUMPI DUP3 MLOAD ISZERO PUSH2 0xBC2 JUMPI TIMESTAMP PUSH1 0x64 CALLDATALOAD GT ISZERO PUSH2 0xB8A JUMPI PUSH0 SLOAD SWAP15 DUP16 PUSH0 NOT EQ PUSH2 0xB76 JUMPI DUP16 SWAP8 PUSH1 0x1 DUP10 ADD PUSH0 SSTORE PUSH1 0x40 MLOAD SWAP9 PUSH2 0x1DC DUP11 PUSH2 0x2008 JUMP JUMPDEST DUP10 MSTORE PUSH1 0x20 DUP10 ADD MSTORE PUSH1 0x40 DUP9 ADD MSTORE PUSH1 0x60 DUP8 ADD MSTORE PUSH1 0x80 DUP7 ADD MSTORE PUSH1 0xA0 DUP6 ADD MSTORE PUSH1 0x64 CALLDATALOAD PUSH1 0xC0 DUP6 ADD MSTORE TIMESTAMP PUSH1 0xE0 DUP6 ADD MSTORE PUSH0 PUSH2 0x100 DUP6 ADD MSTORE CALLER PUSH2 0x120 DUP6 ADD MSTORE PUSH1 0x84 CALLDATALOAD PUSH2 0x140 DUP6 ADD MSTORE PUSH0 PUSH2 0x160 DUP6 ADD MSTORE PUSH2 0x180 DUP5 ADD MSTORE PUSH2 0x1A0 DUP4 ADD MSTORE PUSH2 0x1C0 DUP3 ADD MSTORE DUP9 PUSH0 MSTORE PUSH1 0x2 PUSH1 0x20 MSTORE PUSH1 0x40 PUSH0 KECCAK256 SWAP1 DUP1 MLOAD DUP3 SSTORE PUSH1 0x20 DUP2 ADD MLOAD DUP1 MLOAD SWAP1 PUSH1 0x1 PUSH1 0x1 PUSH1 0x40 SHL SUB DUP3 GT PUSH2 0x5D9 JUMPI DUP2 SWAP1 PUSH2 0x26B PUSH1 0x1 DUP7 ADD SLOAD PUSH2 0x2132 JUMP JUMPDEST PUSH1 0x1F DUP2 GT PUSH2 0xB26 JUMPI JUMPDEST POP PUSH1 0x20 SWAP1 PUSH1 0x1F DUP4 GT PUSH1 0x1 EQ PUSH2 0xAB8 JUMPI PUSH0 SWAP3 PUSH2 0xAAD JUMPI JUMPDEST POP POP DUP2 PUSH1 0x1 SHL SWAP2 PUSH0 NOT SWAP1 PUSH1 0x3 SHL SHR NOT AND OR PUSH1 0x1 DUP4 ADD SSTORE JUMPDEST PUSH1 0x40 DUP2 ADD MLOAD DUP1 MLOAD SWAP1 PUSH1 0x1 PUSH1 0x1 PUSH1 0x40 SHL SUB DUP3 GT PUSH2 0x5D9 JUMPI DUP2 SWAP1 PUSH2 0x2C6 PUSH1 0x2 DUP7 ADD SLOAD PUSH2 0x2132 JUMP JUMPDEST PUSH1 0x1F DUP2 GT PUSH2 0xA5D JUMPI JUMPDEST POP PUSH1 0x20 SWAP1 PUSH1 0x1F DUP4 GT PUSH1 0x1 EQ PUSH2 0x9EF JUMPI PUSH0 SWAP3 PUSH2 0x9E4 JUMPI JUMPDEST POP POP DUP2 PUSH1 0x1 SHL SWAP2 PUSH0 NOT SWAP1 PUSH1 0x3 SHL SHR NOT AND OR PUSH1 0x2 DUP4 ADD SSTORE JUMPDEST PUSH1 0x60 DUP2 ADD MLOAD DUP1 MLOAD SWAP1 PUSH1 0x1 PUSH1 0x1 PUSH1 0x40 SHL SUB DUP3 GT PUSH2 0x5D9 JUMPI DUP2 SWAP1 PUSH2 0x321 PUSH1 0x3 DUP7 ADD SLOAD PUSH2 0x2132 JUMP JUMPDEST PUSH1 0x1F DUP2 GT PUSH2 0x994 JUMPI JUMPDEST POP PUSH1 0x20 SWAP1 PUSH1 0x1F DUP4 GT PUSH1 0x1 EQ PUSH2 0x926 JUMPI PUSH0 SWAP3 PUSH2 0x91B JUMPI JUMPDEST POP POP DUP2 PUSH1 0x1 SHL SWAP2 PUSH0 NOT SWAP1 PUSH1 0x3 SHL SHR NOT AND OR PUSH1 0x3 DUP4 ADD SSTORE JUMPDEST PUSH1 0x80 DUP2 ADD MLOAD DUP1 MLOAD SWAP1 PUSH1 0x1 PUSH1 0x1 PUSH1 0x40 SHL SUB DUP3 GT PUSH2 0x5D9 JUMPI DUP2 SWAP1 PUSH2 0x37C PUSH1 0x4 DUP7 ADD SLOAD PUSH2 0x2132 JUMP JUMPDEST PUSH1 0x1F DUP2 GT PUSH2 0x8CB JUMPI JUMPDEST POP PUSH1 0x20 SWAP1 PUSH1 0x1F DUP4 GT PUSH1 0x1 EQ PUSH2 0x85D JUMPI PUSH0 SWAP3 PUSH2 0x852 JUMPI JUMPDEST POP POP DUP2 PUSH1 0x1 SHL SWAP2 PUSH0 NOT SWAP1 PUSH1 0x3 SHL SHR NOT AND OR PUSH1 0x4 DUP4 ADD SSTORE JUMPDEST PUSH1 0xA0 DUP2 ADD MLOAD DUP1 MLOAD SWAP1 PUSH1 0x1 PUSH1 0x1 PUSH1 0x40 SHL SUB DUP3 GT PUSH2 0x5D9 JUMPI DUP2 SWAP1 PUSH2 0x3D7 PUSH1 0x5 DUP7 ADD SLOAD PUSH2 0x2132 JUMP JUMPDEST PUSH1 0x1F DUP2 GT PUSH2 0x802 JUMPI JUMPDEST POP PUSH1 0x20 SWAP1 PUSH1 0x1F DUP4 GT PUSH1 0x1 EQ PUSH2 0x794 JUMPI PUSH0 SWAP3 PUSH2 0x789 JUMPI JUMPDEST POP POP DUP2 PUSH1 0x1 SHL SWAP2 PUSH0 NOT SWAP1 PUSH1 0x3 SHL SHR NOT AND OR PUSH1 0x5 DUP4 ADD SSTORE JUMPDEST PUSH1 0xC0 DUP2 ADD MLOAD PUSH1 0x6 DUP4 ADD SSTORE PUSH1 0xE0 DUP2 ADD MLOAD PUSH1 0x7 DUP4 ADD SSTORE PUSH1 0x8 DUP3 ADD PUSH2 0x100 DUP3 ADD MLOAD PUSH1 0x4 DUP2 LT ISZERO PUSH2 0x775 JUMPI PUSH2 0x43E SWAP1 DUP3 PUSH2 0x1FF0 JUMP JUMPDEST PUSH2 0x120 DUP3 ADD MLOAD DUP2 SLOAD PUSH2 0x100 PUSH1 0x1 PUSH1 0xA8 SHL SUB NOT AND PUSH1 0x8 SWAP2 SWAP1 SWAP2 SHL PUSH2 0x100 PUSH1 0x1 PUSH1 0xA8 SHL SUB AND OR SWAP1 SSTORE PUSH2 0x140 DUP2 ADD MLOAD PUSH1 0x9 DUP4 ADD SSTORE PUSH2 0x160 DUP2 ADD MLOAD PUSH1 0xA DUP4 ADD DUP1 SLOAD PUSH2 0xFFFF NOT AND PUSH2 0xFFFF SWAP3 SWAP1 SWAP3 AND SWAP2 SWAP1 SWAP2 OR SWAP1 SSTORE PUSH2 0x180 DUP2 ADD MLOAD DUP1 MLOAD SWAP1 PUSH1 0x1 PUSH1 0x1 PUSH1 0x40 SHL SUB DUP3 GT PUSH2 0x5D9 JUMPI DUP2 SWAP1 PUSH2 0x4B3 PUSH1 0xB DUP7 ADD SLOAD PUSH2 0x2132 JUMP JUMPDEST PUSH1 0x1F DUP2 GT PUSH2 0x725 JUMPI JUMPDEST POP PUSH1 0x20 SWAP1 PUSH1 0x1F DUP4 GT PUSH1 0x1 EQ PUSH2 0x6B7 JUMPI PUSH0 SWAP3 PUSH2 0x6AC JUMPI JUMPDEST POP POP DUP2 PUSH1 0x1 SHL SWAP2 PUSH0 NOT SWAP1 PUSH1 0x3 SHL SHR NOT AND OR PUSH1 0xB DUP4 ADD SSTORE JUMPDEST PUSH2 0x1A0 DUP2 ADD MLOAD DUP1 MLOAD SWAP1 PUSH1 0x1 PUSH1 0x1 PUSH1 0x40 SHL SUB DUP3 GT PUSH2 0x5D9 JUMPI PUSH2 0x50D PUSH1 0xC DUP6 ADD SLOAD PUSH2 0x2132 JUMP JUMPDEST PUSH1 0x1F DUP2 GT PUSH2 0x668 JUMPI JUMPDEST POP PUSH1 0x20 SWAP1 PUSH1 0x1F DUP4 GT PUSH1 0x1 EQ PUSH2 0x5F8 JUMPI SWAP2 DUP1 PUSH1 0xD SWAP5 SWAP3 PUSH2 0x1C0 SWAP5 PUSH0 SWAP3 PUSH2 0x5ED JUMPI JUMPDEST POP POP DUP2 PUSH1 0x1 SHL SWAP2 PUSH0 NOT SWAP1 PUSH1 0x3 SHL SHR NOT AND OR PUSH1 0xC DUP6 ADD SSTORE JUMPDEST ADD MLOAD SWAP2 ADD SSTORE PUSH1 0x1 SLOAD SWAP2 PUSH1 0x1 PUSH1 0x40 SHL DUP4 LT ISZERO PUSH2 0x5D9 JUMPI PUSH1 0x20 SWAP10 DUP10 SWAP8 PUSH32 0x90FC1547421380BC81CBA8398E5BA5DF9DE237DD6C66D5521CD800956B367A65 SWAP8 PUSH2 0x5B8 DUP11 PUSH2 0x5A0 DUP9 PUSH1 0x1 PUSH2 0x5CE SWAP11 ADD PUSH1 0x1 SSTORE PUSH2 0x222F JUMP JUMPDEST SWAP1 SWAP2 SWAP1 DUP3 SLOAD SWAP1 PUSH1 0x3 SHL SWAP2 DUP3 SHL SWAP2 PUSH0 NOT SWAP1 SHL NOT AND OR SWAP1 SSTORE JUMP JUMPDEST PUSH1 0x40 MLOAD SWAP8 DUP9 SWAP8 CALLER SWAP13 PUSH1 0x84 CALLDATALOAD SWAP6 PUSH1 0x64 CALLDATALOAD SWAP6 DUP12 PUSH2 0x228C JUMP JUMPDEST SUB SWAP1 LOG3 PUSH1 0x40 MLOAD SWAP1 DUP2 MSTORE RETURN JUMPDEST PUSH4 0x4E487B71 PUSH1 0xE0 SHL PUSH0 MSTORE PUSH1 0x41 PUSH1 0x4 MSTORE PUSH1 0x24 PUSH0 REVERT JUMPDEST ADD MLOAD SWAP1 POP PUSH0 DUP1 PUSH2 0x536 JUMP JUMPDEST SWAP1 PUSH1 0x1F NOT DUP4 AND SWAP2 PUSH1 0xC DUP7 ADD PUSH0 MSTORE PUSH1 0x20 PUSH0 KECCAK256 SWAP3 PUSH0 JUMPDEST DUP2 DUP2 LT PUSH2 0x650 JUMPI POP SWAP3 PUSH1 0x1 SWAP3 DUP6 SWAP3 PUSH2 0x1C0 SWAP7 PUSH1 0xD SWAP9 SWAP7 LT PUSH2 0x638 JUMPI JUMPDEST POP POP POP DUP2 SHL ADD PUSH1 0xC DUP6 ADD SSTORE PUSH2 0x54D JUMP JUMPDEST ADD MLOAD PUSH0 NOT PUSH1 0xF8 DUP5 PUSH1 0x3 SHL AND SHR NOT AND SWAP1 SSTORE PUSH0 DUP1 DUP1 PUSH2 0x628 JUMP JUMPDEST SWAP3 SWAP4 PUSH1 0x20 PUSH1 0x1 DUP2 SWAP3 DUP8 DUP7 ADD MLOAD DUP2 SSTORE ADD SWAP6 ADD SWAP4 ADD PUSH2 0x60C JUMP JUMPDEST PUSH1 0xC DUP6 ADD PUSH0 MSTORE PUSH1 0x20 PUSH0 KECCAK256 PUSH1 0x1F DUP5 ADD PUSH1 0x5 SHR DUP2 ADD PUSH1 0x20 DUP6 LT PUSH2 0x6A5 JUMPI JUMPDEST PUSH1 0x1F DUP4 ADD PUSH1 0x5 SHR DUP3 ADD DUP2 LT PUSH2 0x69A JUMPI POP POP PUSH2 0x516 JUMP JUMPDEST PUSH0 DUP2 SSTORE PUSH1 0x1 ADD PUSH2 0x684 JUMP JUMPDEST POP DUP1 PUSH2 0x684 JUMP JUMPDEST ADD MLOAD SWAP1 POP PUSH0 DUP1 PUSH2 0x4D2 JUMP JUMPDEST SWAP3 POP PUSH1 0xB DUP6 ADD PUSH0 MSTORE PUSH1 0x20 PUSH0 KECCAK256 SWAP1 PUSH0 SWAP4 JUMPDEST PUSH1 0x1F NOT DUP5 AND DUP6 LT PUSH2 0x70A JUMPI PUSH1 0x1 SWAP5 POP DUP4 PUSH1 0x1F NOT DUP2 AND LT PUSH2 0x6F2 JUMPI JUMPDEST POP POP POP DUP2 SHL ADD PUSH1 0xB DUP4 ADD SSTORE PUSH2 0x4E9 JUMP JUMPDEST ADD MLOAD PUSH0 NOT PUSH1 0xF8 DUP5 PUSH1 0x3 SHL AND SHR NOT AND SWAP1 SSTORE PUSH0 DUP1 DUP1 PUSH2 0x6E2 JUMP JUMPDEST DUP2 DUP2 ADD MLOAD DUP4 SSTORE PUSH1 0x20 SWAP5 DUP6 ADD SWAP5 PUSH1 0x1 SWAP1 SWAP4 ADD SWAP3 SWAP1 SWAP2 ADD SWAP1 PUSH2 0x6C7 JUMP JUMPDEST SWAP1 SWAP2 POP PUSH1 0xB DUP6 ADD PUSH0 MSTORE PUSH1 0x20 PUSH0 KECCAK256 PUSH1 0x1F DUP5 ADD PUSH1 0x5 SHR DUP2 ADD PUSH1 0x20 DUP6 LT PUSH2 0x76E JUMPI JUMPDEST SWAP1 DUP5 SWAP4 SWAP3 SWAP2 JUMPDEST PUSH1 0x1F DUP4 ADD PUSH1 0x5 SHR DUP3 ADD DUP2 LT PUSH2 0x760 JUMPI POP POP PUSH2 0x4BC JUMP JUMPDEST PUSH0 DUP2 SSTORE DUP6 SWAP5 POP PUSH1 0x1 ADD PUSH2 0x74A JUMP JUMPDEST POP DUP1 PUSH2 0x744 JUMP JUMPDEST PUSH4 0x4E487B71 PUSH1 0xE0 SHL PUSH0 MSTORE PUSH1 0x21 PUSH1 0x4 MSTORE PUSH1 0x24 PUSH0 REVERT JUMPDEST ADD MLOAD SWAP1 POP PUSH0 DUP1 PUSH2 0x3F6 JUMP JUMPDEST SWAP3 POP PUSH1 0x5 DUP6 ADD PUSH0 MSTORE PUSH1 0x20 PUSH0 KECCAK256 SWAP1 PUSH0 SWAP4 JUMPDEST PUSH1 0x1F NOT DUP5 AND DUP6 LT PUSH2 0x7E7 JUMPI PUSH1 0x1 SWAP5 POP DUP4 PUSH1 0x1F NOT DUP2 AND LT PUSH2 0x7CF JUMPI JUMPDEST POP POP POP DUP2 SHL ADD PUSH1 0x5 DUP4 ADD SSTORE PUSH2 0x40D JUMP JUMPDEST ADD MLOAD PUSH0 NOT PUSH1 0xF8 DUP5 PUSH1 0x3 SHL AND SHR NOT AND SWAP1 SSTORE PUSH0 DUP1 DUP1 PUSH2 0x7BF JUMP JUMPDEST DUP2 DUP2 ADD MLOAD DUP4 SSTORE PUSH1 0x20 SWAP5 DUP6 ADD SWAP5 PUSH1 0x1 SWAP1 SWAP4 ADD SWAP3 SWAP1 SWAP2 ADD SWAP1 PUSH2 0x7A4 JUMP JUMPDEST SWAP1 SWAP2 POP PUSH1 0x5 DUP6 ADD PUSH0 MSTORE PUSH1 0x20 PUSH0 KECCAK256 PUSH1 0x1F DUP5 ADD PUSH1 0x5 SHR DUP2 ADD PUSH1 0x20 DUP6 LT PUSH2 0x84B JUMPI JUMPDEST SWAP1 DUP5 SWAP4 SWAP3 SWAP2 JUMPDEST PUSH1 0x1F DUP4 ADD PUSH1 0x5 SHR DUP3 ADD DUP2 LT PUSH2 0x83D JUMPI POP POP PUSH2 0x3E0 JUMP JUMPDEST PUSH0 DUP2 SSTORE DUP6 SWAP5 POP PUSH1 0x1 ADD PUSH2 0x827 JUMP JUMPDEST POP DUP1 PUSH2 0x821 JUMP JUMPDEST ADD MLOAD SWAP1 POP PUSH0 DUP1 PUSH2 0x39B JUMP JUMPDEST SWAP3 POP PUSH1 0x4 DUP6 ADD PUSH0 MSTORE PUSH1 0x20 PUSH0 KECCAK256 SWAP1 PUSH0 SWAP4 JUMPDEST PUSH1 0x1F NOT DUP5 AND DUP6 LT PUSH2 0x8B0 JUMPI PUSH1 0x1 SWAP5 POP DUP4 PUSH1 0x1F NOT DUP2 AND LT PUSH2 0x898 JUMPI JUMPDEST POP POP POP DUP2 SHL ADD PUSH1 0x4 DUP4 ADD SSTORE PUSH2 0x3B2 JUMP JUMPDEST ADD MLOAD PUSH0 NOT PUSH1 0xF8 DUP5 PUSH1 0x3 SHL AND SHR NOT AND SWAP1 SSTORE PUSH0 DUP1 DUP1 PUSH2 0x888 JUMP JUMPDEST DUP2 DUP2 ADD MLOAD DUP4 SSTORE PUSH1 0x20 SWAP5 DUP6 ADD SWAP5 PUSH1 0x1 SWAP1 SWAP4 ADD SWAP3 SWAP1 SWAP2 ADD SWAP1 PUSH2 0x86D JUMP JUMPDEST SWAP1 SWAP2 POP PUSH1 0x4 DUP6 ADD PUSH0 MSTORE PUSH1 0x20 PUSH0 KECCAK256 PUSH1 0x1F DUP5 ADD PUSH1 0x5 SHR DUP2 ADD PUSH1 0x20 DUP6 LT PUSH2 0x914 JUMPI JUMPDEST SWAP1 DUP5 SWAP4 SWAP3 SWAP2 JUMPDEST PUSH1 0x1F DUP4 ADD PUSH1 0x5 SHR DUP3 ADD DUP2 LT PUSH2 0x906 JUMPI POP POP PUSH2 0x385 JUMP JUMPDEST PUSH0 DUP2 SSTORE DUP6 SWAP5 POP PUSH1 0x1 ADD PUSH2 0x8F0 JUMP JUMPDEST POP DUP1 PUSH2 0x8EA JUMP JUMPDEST ADD MLOAD SWAP1 POP PUSH0 DUP1 PUSH2 0x340 JUMP JUMPDEST SWAP3 POP PUSH1 0x3 DUP6 ADD PUSH0 MSTORE PUSH1 0x20 PUSH0 KECCAK256 SWAP1 PUSH0 SWAP4 JUMPDEST PUSH1 0x1F NOT DUP5 AND DUP6 LT PUSH2 0x979 JUMPI PUSH1 0x1 SWAP5 POP DUP4 PUSH1 0x1F NOT DUP2 AND LT PUSH2 0x961 JUMPI JUMPDEST POP POP POP DUP2 SHL ADD PUSH1 0x3 DUP4 ADD SSTORE PUSH2 0x357 JUMP JUMPDEST ADD MLOAD PUSH0 NOT PUSH1 0xF8 DUP5 PUSH1 0x3 SHL AND SHR NOT AND SWAP1 SSTORE PUSH0 DUP1 DUP1 PUSH2 0x951 JUMP JUMPDEST DUP2 DUP2 ADD MLOAD DUP4 SSTORE PUSH1 0x20 SWAP5 DUP6 ADD SWAP5 PUSH1 0x1 SWAP1 SWAP4 ADD SWAP3 SWAP1 SWAP2 ADD SWAP1 PUSH2 0x936 JUMP JUMPDEST SWAP1 SWAP2 POP PUSH1 0x3 DUP6 ADD PUSH0 MSTORE PUSH1 0x20 PUSH0 KECCAK256 PUSH1 0x1F DUP5 ADD PUSH1 0x5 SHR DUP2 ADD PUSH1 0x20 DUP6 LT PUSH2 0x9DD JUMPI JUMPDEST SWAP1 DUP5 SWAP4 SWAP3 SWAP2 JUMPDEST PUSH1 0x1F DUP4 ADD PUSH1 0x5 SHR DUP3 ADD DUP2 LT PUSH2 0x9CF JUMPI POP POP PUSH2 0x32A JUMP JUMPDEST PUSH0 DUP2 SSTORE DUP6 SWAP5 POP PUSH1 0x1 ADD PUSH2 0x9B9 JUMP JUMPDEST POP DUP1 PUSH2 0x9B3 JUMP JUMPDEST ADD MLOAD SWAP1 POP PUSH0 DUP1 PUSH2 0x2E5 JUMP JUMPDEST SWAP3 POP PUSH1 0x2 DUP6 ADD PUSH0 MSTORE PUSH1 0x20 PUSH0 KECCAK256 SWAP1 PUSH0 SWAP4 JUMPDEST PUSH1 0x1F NOT DUP5 AND DUP6 LT PUSH2 0xA42 JUMPI PUSH1 0x1 SWAP5 POP DUP4 PUSH1 0x1F NOT DUP2 AND LT PUSH2 0xA2A JUMPI JUMPDEST POP POP POP DUP2 SHL ADD PUSH1 0x2 DUP4 ADD SSTORE PUSH2 0x2FC JUMP JUMPDEST ADD MLOAD PUSH0 NOT PUSH1 0xF8 DUP5 PUSH1 0x3 SHL AND SHR NOT AND SWAP1 SSTORE PUSH0 DUP1 DUP1 PUSH2 0xA1A JUMP JUMPDEST DUP2 DUP2 ADD MLOAD DUP4 SSTORE PUSH1 0x20 SWAP5 DUP6 ADD SWAP5 PUSH1 0x1 SWAP1 SWAP4 ADD SWAP3 SWAP1 SWAP2 ADD SWAP1 PUSH2 0x9FF JUMP JUMPDEST SWAP1 SWAP2 POP PUSH1 0x2 DUP6 ADD PUSH0 MSTORE PUSH1 0x20 PUSH0 KECCAK256 PUSH1 0x1F DUP5 ADD PUSH1 0x5 SHR DUP2 ADD PUSH1 0x20 DUP6 LT PUSH2 0xAA6 JUMPI JUMPDEST SWAP1 DUP5 SWAP4 SWAP3 SWAP2 JUMPDEST PUSH1 0x1F DUP4 ADD PUSH1 0x5 SHR DUP3 ADD DUP2 LT PUSH2 0xA98 JUMPI POP POP PUSH2 0x2CF JUMP JUMPDEST PUSH0 DUP2 SSTORE DUP6 SWAP5 POP PUSH1 0x1 ADD PUSH2 0xA82 JUMP JUMPDEST POP DUP1 PUSH2 0xA7C JUMP JUMPDEST ADD MLOAD SWAP1 POP PUSH0 DUP1 PUSH2 0x28A JUMP JUMPDEST SWAP3 POP PUSH1 0x1 DUP6 ADD PUSH0 MSTORE PUSH1 0x20 PUSH0 KECCAK256 SWAP1 PUSH0 SWAP4 JUMPDEST PUSH1 0x1F NOT DUP5 AND DUP6 LT PUSH2 0xB0B JUMPI PUSH1 0x1 SWAP5 POP DUP4 PUSH1 0x1F NOT DUP2 AND LT PUSH2 0xAF3 JUMPI JUMPDEST POP POP POP DUP2 SHL ADD PUSH1 0x1 DUP4 ADD SSTORE PUSH2 0x2A1 JUMP JUMPDEST ADD MLOAD PUSH0 NOT PUSH1 0xF8 DUP5 PUSH1 0x3 SHL AND SHR NOT AND SWAP1 SSTORE PUSH0 DUP1 DUP1 PUSH2 0xAE3 JUMP JUMPDEST DUP2 DUP2 ADD MLOAD DUP4 SSTORE PUSH1 0x20 SWAP5 DUP6 ADD SWAP5 PUSH1 0x1 SWAP1 SWAP4 ADD SWAP3 SWAP1 SWAP2 ADD SWAP1 PUSH2 0xAC8 JUMP JUMPDEST SWAP1 SWAP2 POP PUSH1 0x1 DUP6 ADD PUSH0 MSTORE PUSH1 0x20 PUSH0 KECCAK256 PUSH1 0x1F DUP5 ADD PUSH1 0x5 SHR DUP2 ADD PUSH1 0x20 DUP6 LT PUSH2 0xB6F JUMPI JUMPDEST SWAP1 DUP5 SWAP4 SWAP3 SWAP2 JUMPDEST PUSH1 0x1F DUP4 ADD PUSH1 0x5 SHR DUP3 ADD DUP2 LT PUSH2 0xB61 JUMPI POP POP PUSH2 0x274 JUMP JUMPDEST PUSH0 DUP2 SSTORE DUP6 SWAP5 POP PUSH1 0x1 ADD PUSH2 0xB4B JUMP JUMPDEST POP DUP1 PUSH2 0xB45 JUMP JUMPDEST PUSH4 0x4E487B71 PUSH1 0xE0 SHL PUSH0 MSTORE PUSH1 0x11 PUSH1 0x4 MSTORE PUSH1 0x24 PUSH0 REVERT JUMPDEST PUSH1 0x40 MLOAD PUSH3 0x461BCD PUSH1 0xE5 SHL DUP2 MSTORE PUSH1 0x20 PUSH1 0x4 DUP3 ADD MSTORE PUSH1 0x10 PUSH1 0x24 DUP3 ADD MSTORE PUSH16 0x111150511312539157D25397D41054D5 PUSH1 0x82 SHL PUSH1 0x44 DUP3 ADD MSTORE PUSH1 0x64 SWAP1 REVERT JUMPDEST PUSH1 0x40 MLOAD PUSH3 0x461BCD PUSH1 0xE5 SHL DUP2 MSTORE PUSH1 0x20 PUSH1 0x4 DUP3 ADD MSTORE PUSH1 0xF PUSH1 0x24 DUP3 ADD MSTORE PUSH15 0x14D3D55490D157D491545552549151 PUSH1 0x8A SHL PUSH1 0x44 DUP3 ADD MSTORE PUSH1 0x64 SWAP1 REVERT JUMPDEST PUSH1 0x40 MLOAD PUSH3 0x461BCD PUSH1 0xE5 SHL DUP2 MSTORE PUSH1 0x20 PUSH1 0x4 DUP3 ADD MSTORE PUSH1 0x11 PUSH1 0x24 DUP3 ADD MSTORE PUSH17 0x14555154D51253D397D491545552549151 PUSH1 0x7A SHL PUSH1 0x44 DUP3 ADD MSTORE PUSH1 0x64 SWAP1 REVERT JUMPDEST PUSH0 DUP1 REVERT JUMPDEST CALLVALUE PUSH2 0xC32 JUMPI PUSH0 CALLDATASIZE PUSH1 0x3 NOT ADD SLT PUSH2 0xC32 JUMPI PUSH1 0x1 DUP1 SLOAD PUSH2 0xC53 DUP2 PUSH2 0x2218 JUMP JUMPDEST SWAP2 PUSH2 0xC61 PUSH1 0x40 MLOAD SWAP4 DUP5 PUSH2 0x203F JUMP JUMPDEST DUP2 DUP4 MSTORE PUSH2 0xC6D DUP3 PUSH2 0x2218 JUMP JUMPDEST PUSH1 0x20 SWAP3 SWAP1 PUSH1 0x1F NOT ADD PUSH0 JUMPDEST DUP2 DUP2 LT PUSH2 0xE0E JUMPI POP POP PUSH0 JUMPDEST DUP2 DUP2 LT PUSH2 0xCE9 JUMPI POP POP PUSH1 0x40 MLOAD SWAP2 DUP1 DUP4 ADD DUP2 DUP5 MSTORE DUP5 MLOAD DUP1 SWAP2 MSTORE PUSH1 0x40 DUP5 ADD SWAP2 DUP1 PUSH1 0x40 DUP4 PUSH1 0x5 SHL DUP8 ADD ADD SWAP7 ADD SWAP3 PUSH0 SWAP1 JUMPDEST DUP4 DUP3 LT PUSH2 0xCBC JUMPI DUP7 DUP9 SUB DUP8 RETURN JUMPDEST SWAP1 SWAP2 SWAP3 SWAP4 SWAP5 DUP4 DUP1 PUSH2 0xCD8 DUP4 SWAP11 PUSH1 0x3F NOT DUP12 DUP3 SUB ADD DUP7 MSTORE DUP10 MLOAD PUSH2 0x1EAB JUMP JUMPDEST SWAP10 SWAP8 ADD SWAP6 SWAP5 SWAP4 SWAP2 SWAP1 SWAP2 ADD SWAP2 ADD PUSH2 0xCAF JUMP JUMPDEST SWAP2 DUP3 PUSH2 0xCF6 DUP3 SWAP7 SWAP5 PUSH2 0x222F JUMP JUMPDEST SWAP1 SLOAD PUSH1 0x3 SWAP2 DUP3 SHL SHR PUSH0 MSTORE PUSH1 0xD PUSH1 0x2 SWAP2 DUP3 DUP9 MSTORE PUSH2 0xD46 PUSH1 0x40 PUSH0 KECCAK256 SWAP2 PUSH2 0xD3A PUSH1 0x40 MLOAD SWAP6 PUSH2 0xD20 DUP8 PUSH2 0x2008 JUMP JUMPDEST DUP5 SLOAD DUP8 MSTORE PUSH2 0xD2F DUP10 DUP7 ADD PUSH2 0x216A JUMP JUMPDEST DUP13 DUP9 ADD MSTORE DUP5 ADD PUSH2 0x216A JUMP JUMPDEST PUSH1 0x40 DUP7 ADD MSTORE DUP3 ADD PUSH2 0x216A JUMP JUMPDEST PUSH1 0x60 DUP5 ADD MSTORE PUSH2 0xD57 PUSH1 0x4 DUP3 ADD PUSH2 0x216A JUMP JUMPDEST PUSH1 0x80 DUP5 ADD MSTORE PUSH2 0xD68 PUSH1 0x5 DUP3 ADD PUSH2 0x216A JUMP JUMPDEST PUSH1 0xA0 DUP5 ADD MSTORE PUSH1 0x6 DUP2 ADD SLOAD PUSH1 0xC0 DUP5 ADD MSTORE PUSH1 0x7 DUP2 ADD SLOAD PUSH1 0xE0 DUP5 ADD MSTORE PUSH1 0x8 DUP1 DUP3 ADD SLOAD PUSH2 0xD98 PUSH1 0xFF DUP3 AND PUSH2 0x100 DUP8 ADD PUSH2 0x220C JUMP JUMPDEST SWAP1 SHR PUSH1 0x1 PUSH1 0x1 PUSH1 0xA0 SHL SUB AND PUSH2 0x120 DUP5 ADD MSTORE PUSH1 0x9 DUP2 ADD SLOAD PUSH2 0x140 DUP5 ADD MSTORE PUSH1 0xA DUP2 ADD SLOAD PUSH2 0xFFFF AND PUSH2 0x160 DUP5 ADD MSTORE PUSH2 0xDCF PUSH1 0xB DUP3 ADD PUSH2 0x216A JUMP JUMPDEST PUSH2 0x180 DUP5 ADD MSTORE PUSH2 0xDE1 PUSH1 0xC DUP3 ADD PUSH2 0x216A JUMP JUMPDEST PUSH2 0x1A0 DUP5 ADD MSTORE ADD SLOAD PUSH2 0x1C0 DUP3 ADD MSTORE PUSH2 0xDF9 DUP3 DUP7 PUSH2 0x2278 JUMP JUMPDEST MSTORE PUSH2 0xE04 DUP2 DUP6 PUSH2 0x2278 JUMP JUMPDEST POP ADD SWAP4 SWAP2 SWAP4 PUSH2 0xC82 JUMP JUMPDEST DUP5 SWAP1 PUSH2 0xE1B SWAP7 SWAP5 SWAP7 PUSH2 0x20C5 JUMP JUMPDEST DUP3 DUP3 DUP8 ADD ADD MSTORE ADD SWAP5 SWAP3 SWAP5 PUSH2 0xC77 JUMP JUMPDEST CALLVALUE PUSH2 0xC32 JUMPI PUSH1 0x20 CALLDATASIZE PUSH1 0x3 NOT ADD SLT PUSH2 0xC32 JUMPI PUSH2 0xE43 PUSH2 0x20C5 JUMP JUMPDEST POP PUSH1 0x4 CALLDATALOAD PUSH0 MSTORE PUSH1 0x2 PUSH1 0x20 MSTORE PUSH2 0xF66 PUSH1 0x40 PUSH0 KECCAK256 PUSH2 0xF52 PUSH1 0x40 MLOAD SWAP2 PUSH2 0xE65 DUP4 PUSH2 0x2008 JUMP JUMPDEST DUP1 SLOAD DUP4 MSTORE PUSH2 0xE75 PUSH1 0x1 DUP3 ADD PUSH2 0x216A JUMP JUMPDEST PUSH1 0x20 DUP5 ADD MSTORE PUSH2 0xE86 PUSH1 0x2 DUP3 ADD PUSH2 0x216A JUMP JUMPDEST PUSH1 0x40 DUP5 ADD MSTORE PUSH2 0xE97 PUSH1 0x3 DUP3 ADD PUSH2 0x216A JUMP JUMPDEST PUSH1 0x60 DUP5 ADD MSTORE PUSH2 0xEA8 PUSH1 0x4 DUP3 ADD PUSH2 0x216A JUMP JUMPDEST PUSH1 0x80 DUP5 ADD MSTORE PUSH2 0xEB9 PUSH1 0x5 DUP3 ADD PUSH2 0x216A JUMP JUMPDEST PUSH1 0xA0 DUP5 ADD MSTORE PUSH1 0x6 DUP2 ADD SLOAD PUSH1 0xC0 DUP5 ADD MSTORE PUSH1 0x7 DUP2 ADD SLOAD PUSH1 0xE0 DUP5 ADD MSTORE PUSH1 0x8 DUP2 ADD SLOAD PUSH2 0xEE8 PUSH1 0xFF DUP3 AND PUSH2 0x100 DUP7 ADD PUSH2 0x220C JUMP JUMPDEST PUSH1 0x8 SHR PUSH1 0x1 PUSH1 0x1 PUSH1 0xA0 SHL SUB SWAP1 DUP2 AND PUSH2 0x120 DUP6 ADD SWAP1 DUP2 MSTORE PUSH1 0x9 DUP4 ADD SLOAD PUSH2 0x140 DUP7 ADD MSTORE PUSH1 0xA DUP4 ADD SLOAD PUSH2 0xFFFF AND PUSH2 0x160 DUP7 ADD MSTORE SWAP1 SWAP2 PUSH1 0xD SWAP1 PUSH2 0xF29 PUSH1 0xB DUP3 ADD PUSH2 0x216A JUMP JUMPDEST PUSH2 0x180 DUP8 ADD MSTORE PUSH2 0xF3B PUSH1 0xC DUP3 ADD PUSH2 0x216A JUMP JUMPDEST PUSH2 0x1A0 DUP8 ADD MSTORE ADD SLOAD PUSH2 0x1C0 DUP6 ADD MSTORE MLOAD AND ISZERO ISZERO PUSH2 0x1FB1 JUMP JUMPDEST PUSH1 0x40 MLOAD SWAP2 DUP3 SWAP2 PUSH1 0x20 DUP4 MSTORE PUSH1 0x20 DUP4 ADD SWAP1 PUSH2 0x1EAB JUMP JUMPDEST SUB SWAP1 RETURN JUMPDEST CALLVALUE PUSH2 0xC32 JUMPI PUSH2 0x160 CALLDATASIZE PUSH1 0x3 NOT ADD SLT PUSH2 0xC32 JUMPI PUSH1 0x4 CALLDATALOAD PUSH1 0x1 PUSH1 0x1 PUSH1 0x40 SHL SUB DUP2 GT PUSH2 0xC32 JUMPI PUSH2 0xF9B SWAP1 CALLDATASIZE SWAP1 PUSH1 0x4 ADD PUSH2 0x1E33 JUMP JUMPDEST PUSH2 0x160 MSTORE PUSH2 0x180 MSTORE PUSH1 0x24 DUP1 CALLDATALOAD PUSH1 0x1 PUSH1 0x1 PUSH1 0x40 SHL SUB DUP2 GT PUSH2 0xC32 JUMPI PUSH2 0xFC3 SWAP1 CALLDATASIZE SWAP1 PUSH1 0x4 ADD PUSH2 0x1E33 JUMP JUMPDEST SWAP2 SWAP1 PUSH1 0x44 CALLDATALOAD PUSH1 0x1 PUSH1 0x1 PUSH1 0x40 SHL SUB DUP2 GT PUSH2 0xC32 JUMPI PUSH2 0xFE4 SWAP1 CALLDATASIZE SWAP1 PUSH1 0x4 ADD PUSH2 0x1E33 JUMP JUMPDEST SWAP1 SWAP2 PUSH1 0x64 CALLDATALOAD PUSH1 0x1 PUSH1 0x1 PUSH1 0x40 SHL SUB DUP2 GT PUSH2 0xC32 JUMPI PUSH2 0x1005 SWAP1 CALLDATASIZE SWAP1 PUSH1 0x4 ADD PUSH2 0x1E33 JUMP JUMPDEST SWAP1 PUSH2 0x1E0 MSTORE SWAP4 PUSH1 0x84 CALLDATALOAD PUSH1 0x1 PUSH1 0x1 PUSH1 0x40 SHL SUB DUP2 GT PUSH2 0xC32 JUMPI PUSH2 0x102A SWAP1 CALLDATASIZE SWAP1 PUSH1 0x4 ADD PUSH2 0x1E33 JUMP JUMPDEST PUSH1 0xC0 MSTORE PUSH2 0x100 MSTORE PUSH2 0xFFFF PUSH1 0xE4 CALLDATALOAD AND PUSH1 0xE4 CALLDATALOAD SUB PUSH2 0xC32 JUMPI PUSH2 0x104 CALLDATALOAD PUSH1 0x1 PUSH1 0x1 PUSH1 0x40 SHL SUB DUP2 GT PUSH2 0xC32 JUMPI PUSH2 0x1060 SWAP1 CALLDATASIZE SWAP1 PUSH1 0x4 ADD PUSH2 0x1E33 JUMP JUMPDEST PUSH2 0x120 MSTORE PUSH2 0x140 MSTORE PUSH2 0x124 CALLDATALOAD PUSH1 0x1 PUSH1 0x1 PUSH1 0x40 SHL SUB DUP2 GT PUSH2 0xC32 JUMPI PUSH2 0x1088 SWAP1 CALLDATASIZE SWAP1 PUSH1 0x4 ADD PUSH2 0x1E33 JUMP JUMPDEST PUSH2 0x1A0 MSTORE PUSH2 0x1C0 MSTORE PUSH2 0x160 MLOAD ISZERO PUSH2 0x1D39 JUMPI DUP6 ISZERO PUSH2 0x1D01 JUMPI PUSH2 0x1A0 MLOAD ISZERO PUSH2 0x1CC7 JUMPI PUSH2 0x144 CALLDATALOAD ISZERO PUSH2 0x1C8A JUMPI PUSH2 0x10C2 CALLDATASIZE PUSH2 0x160 MLOAD PUSH2 0x180 MLOAD PUSH2 0x2060 JUMP JUMPDEST PUSH2 0x10CD CALLDATASIZE DUP9 DUP6 PUSH2 0x2060 JUMP JUMPDEST PUSH2 0x10D8 CALLDATASIZE DUP7 DUP9 PUSH2 0x2060 JUMP JUMPDEST PUSH1 0xE0 MSTORE PUSH2 0x10E9 CALLDATASIZE DUP9 PUSH2 0x1E0 MLOAD PUSH2 0x2060 JUMP JUMPDEST PUSH2 0x10F9 CALLDATASIZE PUSH1 0xC0 MLOAD PUSH2 0x100 MLOAD PUSH2 0x2060 JUMP JUMPDEST PUSH2 0x110A CALLDATASIZE PUSH2 0x120 MLOAD PUSH2 0x140 MLOAD PUSH2 0x2060 JUMP JUMPDEST SWAP2 PUSH2 0x111C CALLDATASIZE PUSH2 0x1A0 MLOAD PUSH2 0x1C0 MLOAD PUSH2 0x2060 JUMP JUMPDEST SWAP4 PUSH1 0xE0 MLOAD MLOAD ISZERO PUSH2 0x1C52 JUMPI DUP3 MLOAD ISZERO PUSH2 0x1C1C JUMPI TIMESTAMP PUSH1 0xA4 CALLDATALOAD GT ISZERO PUSH2 0x1BE5 JUMPI PUSH0 SLOAD PUSH1 0xA0 DUP2 SWAP1 MSTORE PUSH0 NOT EQ PUSH2 0x1BD2 JUMPI PUSH1 0x1 PUSH1 0xA0 MLOAD ADD PUSH0 SSTORE PUSH1 0x40 MLOAD SWAP6 PUSH2 0x115A DUP8 PUSH2 0x2008 JUMP JUMPDEST PUSH1 0xA0 MLOAD DUP8 MSTORE PUSH1 0x20 DUP8 ADD MSTORE PUSH1 0x40 DUP7 ADD MSTORE PUSH1 0xE0 MLOAD PUSH1 0x60 DUP7 ADD MSTORE PUSH1 0x80 DUP6 ADD MSTORE PUSH1 0xA0 DUP5 ADD MSTORE PUSH1 0xA4 CALLDATALOAD PUSH1 0xC0 DUP5 ADD MSTORE TIMESTAMP PUSH1 0xE0 DUP5 ADD MSTORE PUSH0 PUSH2 0x100 DUP5 ADD MSTORE CALLER PUSH2 0x120 DUP5 ADD MSTORE PUSH1 0xC4 CALLDATALOAD PUSH2 0x140 DUP5 ADD MSTORE PUSH2 0xFFFF PUSH1 0xE4 CALLDATALOAD AND PUSH2 0x160 DUP5 ADD MSTORE PUSH2 0x180 DUP4 ADD MSTORE PUSH2 0x1A0 DUP3 ADD MSTORE PUSH2 0x144 CALLDATALOAD PUSH2 0x1C0 DUP3 ADD MSTORE PUSH1 0xA0 MLOAD PUSH0 MSTORE PUSH1 0x2 PUSH1 0x20 MSTORE PUSH1 0x40 PUSH0 KECCAK256 SWAP1 DUP1 MLOAD DUP3 SSTORE PUSH1 0x20 DUP2 ADD MLOAD DUP1 MLOAD SWAP1 PUSH1 0x1 PUSH1 0x1 PUSH1 0x40 SHL SUB DUP3 GT PUSH2 0x16F6 JUMPI DUP2 SWAP1 PUSH2 0x11FB PUSH1 0x1 DUP7 ADD SLOAD PUSH2 0x2132 JUMP JUMPDEST PUSH1 0x1F DUP2 GT PUSH2 0x1B82 JUMPI JUMPDEST POP PUSH1 0x20 SWAP1 PUSH1 0x1F DUP4 GT PUSH1 0x1 EQ PUSH2 0x1B14 JUMPI PUSH0 SWAP3 PUSH2 0x1B09 JUMPI JUMPDEST POP POP DUP2 PUSH1 0x1 SHL SWAP2 PUSH0 NOT SWAP1 PUSH1 0x3 SHL SHR NOT AND OR PUSH1 0x1 DUP4 ADD SSTORE JUMPDEST PUSH1 0x40 DUP2 ADD MLOAD DUP1 MLOAD SWAP1 PUSH1 0x1 PUSH1 0x1 PUSH1 0x40 SHL SUB DUP3 GT PUSH2 0x16F6 JUMPI DUP2 SWAP1 PUSH2 0x1256 PUSH1 0x2 DUP7 ADD SLOAD PUSH2 0x2132 JUMP JUMPDEST PUSH1 0x1F DUP2 GT PUSH2 0x1AB9 JUMPI JUMPDEST POP PUSH1 0x20 SWAP1 PUSH1 0x1F DUP4 GT PUSH1 0x1 EQ PUSH2 0x1A4B JUMPI PUSH0 SWAP3 PUSH2 0x1A40 JUMPI JUMPDEST POP POP DUP2 PUSH1 0x1 SHL SWAP2 PUSH0 NOT SWAP1 PUSH1 0x3 SHL SHR NOT AND OR PUSH1 0x2 DUP4 ADD SSTORE JUMPDEST PUSH1 0x60 DUP2 ADD MLOAD DUP1 MLOAD SWAP1 PUSH1 0x1 PUSH1 0x1 PUSH1 0x40 SHL SUB DUP3 GT PUSH2 0x16F6 JUMPI DUP2 SWAP1 PUSH2 0x12B1 PUSH1 0x3 DUP7 ADD SLOAD PUSH2 0x2132 JUMP JUMPDEST PUSH1 0x1F DUP2 GT PUSH2 0x19F0 JUMPI JUMPDEST POP PUSH1 0x20 SWAP1 PUSH1 0x1F DUP4 GT PUSH1 0x1 EQ PUSH2 0x1982 JUMPI PUSH0 SWAP3 PUSH2 0x1977 JUMPI JUMPDEST POP POP DUP2 PUSH1 0x1 SHL SWAP2 PUSH0 NOT SWAP1 PUSH1 0x3 SHL SHR NOT AND OR PUSH1 0x3 DUP4 ADD SSTORE JUMPDEST PUSH1 0x80 DUP2 ADD MLOAD DUP1 MLOAD SWAP1 PUSH1 0x1 PUSH1 0x1 PUSH1 0x40 SHL SUB DUP3 GT PUSH2 0x16F6 JUMPI DUP2 SWAP1 PUSH2 0x130C PUSH1 0x4 DUP7 ADD SLOAD PUSH2 0x2132 JUMP JUMPDEST PUSH1 0x1F DUP2 GT PUSH2 0x1927 JUMPI JUMPDEST POP PUSH1 0x20 SWAP1 PUSH1 0x1F DUP4 GT PUSH1 0x1 EQ PUSH2 0x18B9 JUMPI PUSH0 SWAP3 PUSH2 0x18AE JUMPI JUMPDEST POP POP DUP2 PUSH1 0x1 SHL SWAP2 PUSH0 NOT SWAP1 PUSH1 0x3 SHL SHR NOT AND OR PUSH1 0x4 DUP4 ADD SSTORE JUMPDEST PUSH1 0xA0 DUP2 ADD MLOAD DUP1 MLOAD SWAP1 PUSH1 0x1 PUSH1 0x1 PUSH1 0x40 SHL SUB DUP3 GT PUSH2 0x16F6 JUMPI DUP2 SWAP1 PUSH2 0x1367 PUSH1 0x5 DUP7 ADD SLOAD PUSH2 0x2132 JUMP JUMPDEST PUSH1 0x1F DUP2 GT PUSH2 0x185E JUMPI JUMPDEST POP PUSH1 0x20 SWAP1 PUSH1 0x1F DUP4 GT PUSH1 0x1 EQ PUSH2 0x17F0 JUMPI PUSH0 SWAP3 PUSH2 0x17E5 JUMPI JUMPDEST POP POP DUP2 PUSH1 0x1 SHL SWAP2 PUSH0 NOT SWAP1 PUSH1 0x3 SHL SHR NOT AND OR PUSH1 0x5 DUP4 ADD SSTORE JUMPDEST PUSH1 0xC0 DUP2 ADD MLOAD PUSH1 0x6 DUP4 ADD SSTORE PUSH1 0xE0 DUP2 ADD MLOAD PUSH1 0x7 DUP4 ADD SSTORE PUSH1 0x8 DUP3 ADD PUSH2 0x100 DUP3 ADD MLOAD PUSH1 0x4 DUP2 LT ISZERO PUSH2 0x17D2 JUMPI PUSH2 0x13CE SWAP1 DUP3 PUSH2 0x1FF0 JUMP JUMPDEST PUSH2 0x120 DUP3 ADD MLOAD DUP2 SLOAD PUSH2 0x100 PUSH1 0x1 PUSH1 0xA8 SHL SUB NOT AND PUSH1 0x8 SWAP2 SWAP1 SWAP2 SHL PUSH2 0x100 PUSH1 0x1 PUSH1 0xA8 SHL SUB AND OR SWAP1 SSTORE PUSH2 0x140 DUP2 ADD MLOAD PUSH1 0x9 DUP4 ADD SSTORE PUSH2 0x160 DUP2 ADD MLOAD PUSH1 0xA DUP4 ADD DUP1 SLOAD PUSH2 0xFFFF NOT AND PUSH2 0xFFFF SWAP3 SWAP1 SWAP3 AND SWAP2 SWAP1 SWAP2 OR SWAP1 SSTORE PUSH2 0x180 DUP2 ADD MLOAD DUP1 MLOAD SWAP1 PUSH1 0x1 PUSH1 0x1 PUSH1 0x40 SHL SUB DUP3 GT PUSH2 0x16F6 JUMPI DUP2 SWAP1 PUSH2 0x1443 PUSH1 0xB DUP7 ADD SLOAD PUSH2 0x2132 JUMP JUMPDEST PUSH1 0x1F DUP2 GT PUSH2 0x1782 JUMPI JUMPDEST POP PUSH1 0x20 SWAP1 PUSH1 0x1F DUP4 GT PUSH1 0x1 EQ PUSH2 0x1714 JUMPI PUSH0 SWAP3 PUSH2 0x1709 JUMPI JUMPDEST POP POP DUP2 PUSH1 0x1 SHL SWAP2 PUSH0 NOT SWAP1 PUSH1 0x3 SHL SHR NOT AND OR PUSH1 0xB DUP4 ADD SSTORE JUMPDEST PUSH2 0x1A0 DUP2 ADD MLOAD DUP1 MLOAD SWAP1 PUSH1 0x1 PUSH1 0x1 PUSH1 0x40 SHL SUB DUP3 GT PUSH2 0x16F6 JUMPI PUSH2 0x149D PUSH1 0xC DUP6 ADD SLOAD PUSH2 0x2132 JUMP JUMPDEST PUSH1 0x1F DUP2 GT PUSH2 0x16B2 JUMPI JUMPDEST POP PUSH1 0x20 SWAP1 PUSH1 0x1F DUP4 GT PUSH1 0x1 EQ PUSH2 0x1640 JUMPI SWAP2 DUP1 PUSH1 0xD SWAP5 SWAP3 PUSH2 0x1C0 SWAP5 PUSH0 SWAP3 PUSH2 0x1635 JUMPI JUMPDEST POP POP DUP2 PUSH1 0x1 SHL SWAP2 PUSH0 NOT SWAP1 PUSH1 0x3 SHL SHR NOT AND OR PUSH1 0xC DUP6 ADD SSTORE JUMPDEST ADD MLOAD SWAP2 ADD SSTORE PUSH1 0x1 SLOAD PUSH1 0x80 MSTORE PUSH1 0x1 PUSH1 0x40 SHL PUSH1 0x80 MLOAD LT ISZERO PUSH2 0x1622 JUMPI POP SWAP3 PUSH2 0x1574 PUSH2 0x159A SWAP4 PUSH2 0x1586 SWAP4 PUSH2 0x1566 PUSH2 0x15CC SWAP8 PUSH1 0x1 PUSH1 0x80 MLOAD ADD PUSH1 0x1 SSTORE PUSH2 0x153A PUSH2 0x1521 PUSH1 0x80 MLOAD PUSH2 0x222F JUMP JUMPDEST PUSH1 0xA0 MLOAD DUP3 SLOAD PUSH0 NOT PUSH1 0x3 SWAP4 SWAP1 SWAP4 SHL SWAP3 DUP4 SHL NOT AND SWAP2 SHL OR SWAP1 SSTORE JUMP JUMPDEST PUSH1 0x40 MLOAD SWAP10 PUSH2 0x140 DUP12 MSTORE PUSH2 0x1558 PUSH2 0x140 DUP13 ADD PUSH2 0x160 MLOAD PUSH2 0x180 MLOAD PUSH2 0x20A5 JUMP JUMPDEST SWAP2 DUP12 DUP4 SUB PUSH1 0x20 DUP14 ADD MSTORE PUSH2 0x20A5 JUMP JUMPDEST SWAP2 DUP9 DUP4 SUB PUSH1 0x40 DUP11 ADD MSTORE PUSH2 0x20A5 JUMP JUMPDEST SWAP1 DUP6 DUP3 SUB PUSH1 0x60 DUP8 ADD MSTORE PUSH2 0x1E0 MLOAD PUSH2 0x20A5 JUMP JUMPDEST DUP4 DUP2 SUB PUSH1 0x80 DUP6 ADD MSTORE PUSH1 0xC0 MLOAD PUSH2 0x100 MLOAD PUSH2 0x20A5 JUMP JUMPDEST PUSH1 0xA4 CALLDATALOAD PUSH1 0xA0 DUP5 ADD MSTORE PUSH1 0xC4 CALLDATALOAD PUSH1 0xC0 DUP5 ADD MSTORE PUSH2 0xFFFF PUSH1 0xE4 CALLDATALOAD AND PUSH1 0xE0 DUP5 ADD MSTORE DUP3 DUP2 SUB PUSH2 0x100 DUP5 ADD MSTORE PUSH2 0x120 MLOAD PUSH2 0x140 MLOAD PUSH2 0x20A5 JUMP JUMPDEST SWAP1 DUP1 DUP3 SUB PUSH2 0x120 DUP3 ADD MSTORE CALLER SWAP2 PUSH32 0x64E664C1777EA4CB70135B71E094C35D9B2AA86C69DF2EB009B4F984DCD34F54 PUSH2 0x144 CALLDATALOAD SWAP3 DUP1 PUSH2 0x1613 PUSH1 0xA0 MLOAD SWAP5 PUSH2 0x1A0 MLOAD PUSH2 0x1C0 MLOAD PUSH2 0x20A5 JUMP JUMPDEST SUB SWAP1 LOG4 PUSH1 0x20 PUSH1 0x40 MLOAD PUSH1 0xA0 MLOAD DUP2 MSTORE RETURN JUMPDEST PUSH4 0x4E487B71 PUSH1 0xE0 SHL PUSH0 SWAP1 DUP2 MSTORE PUSH1 0x41 PUSH1 0x4 MSTORE REVERT JUMPDEST ADD MLOAD SWAP1 POP DUP13 DUP1 PUSH2 0x14C6 JUMP JUMPDEST SWAP1 PUSH1 0xC DUP6 ADD PUSH0 MSTORE PUSH1 0x20 PUSH0 KECCAK256 SWAP2 PUSH0 JUMPDEST PUSH1 0x1F NOT DUP6 AND DUP2 LT PUSH2 0x169A JUMPI POP SWAP3 PUSH1 0xD SWAP5 SWAP3 PUSH1 0x1 SWAP3 PUSH2 0x1C0 SWAP6 DUP4 PUSH1 0x1F NOT DUP2 AND LT PUSH2 0x1682 JUMPI JUMPDEST POP POP POP DUP2 SHL ADD PUSH1 0xC DUP6 ADD SSTORE PUSH2 0x14DD JUMP JUMPDEST ADD MLOAD PUSH0 NOT PUSH1 0xF8 DUP5 PUSH1 0x3 SHL AND SHR NOT AND SWAP1 SSTORE DUP13 DUP1 DUP1 PUSH2 0x1672 JUMP JUMPDEST SWAP2 SWAP3 PUSH1 0x20 PUSH1 0x1 DUP2 SWAP3 DUP7 DUP6 ADD MLOAD DUP2 SSTORE ADD SWAP5 ADD SWAP3 ADD PUSH2 0x164E JUMP JUMPDEST PUSH1 0xC DUP6 ADD PUSH0 MSTORE PUSH1 0x20 PUSH0 KECCAK256 PUSH1 0x1F DUP5 ADD PUSH1 0x5 SHR DUP2 ADD PUSH1 0x20 DUP6 LT PUSH2 0x16EF JUMPI JUMPDEST PUSH1 0x1F DUP4 ADD PUSH1 0x5 SHR DUP3 ADD DUP2 LT PUSH2 0x16E4 JUMPI POP POP PUSH2 0x14A6 JUMP JUMPDEST PUSH0 DUP2 SSTORE PUSH1 0x1 ADD PUSH2 0x16CE JUMP JUMPDEST POP DUP1 PUSH2 0x16CE JUMP JUMPDEST DUP5 PUSH4 0x4E487B71 PUSH1 0xE0 SHL PUSH0 MSTORE PUSH1 0x41 PUSH1 0x4 MSTORE PUSH0 REVERT JUMPDEST ADD MLOAD SWAP1 POP DUP11 DUP1 PUSH2 0x1462 JUMP JUMPDEST SWAP3 POP PUSH1 0xB DUP6 ADD PUSH0 MSTORE PUSH1 0x20 PUSH0 KECCAK256 SWAP1 PUSH0 SWAP4 JUMPDEST PUSH1 0x1F NOT DUP5 AND DUP6 LT PUSH2 0x1767 JUMPI PUSH1 0x1 SWAP5 POP DUP4 PUSH1 0x1F NOT DUP2 AND LT PUSH2 0x174F JUMPI JUMPDEST POP POP POP DUP2 SHL ADD PUSH1 0xB DUP4 ADD SSTORE PUSH2 0x1479 JUMP JUMPDEST ADD MLOAD PUSH0 NOT PUSH1 0xF8 DUP5 PUSH1 0x3 SHL AND SHR NOT AND SWAP1 SSTORE DUP11 DUP1 DUP1 PUSH2 0x173F JUMP JUMPDEST DUP2 DUP2 ADD MLOAD DUP4 SSTORE PUSH1 0x20 SWAP5 DUP6 ADD SWAP5 PUSH1 0x1 SWAP1 SWAP4 ADD SWAP3 SWAP1 SWAP2 ADD SWAP1 PUSH2 0x1724 JUMP JUMPDEST SWAP1 SWAP2 POP PUSH1 0xB DUP6 ADD PUSH0 MSTORE PUSH1 0x20 PUSH0 KECCAK256 PUSH1 0x1F DUP5 ADD PUSH1 0x5 SHR DUP2 ADD PUSH1 0x20 DUP6 LT PUSH2 0x17CB JUMPI JUMPDEST SWAP1 DUP5 SWAP4 SWAP3 SWAP2 JUMPDEST PUSH1 0x1F DUP4 ADD PUSH1 0x5 SHR DUP3 ADD DUP2 LT PUSH2 0x17BD JUMPI POP POP PUSH2 0x144C JUMP JUMPDEST PUSH0 DUP2 SSTORE DUP6 SWAP5 POP PUSH1 0x1 ADD PUSH2 0x17A7 JUMP JUMPDEST POP DUP1 PUSH2 0x17A1 JUMP JUMPDEST DUP5 PUSH4 0x4E487B71 PUSH1 0xE0 SHL PUSH0 MSTORE PUSH1 0x21 PUSH1 0x4 MSTORE PUSH0 REVERT JUMPDEST ADD MLOAD SWAP1 POP DUP11 DUP1 PUSH2 0x1386 JUMP JUMPDEST SWAP3 POP PUSH1 0x5 DUP6 ADD PUSH0 MSTORE PUSH1 0x20 PUSH0 KECCAK256 SWAP1 PUSH0 SWAP4 JUMPDEST PUSH1 0x1F NOT DUP5 AND DUP6 LT PUSH2 0x1843 JUMPI PUSH1 0x1 SWAP5 POP DUP4 PUSH1 0x1F NOT DUP2 AND LT PUSH2 0x182B JUMPI JUMPDEST POP POP POP DUP2 SHL ADD PUSH1 0x5 DUP4 ADD SSTORE PUSH2 0x139D JUMP JUMPDEST ADD MLOAD PUSH0 NOT PUSH1 0xF8 DUP5 PUSH1 0x3 SHL AND SHR NOT AND SWAP1 SSTORE DUP11 DUP1 DUP1 PUSH2 0x181B JUMP JUMPDEST DUP2 DUP2 ADD MLOAD DUP4 SSTORE PUSH1 0x20 SWAP5 DUP6 ADD SWAP5 PUSH1 0x1 SWAP1 SWAP4 ADD SWAP3 SWAP1 SWAP2 ADD SWAP1 PUSH2 0x1800 JUMP JUMPDEST SWAP1 SWAP2 POP PUSH1 0x5 DUP6 ADD PUSH0 MSTORE PUSH1 0x20 PUSH0 KECCAK256 PUSH1 0x1F DUP5 ADD PUSH1 0x5 SHR DUP2 ADD PUSH1 0x20 DUP6 LT PUSH2 0x18A7 JUMPI JUMPDEST SWAP1 DUP5 SWAP4 SWAP3 SWAP2 JUMPDEST PUSH1 0x1F DUP4 ADD PUSH1 0x5 SHR DUP3 ADD DUP2 LT PUSH2 0x1899 JUMPI POP POP PUSH2 0x1370 JUMP JUMPDEST PUSH0 DUP2 SSTORE DUP6 SWAP5 POP PUSH1 0x1 ADD PUSH2 0x1883 JUMP JUMPDEST POP DUP1 PUSH2 0x187D JUMP JUMPDEST ADD MLOAD SWAP1 POP DUP11 DUP1 PUSH2 0x132B JUMP JUMPDEST SWAP3 POP PUSH1 0x4 DUP6 ADD PUSH0 MSTORE PUSH1 0x20 PUSH0 KECCAK256 SWAP1 PUSH0 SWAP4 JUMPDEST PUSH1 0x1F NOT DUP5 AND DUP6 LT PUSH2 0x190C JUMPI PUSH1 0x1 SWAP5 POP DUP4 PUSH1 0x1F NOT DUP2 AND LT PUSH2 0x18F4 JUMPI JUMPDEST POP POP POP DUP2 SHL ADD PUSH1 0x4 DUP4 ADD SSTORE PUSH2 0x1342 JUMP JUMPDEST ADD MLOAD PUSH0 NOT PUSH1 0xF8 DUP5 PUSH1 0x3 SHL AND SHR NOT AND SWAP1 SSTORE DUP11 DUP1 DUP1 PUSH2 0x18E4 JUMP JUMPDEST DUP2 DUP2 ADD MLOAD DUP4 SSTORE PUSH1 0x20 SWAP5 DUP6 ADD SWAP5 PUSH1 0x1 SWAP1 SWAP4 ADD SWAP3 SWAP1 SWAP2 ADD SWAP1 PUSH2 0x18C9 JUMP JUMPDEST SWAP1 SWAP2 POP PUSH1 0x4 DUP6 ADD PUSH0 MSTORE PUSH1 0x20 PUSH0 KECCAK256 PUSH1 0x1F DUP5 ADD PUSH1 0x5 SHR DUP2 ADD PUSH1 0x20 DUP6 LT PUSH2 0x1970 JUMPI JUMPDEST SWAP1 DUP5 SWAP4 SWAP3 SWAP2 JUMPDEST PUSH1 0x1F DUP4 ADD PUSH1 0x5 SHR DUP3 ADD DUP2 LT PUSH2 0x1962 JUMPI POP POP PUSH2 0x1315 JUMP JUMPDEST PUSH0 DUP2 SSTORE DUP6 SWAP5 POP PUSH1 0x1 ADD PUSH2 0x194C JUMP JUMPDEST POP DUP1 PUSH2 0x1946 JUMP JUMPDEST ADD MLOAD SWAP1 POP DUP11 DUP1 PUSH2 0x12D0 JUMP JUMPDEST SWAP3 POP PUSH1 0x3 DUP6 ADD PUSH0 MSTORE PUSH1 0x20 PUSH0 KECCAK256 SWAP1 PUSH0 SWAP4 JUMPDEST PUSH1 0x1F NOT DUP5 AND DUP6 LT PUSH2 0x19D5 JUMPI PUSH1 0x1 SWAP5 POP DUP4 PUSH1 0x1F NOT DUP2 AND LT PUSH2 0x19BD JUMPI JUMPDEST POP POP POP DUP2 SHL ADD PUSH1 0x3 DUP4 ADD SSTORE PUSH2 0x12E7 JUMP JUMPDEST ADD MLOAD PUSH0 NOT PUSH1 0xF8 DUP5 PUSH1 0x3 SHL AND SHR NOT AND SWAP1 SSTORE DUP11 DUP1 DUP1 PUSH2 0x19AD JUMP JUMPDEST DUP2 DUP2 ADD MLOAD DUP4 SSTORE PUSH1 0x20 SWAP5 DUP6 ADD SWAP5 PUSH1 0x1 SWAP1 SWAP4 ADD SWAP3 SWAP1 SWAP2 ADD SWAP1 PUSH2 0x1992 JUMP JUMPDEST SWAP1 SWAP2 POP PUSH1 0x3 DUP6 ADD PUSH0 MSTORE PUSH1 0x20 PUSH0 KECCAK256 PUSH1 0x1F DUP5 ADD PUSH1 0x5 SHR DUP2 ADD PUSH1 0x20 DUP6 LT PUSH2 0x1A39 JUMPI JUMPDEST SWAP1 DUP5 SWAP4 SWAP3 SWAP2 JUMPDEST PUSH1 0x1F DUP4 ADD PUSH1 0x5 SHR DUP3 ADD DUP2 LT PUSH2 0x1A2B JUMPI POP POP PUSH2 0x12BA JUMP JUMPDEST PUSH0 DUP2 SSTORE DUP6 SWAP5 POP PUSH1 0x1 ADD PUSH2 0x1A15 JUMP JUMPDEST POP DUP1 PUSH2 0x1A0F JUMP JUMPDEST ADD MLOAD SWAP1 POP DUP11 DUP1 PUSH2 0x1275 JUMP JUMPDEST SWAP3 POP PUSH1 0x2 DUP6 ADD PUSH0 MSTORE PUSH1 0x20 PUSH0 KECCAK256 SWAP1 PUSH0 SWAP4 JUMPDEST PUSH1 0x1F NOT DUP5 AND DUP6 LT PUSH2 0x1A9E JUMPI PUSH1 0x1 SWAP5 POP DUP4 PUSH1 0x1F NOT DUP2 AND LT PUSH2 0x1A86 JUMPI JUMPDEST POP POP POP DUP2 SHL ADD PUSH1 0x2 DUP4 ADD SSTORE PUSH2 0x128C JUMP JUMPDEST ADD MLOAD PUSH0 NOT PUSH1 0xF8 DUP5 PUSH1 0x3 SHL AND SHR NOT AND SWAP1 SSTORE DUP11 DUP1 DUP1 PUSH2 0x1A76 JUMP JUMPDEST DUP2 DUP2 ADD MLOAD DUP4 SSTORE PUSH1 0x20 SWAP5 DUP6 ADD SWAP5 PUSH1 0x1 SWAP1 SWAP4 ADD SWAP3 SWAP1 SWAP2 ADD SWAP1 PUSH2 0x1A5B JUMP JUMPDEST SWAP1 SWAP2 POP PUSH1 0x2 DUP6 ADD PUSH0 MSTORE PUSH1 0x20 PUSH0 KECCAK256 PUSH1 0x1F DUP5 ADD PUSH1 0x5 SHR DUP2 ADD PUSH1 0x20 DUP6 LT PUSH2 0x1B02 JUMPI JUMPDEST SWAP1 DUP5 SWAP4 SWAP3 SWAP2 JUMPDEST PUSH1 0x1F DUP4 ADD PUSH1 0x5 SHR DUP3 ADD DUP2 LT PUSH2 0x1AF4 JUMPI POP POP PUSH2 0x125F JUMP JUMPDEST PUSH0 DUP2 SSTORE DUP6 SWAP5 POP PUSH1 0x1 ADD PUSH2 0x1ADE JUMP JUMPDEST POP DUP1 PUSH2 0x1AD8 JUMP JUMPDEST ADD MLOAD SWAP1 POP DUP11 DUP1 PUSH2 0x121A JUMP JUMPDEST SWAP3 POP PUSH1 0x1 DUP6 ADD PUSH0 MSTORE PUSH1 0x20 PUSH0 KECCAK256 SWAP1 PUSH0 SWAP4 JUMPDEST PUSH1 0x1F NOT DUP5 AND DUP6 LT PUSH2 0x1B67 JUMPI PUSH1 0x1 SWAP5 POP DUP4 PUSH1 0x1F NOT DUP2 AND LT PUSH2 0x1B4F JUMPI JUMPDEST POP POP POP DUP2 SHL ADD PUSH1 0x1 DUP4 ADD SSTORE PUSH2 0x1231 JUMP JUMPDEST ADD MLOAD PUSH0 NOT PUSH1 0xF8 DUP5 PUSH1 0x3 SHL AND SHR NOT AND SWAP1 SSTORE DUP11 DUP1 DUP1 PUSH2 0x1B3F JUMP JUMPDEST DUP2 DUP2 ADD MLOAD DUP4 SSTORE PUSH1 0x20 SWAP5 DUP6 ADD SWAP5 PUSH1 0x1 SWAP1 SWAP4 ADD SWAP3 SWAP1 SWAP2 ADD SWAP1 PUSH2 0x1B24 JUMP JUMPDEST SWAP1 SWAP2 POP PUSH1 0x1 DUP6 ADD PUSH0 MSTORE PUSH1 0x20 PUSH0 KECCAK256 PUSH1 0x1F DUP5 ADD PUSH1 0x5 SHR DUP2 ADD PUSH1 0x20 DUP6 LT PUSH2 0x1BCB JUMPI JUMPDEST SWAP1 DUP5 SWAP4 SWAP3 SWAP2 JUMPDEST PUSH1 0x1F DUP4 ADD PUSH1 0x5 SHR DUP3 ADD DUP2 LT PUSH2 0x1BBD JUMPI POP POP PUSH2 0x1204 JUMP JUMPDEST PUSH0 DUP2 SSTORE DUP6 SWAP5 POP PUSH1 0x1 ADD PUSH2 0x1BA7 JUMP JUMPDEST POP DUP1 PUSH2 0x1BA1 JUMP JUMPDEST DUP7 PUSH4 0x4E487B71 PUSH1 0xE0 SHL PUSH0 MSTORE PUSH1 0x11 PUSH1 0x4 MSTORE PUSH0 REVERT JUMPDEST PUSH1 0x40 MLOAD PUSH3 0x461BCD PUSH1 0xE5 SHL DUP2 MSTORE PUSH1 0x20 PUSH1 0x4 DUP3 ADD MSTORE PUSH1 0x10 DUP2 DUP10 ADD MSTORE PUSH16 0x111150511312539157D25397D41054D5 PUSH1 0x82 SHL PUSH1 0x44 DUP3 ADD MSTORE PUSH1 0x64 SWAP1 REVERT JUMPDEST PUSH1 0x40 MLOAD PUSH3 0x461BCD PUSH1 0xE5 SHL DUP2 MSTORE PUSH1 0x20 PUSH1 0x4 DUP3 ADD MSTORE PUSH1 0xF DUP2 DUP10 ADD MSTORE PUSH15 0x14D3D55490D157D491545552549151 PUSH1 0x8A SHL PUSH1 0x44 DUP3 ADD MSTORE PUSH1 0x64 SWAP1 REVERT JUMPDEST PUSH1 0x40 MLOAD PUSH3 0x461BCD PUSH1 0xE5 SHL DUP2 MSTORE PUSH1 0x20 PUSH1 0x4 DUP3 ADD MSTORE PUSH1 0x11 DUP2 DUP10 ADD MSTORE PUSH17 0x14555154D51253D397D491545552549151 PUSH1 0x7A SHL PUSH1 0x44 DUP3 ADD MSTORE PUSH1 0x64 SWAP1 REVERT JUMPDEST PUSH1 0x64 SWAP1 PUSH1 0x16 PUSH1 0x40 MLOAD SWAP2 PUSH3 0x461BCD PUSH1 0xE5 SHL DUP4 MSTORE PUSH1 0x20 PUSH1 0x4 DUP5 ADD MSTORE DUP3 ADD MSTORE PUSH22 0x135155105110551057D21054D217D491545552549151 PUSH1 0x52 SHL PUSH1 0x44 DUP3 ADD MSTORE REVERT JUMPDEST PUSH1 0x64 SWAP1 PUSH1 0x13 PUSH1 0x40 MLOAD SWAP2 PUSH3 0x461BCD PUSH1 0xE5 SHL DUP4 MSTORE PUSH1 0x20 PUSH1 0x4 DUP5 ADD MSTORE DUP3 ADD MSTORE PUSH19 0x13505492D15517D5549317D491545552549151 PUSH1 0x6A SHL PUSH1 0x44 DUP3 ADD MSTORE REVERT JUMPDEST PUSH1 0x64 SWAP1 PUSH1 0x11 PUSH1 0x40 MLOAD SWAP2 PUSH3 0x461BCD PUSH1 0xE5 SHL DUP4 MSTORE PUSH1 0x20 PUSH1 0x4 DUP5 ADD MSTORE DUP3 ADD MSTORE PUSH17 0x141310551193D49357D491545552549151 PUSH1 0x7A SHL PUSH1 0x44 DUP3 ADD MSTORE REVERT JUMPDEST PUSH1 0x64 SWAP1 PUSH1 0x14 PUSH1 0x40 MLOAD SWAP2 PUSH3 0x461BCD PUSH1 0xE5 SHL DUP4 MSTORE PUSH1 0x20 PUSH1 0x4 DUP5 ADD MSTORE DUP3 ADD MSTORE PUSH20 0x115615115493905317D25117D491545552549151 PUSH1 0x62 SHL PUSH1 0x44 DUP3 ADD MSTORE REVERT JUMPDEST CALLVALUE PUSH2 0xC32 JUMPI PUSH1 0x40 CALLDATASIZE PUSH1 0x3 NOT ADD SLT PUSH2 0xC32 JUMPI PUSH1 0x4 CALLDATALOAD PUSH1 0x24 CALLDATALOAD PUSH1 0x4 DUP2 LT ISZERO PUSH2 0xC32 JUMPI DUP2 PUSH0 MSTORE PUSH1 0x2 PUSH1 0x20 MSTORE PUSH1 0x8 PUSH1 0x40 PUSH0 KECCAK256 ADD PUSH1 0x1 DUP1 PUSH1 0xA0 SHL SUB DUP2 SLOAD PUSH1 0x8 SHR AND PUSH2 0x1DBB DUP2 ISZERO ISZERO PUSH2 0x1FB1 JUMP JUMPDEST CALLER SUB PUSH2 0x1DFF JUMPI DUP2 PUSH2 0x1DEF PUSH32 0xD067EBF1565B7B7F7E3C08CCB7F355DEFC06FD6A3E5E3DA1F0A43C8A235350AC SWAP4 PUSH1 0x20 SWAP4 PUSH2 0x1FF0 JUMP JUMPDEST PUSH2 0x1DFC PUSH1 0x40 MLOAD DUP1 SWAP3 PUSH2 0x1E9E JUMP JUMPDEST LOG2 STOP JUMPDEST PUSH1 0x40 MLOAD PUSH3 0x461BCD PUSH1 0xE5 SHL DUP2 MSTORE PUSH1 0x20 PUSH1 0x4 DUP3 ADD MSTORE PUSH1 0xC PUSH1 0x24 DUP3 ADD MSTORE PUSH12 0x27A7262CAFA1A922A0AA27A9 PUSH1 0xA1 SHL PUSH1 0x44 DUP3 ADD MSTORE PUSH1 0x64 SWAP1 REVERT JUMPDEST SWAP2 DUP2 PUSH1 0x1F DUP5 ADD SLT ISZERO PUSH2 0xC32 JUMPI DUP3 CALLDATALOAD SWAP2 PUSH1 0x1 PUSH1 0x1 PUSH1 0x40 SHL SUB DUP4 GT PUSH2 0xC32 JUMPI PUSH1 0x20 DUP4 DUP2 DUP7 ADD SWAP6 ADD ADD GT PUSH2 0xC32 JUMPI JUMP JUMPDEST SWAP2 SWAP1 DUP3 MLOAD SWAP3 DUP4 DUP3 MSTORE PUSH0 JUMPDEST DUP5 DUP2 LT PUSH2 0x1E8A JUMPI POP POP DUP3 PUSH0 PUSH1 0x20 DUP1 SWAP5 SWAP6 DUP5 ADD ADD MSTORE PUSH1 0x1F DUP1 NOT SWAP2 ADD AND ADD ADD SWAP1 JUMP JUMPDEST PUSH1 0x20 DUP2 DUP4 ADD DUP2 ADD MLOAD DUP5 DUP4 ADD DUP3 ADD MSTORE ADD PUSH2 0x1E6A JUMP JUMPDEST SWAP1 PUSH1 0x4 DUP3 LT ISZERO PUSH2 0x775 JUMPI MSTORE JUMP JUMPDEST SWAP1 PUSH2 0x1FA3 PUSH2 0x1F8F PUSH2 0x1F24 PUSH2 0x1F12 PUSH2 0x1F00 PUSH2 0x1EEE PUSH2 0x1EDC PUSH2 0x1E0 DUP10 MLOAD DUP10 MSTORE PUSH1 0x20 DUP11 ADD MLOAD SWAP1 DUP1 PUSH1 0x20 DUP12 ADD MSTORE DUP10 ADD SWAP1 PUSH2 0x1E60 JUMP JUMPDEST PUSH1 0x40 DUP10 ADD MLOAD DUP9 DUP3 SUB PUSH1 0x40 DUP11 ADD MSTORE PUSH2 0x1E60 JUMP JUMPDEST PUSH1 0x60 DUP9 ADD MLOAD DUP8 DUP3 SUB PUSH1 0x60 DUP10 ADD MSTORE PUSH2 0x1E60 JUMP JUMPDEST PUSH1 0x80 DUP8 ADD MLOAD DUP7 DUP3 SUB PUSH1 0x80 DUP9 ADD MSTORE PUSH2 0x1E60 JUMP JUMPDEST PUSH1 0xA0 DUP7 ADD MLOAD DUP6 DUP3 SUB PUSH1 0xA0 DUP8 ADD MSTORE PUSH2 0x1E60 JUMP JUMPDEST PUSH1 0xC0 DUP6 ADD MLOAD PUSH1 0xC0 DUP6 ADD MSTORE PUSH1 0xE0 DUP6 ADD MLOAD PUSH1 0xE0 DUP6 ADD MSTORE PUSH2 0x1F4B PUSH2 0x100 DUP1 DUP8 ADD MLOAD SWAP1 DUP7 ADD SWAP1 PUSH2 0x1E9E JUMP JUMPDEST PUSH2 0x120 DUP6 DUP2 ADD MLOAD PUSH1 0x1 PUSH1 0x1 PUSH1 0xA0 SHL SUB AND SWAP1 DUP6 ADD MSTORE PUSH2 0x140 DUP1 DUP7 ADD MLOAD SWAP1 DUP6 ADD MSTORE PUSH2 0x160 DUP1 DUP7 ADD MLOAD PUSH2 0xFFFF AND SWAP1 DUP6 ADD MSTORE PUSH2 0x180 DUP1 DUP7 ADD MLOAD DUP6 DUP4 SUB SWAP2 DUP7 ADD SWAP2 SWAP1 SWAP2 MSTORE PUSH2 0x1E60 JUMP JUMPDEST PUSH2 0x1A0 DUP1 DUP6 ADD MLOAD SWAP1 DUP5 DUP4 SUB SWAP1 DUP6 ADD MSTORE PUSH2 0x1E60 JUMP JUMPDEST SWAP2 PUSH2 0x1C0 DUP1 SWAP2 ADD MLOAD SWAP2 ADD MSTORE SWAP1 JUMP JUMPDEST ISZERO PUSH2 0x1FB8 JUMPI JUMP JUMPDEST PUSH1 0x40 MLOAD PUSH3 0x461BCD PUSH1 0xE5 SHL DUP2 MSTORE PUSH1 0x20 PUSH1 0x4 DUP3 ADD MSTORE PUSH1 0x10 PUSH1 0x24 DUP3 ADD MSTORE PUSH16 0x13505492D15517D393D517D193D55391 PUSH1 0x82 SHL PUSH1 0x44 DUP3 ADD MSTORE PUSH1 0x64 SWAP1 REVERT JUMPDEST SWAP1 PUSH1 0x4 DUP2 LT ISZERO PUSH2 0x775 JUMPI PUSH1 0xFF DUP1 NOT DUP4 SLOAD AND SWAP2 AND OR SWAP1 SSTORE JUMP JUMPDEST PUSH2 0x1E0 DUP2 ADD SWAP1 DUP2 LT PUSH1 0x1 PUSH1 0x1 PUSH1 0x40 SHL SUB DUP3 GT OR PUSH2 0x5D9 JUMPI PUSH1 0x40 MSTORE JUMP JUMPDEST PUSH1 0x20 DUP2 ADD SWAP1 DUP2 LT PUSH1 0x1 PUSH1 0x1 PUSH1 0x40 SHL SUB DUP3 GT OR PUSH2 0x5D9 JUMPI PUSH1 0x40 MSTORE JUMP JUMPDEST SWAP1 PUSH1 0x1F DUP1 NOT SWAP2 ADD AND DUP2 ADD SWAP1 DUP2 LT PUSH1 0x1 PUSH1 0x1 PUSH1 0x40 SHL SUB DUP3 GT OR PUSH2 0x5D9 JUMPI PUSH1 0x40 MSTORE JUMP JUMPDEST SWAP3 SWAP2 SWAP3 PUSH1 0x1 PUSH1 0x1 PUSH1 0x40 SHL SUB DUP3 GT PUSH2 0x5D9 JUMPI PUSH1 0x40 MLOAD SWAP2 PUSH2 0x2089 PUSH1 0x1F DUP3 ADD PUSH1 0x1F NOT AND PUSH1 0x20 ADD DUP5 PUSH2 0x203F JUMP JUMPDEST DUP3 SWAP5 DUP2 DUP5 MSTORE DUP2 DUP4 ADD GT PUSH2 0xC32 JUMPI DUP3 DUP2 PUSH1 0x20 SWAP4 DUP5 PUSH0 SWAP7 ADD CALLDATACOPY ADD ADD MSTORE JUMP JUMPDEST SWAP1 DUP1 PUSH1 0x20 SWAP4 SWAP3 DUP2 DUP5 MSTORE DUP5 DUP5 ADD CALLDATACOPY PUSH0 DUP3 DUP3 ADD DUP5 ADD MSTORE PUSH1 0x1F ADD PUSH1 0x1F NOT AND ADD ADD SWAP1 JUMP JUMPDEST PUSH1 0x40 MLOAD SWAP1 PUSH2 0x20D2 DUP3 PUSH2 0x2008 JUMP JUMPDEST PUSH0 PUSH2 0x1C0 DUP4 DUP3 DUP2 MSTORE PUSH1 0x60 DUP1 PUSH1 0x20 DUP4 ADD MSTORE DUP1 PUSH1 0x40 DUP4 ADD MSTORE DUP1 DUP1 DUP4 ADD MSTORE DUP1 PUSH1 0x80 DUP4 ADD MSTORE DUP1 PUSH1 0xA0 DUP4 ADD MSTORE DUP4 PUSH1 0xC0 DUP4 ADD MSTORE DUP4 PUSH1 0xE0 DUP4 ADD MSTORE DUP4 PUSH2 0x100 DUP4 ADD MSTORE DUP4 PUSH2 0x120 DUP4 ADD MSTORE DUP4 PUSH2 0x140 DUP4 ADD MSTORE DUP4 PUSH2 0x160 DUP4 ADD MSTORE DUP1 PUSH2 0x180 DUP4 ADD MSTORE PUSH2 0x1A0 DUP3 ADD MSTORE ADD MSTORE JUMP JUMPDEST SWAP1 PUSH1 0x1 DUP3 DUP2 SHR SWAP3 AND DUP1 ISZERO PUSH2 0x2160 JUMPI JUMPDEST PUSH1 0x20 DUP4 LT EQ PUSH2 0x214C JUMPI JUMP JUMPDEST PUSH4 0x4E487B71 PUSH1 0xE0 SHL PUSH0 MSTORE PUSH1 0x22 PUSH1 0x4 MSTORE PUSH1 0x24 PUSH0 REVERT JUMPDEST SWAP2 PUSH1 0x7F AND SWAP2 PUSH2 0x2141 JUMP JUMPDEST SWAP1 PUSH1 0x40 MLOAD SWAP2 DUP3 PUSH0 DUP3 SLOAD PUSH2 0x217C DUP2 PUSH2 0x2132 JUMP JUMPDEST SWAP1 DUP2 DUP5 MSTORE PUSH1 0x20 SWAP5 PUSH1 0x1 SWAP2 PUSH1 0x1 DUP2 AND SWAP1 DUP2 PUSH0 EQ PUSH2 0x21EA JUMPI POP PUSH1 0x1 EQ PUSH2 0x21AC JUMPI JUMPDEST POP POP POP PUSH2 0x21AA SWAP3 POP SUB DUP4 PUSH2 0x203F JUMP JUMPDEST JUMP JUMPDEST PUSH0 SWAP1 DUP2 MSTORE DUP6 DUP2 KECCAK256 SWAP6 SWAP4 POP SWAP2 SWAP1 JUMPDEST DUP2 DUP4 LT PUSH2 0x21D2 JUMPI POP POP PUSH2 0x21AA SWAP4 POP DUP3 ADD ADD PUSH0 DUP1 DUP1 PUSH2 0x219B JUMP JUMPDEST DUP6 SLOAD DUP9 DUP5 ADD DUP6 ADD MSTORE SWAP5 DUP6 ADD SWAP5 DUP8 SWAP5 POP SWAP2 DUP4 ADD SWAP2 PUSH2 0x21B9 JUMP JUMPDEST SWAP3 POP POP POP PUSH2 0x21AA SWAP5 SWAP3 POP PUSH1 0xFF NOT AND DUP3 DUP5 ADD MSTORE ISZERO ISZERO PUSH1 0x5 SHL DUP3 ADD ADD PUSH0 DUP1 DUP1 PUSH2 0x219B JUMP JUMPDEST PUSH1 0x4 DUP3 LT ISZERO PUSH2 0x775 JUMPI MSTORE JUMP JUMPDEST PUSH1 0x1 PUSH1 0x1 PUSH1 0x40 SHL SUB DUP2 GT PUSH2 0x5D9 JUMPI PUSH1 0x5 SHL PUSH1 0x20 ADD SWAP1 JUMP JUMPDEST PUSH1 0x1 SLOAD DUP2 LT ISZERO PUSH2 0x2264 JUMPI PUSH1 0x1 PUSH0 MSTORE PUSH32 0xB10E2D527612073B26EECDFD717E6A320CF44B4AFAC2B0732D9FCBE2B7FA0CF6 ADD SWAP1 PUSH0 SWAP1 JUMP JUMPDEST PUSH4 0x4E487B71 PUSH1 0xE0 SHL PUSH0 MSTORE PUSH1 0x32 PUSH1 0x4 MSTORE PUSH1 0x24 PUSH0 REVERT JUMPDEST DUP1 MLOAD DUP3 LT ISZERO PUSH2 0x2264 JUMPI PUSH1 0x20 SWAP2 PUSH1 0x5 SHL ADD ADD SWAP1 JUMP JUMPDEST SWAP6 SWAP2 SWAP3 PUSH2 0x22CE SWAP5 PUSH2 0x22B2 PUSH2 0x22C0 SWAP4 PUSH2 0x22E6 SWAP14 SWAP12 SWAP9 SWAP7 SWAP13 SWAP11 SWAP13 PUSH1 0xC0 DUP12 MSTORE PUSH1 0xC0 DUP12 ADD SWAP2 PUSH2 0x20A5 JUMP JUMPDEST SWAP2 DUP9 DUP4 SUB PUSH1 0x20 DUP11 ADD MSTORE PUSH2 0x20A5 JUMP JUMPDEST SWAP2 DUP6 DUP4 SUB PUSH1 0x40 DUP8 ADD MSTORE PUSH2 0x20A5 JUMP JUMPDEST SWAP5 PUSH1 0x60 DUP4 ADD MSTORE PUSH1 0x80 DUP3 ADD MSTORE PUSH1 0xA0 DUP2 DUP6 SUB SWAP2 ADD MSTORE PUSH2 0x20A5 JUMP JUMPDEST SWAP1 JUMP INVALID LOG2 PUSH5 0x6970667358 0x22 SLT KECCAK256 0x2F 0x4D 0x2F 0xAF DUP8 0x4C CHAINID CALLVALUE 0xB1 MSIZE 0xB4 0x29 0xE1 0xD6 0xA8 0x4D 0xC3 0x4F RETURNDATASIZE 0xDB REVERT 0xB4 SDIV 0x27 0xBA CALLDATASIZE CALLER CODECOPY 0xDB ADDRESS 0x4C ORIGIN PUSH5 0x736F6C6343 STOP ADDMOD XOR STOP CALLER "},"methodIdentifiers":{"createMarket(string,string,string,uint256,uint256,string)":"ef688d37","getMarket(uint256)":"eb44fdd3","getMarkets()":"ec2c9016","importExternalMarket(string,string,string,string,string,uint256,uint256,uint16,string,string,bytes32)":"b0b65852","updateMarketStatus(uint256,uint8)":"48d0eca2"}}}}}