{
  "_format": "hh3-artifact-1",
  "contractName": "MarketAuditRegistry",
  "sourceName": "contracts/MarketAuditRegistry.sol",
  "abi": [
    {
      "anonymous": false,
      "inputs": [
        {
          "indexed": true,
          "internalType": "uint256",
          "name": "auditTargetId",
          "type": "uint256"
        },
        {
          "indexed": false,
          "internalType": "string",
          "name": "title",
          "type": "string"
        },
        {
          "indexed": false,
          "internalType": "string",
          "name": "category",
          "type": "string"
        },
        {
          "indexed": false,
          "internalType": "string",
          "name": "sourceUrl",
          "type": "string"
        },
        {
          "indexed": true,
          "internalType": "bytes32",
          "name": "sourceHash",
          "type": "bytes32"
        },
        {
          "indexed": false,
          "internalType": "uint256",
          "name": "deadline",
          "type": "uint256"
        },
        {
          "indexed": true,
          "internalType": "bytes32",
          "name": "metadataHash",
          "type": "bytes32"
        },
        {
          "indexed": false,
          "internalType": "address",
          "name": "creator",
          "type": "address"
        }
      ],
      "name": "AuditTargetCreated",
      "type": "event"
    },
    {
      "anonymous": false,
      "inputs": [
        {
          "indexed": true,
          "internalType": "uint256",
          "name": "auditTargetId",
          "type": "uint256"
        },
        {
          "indexed": false,
          "internalType": "enum MarketAuditRegistry.AuditTargetStatus",
          "name": "status",
          "type": "uint8"
        }
      ],
      "name": "AuditTargetStatusUpdated",
      "type": "event"
    },
    {
      "inputs": [
        {
          "internalType": "string",
          "name": "title",
          "type": "string"
        },
        {
          "internalType": "string",
          "name": "category",
          "type": "string"
        },
        {
          "internalType": "string",
          "name": "sourceUrl",
          "type": "string"
        },
        {
          "internalType": "bytes32",
          "name": "sourceHash",
          "type": "bytes32"
        },
        {
          "internalType": "uint256",
          "name": "deadline",
          "type": "uint256"
        },
        {
          "internalType": "bytes32",
          "name": "metadataHash",
          "type": "bytes32"
        }
      ],
      "name": "createAuditTarget",
      "outputs": [
        {
          "internalType": "uint256",
          "name": "auditTargetId",
          "type": "uint256"
        }
      ],
      "stateMutability": "nonpayable",
      "type": "function"
    },
    {
      "inputs": [
        {
          "internalType": "uint256",
          "name": "auditTargetId",
          "type": "uint256"
        }
      ],
      "name": "getAuditTarget",
      "outputs": [
        {
          "components": [
            {
              "internalType": "uint256",
              "name": "auditTargetId",
              "type": "uint256"
            },
            {
              "internalType": "string",
              "name": "title",
              "type": "string"
            },
            {
              "internalType": "string",
              "name": "category",
              "type": "string"
            },
            {
              "internalType": "string",
              "name": "sourceUrl",
              "type": "string"
            },
            {
              "internalType": "bytes32",
              "name": "sourceHash",
              "type": "bytes32"
            },
            {
              "internalType": "uint256",
              "name": "deadline",
              "type": "uint256"
            },
            {
              "internalType": "uint256",
              "name": "createdAt",
              "type": "uint256"
            },
            {
              "internalType": "enum MarketAuditRegistry.AuditTargetStatus",
              "name": "status",
              "type": "uint8"
            },
            {
              "internalType": "address",
              "name": "creator",
              "type": "address"
            },
            {
              "internalType": "bytes32",
              "name": "metadataHash",
              "type": "bytes32"
            }
          ],
          "internalType": "struct MarketAuditRegistry.AuditTarget",
          "name": "",
          "type": "tuple"
        }
      ],
      "stateMutability": "view",
      "type": "function"
    },
    {
      "inputs": [],
      "name": "getAuditTargets",
      "outputs": [
        {
          "components": [
            {
              "internalType": "uint256",
              "name": "auditTargetId",
              "type": "uint256"
            },
            {
              "internalType": "string",
              "name": "title",
              "type": "string"
            },
            {
              "internalType": "string",
              "name": "category",
              "type": "string"
            },
            {
              "internalType": "string",
              "name": "sourceUrl",
              "type": "string"
            },
            {
              "internalType": "bytes32",
              "name": "sourceHash",
              "type": "bytes32"
            },
            {
              "internalType": "uint256",
              "name": "deadline",
              "type": "uint256"
            },
            {
              "internalType": "uint256",
              "name": "createdAt",
              "type": "uint256"
            },
            {
              "internalType": "enum MarketAuditRegistry.AuditTargetStatus",
              "name": "status",
              "type": "uint8"
            },
            {
              "internalType": "address",
              "name": "creator",
              "type": "address"
            },
            {
              "internalType": "bytes32",
              "name": "metadataHash",
              "type": "bytes32"
            }
          ],
          "internalType": "struct MarketAuditRegistry.AuditTarget[]",
          "name": "results",
          "type": "tuple[]"
        }
      ],
      "stateMutability": "view",
      "type": "function"
    },
    {
      "inputs": [
        {
          "internalType": "uint256",
          "name": "auditTargetId",
          "type": "uint256"
        },
        {
          "internalType": "enum MarketAuditRegistry.AuditTargetStatus",
          "name": "status",
          "type": "uint8"
        }
      ],
      "name": "updateAuditTargetStatus",
      "outputs": [],
      "stateMutability": "nonpayable",
      "type": "function"
    }
  ],
  "bytecode": "0x6080806040523461001a5760015f55610e95908161001f8239f35b5f80fdfe6080806040526004361015610012575f80fd5b60e05f3560e01c91826315ebc15814610393575081632581d2a7146101f2575080634dbf426a146101105763dc0ff6561461004b575f80fd5b3461010c57604036600319011261010c57600435602435600481101561010c575f828152600260205260409020600701805460081c6001600160a01b0316610094811515610e1a565b33036100d857816100c87f1530e29d5631e73c1608802ce913788d8b055c64ad2e7305526e7a6d1e513d3893602093610c7f565b6100d56040518092610b0e565ba2005b60405162461bcd60e51b815260206004820152600c60248201526b27a7262cafa1a922a0aa27a960a11b6044820152606490fd5b5f80fd5b3461010c57602036600319011261010c57610129610d18565b506004355f5260026020526101ee60405f206101da6040519161014b83610bb6565b8054835261015b60018201610d78565b602084015261016c60028201610d78565b604084015261017d60038201610d78565b606084015260048101546080840152600581015460a0840152600681015460c0840152600860078201546101b760ff821660e08701610c3b565b811c6001600160a01b031661010085018190529101546101208401521515610e1a565b604051918291602083526020830190610b1b565b0390f35b3461010c575f36600319011261010c576001906001549161021283610d00565b926102206040519485610bd3565b80845261022c81610d00565b60209390601f19015f5b8181106103775750505f5b8281106102a95750505060405191808301818452845180915260408401918060408360051b8701019601925f905b83821061027c5786880387f35b90919293948380610298839a603f198b82030186528951610b1b565b99970195949391909101910161026f565b92836102b6829795610c97565b9054600391821b1c5f5260029081885261030460405f20916102f8604051946102de86610bb6565b845486526102ed888601610d78565b8c8701528401610d78565b60408501528201610d78565b606083015260048101546080830152600581015460a0830152600681015460c083015260078101549061033c60ff8316878501610c3b565b600891821c6001600160a01b031661010084015201546101208201526103628287610d64565b5261036d8186610d64565b5001949294610241565b8590610384979597610d18565b82828801015201959395610236565b3461010c5760c036600319011261010c5760043567ffffffffffffffff811161010c576103c4903690600401610aa2565b909160243567ffffffffffffffff811161010c576103e6903690600401610aa2565b9290604493843567ffffffffffffffff811161010c5761040a903690600401610aa2565b90956064958515610a7257508115610a39578535156109ff5760a435156109c35742608435111561098d57505f54955f19871461097957600187015f5560405161045381610bb6565b87815261046136878b610bf5565b9060208101918252610474368688610bf5565b6040820152610484368585610bf5565b60608201528735608082015260843560a08201524260c08201525f60e08201523361010082015260a435610120820152885f52600260205260405f2091815183555180519067ffffffffffffffff82116106f65781906104e76001860154610c47565b601f8111610929575b50602090601f83116001146108bb575f926108b0575b50508160011b915f199060031b1c19161760018301555b604081015180519067ffffffffffffffff82116106f65781906105436002860154610c47565b601f8111610860575b50602090601f83116001146107f2575f926107e7575b50508160011b915f199060031b1c19161760028301555b606081015180519067ffffffffffffffff82116106f657819061059f6003860154610c47565b601f8111610797575b50602090601f8311600114610729575f9261071e575b50508160011b915f199060031b1c19161760038301555b6080810151600483015560a0810151600583015560c08101516006830155600782019060e081015190600482101561070a578261061761012093600895610c7f565b6101008201518154610100600160a81b03191690851b610100600160a81b0316179055015191015560015491680100000000000000008310156106f6576106c788957fe403e22b7ca5f285c8b9d6bb22f786ddfce8c2e648a69d14cff679b2fd28a9c1956106ba60209c6106948860016106d59a01600155610c97565b81549060031b908c821b915f19901b19161790556040519a60a08c5260a08c0191610ce0565b918983038d8b0152610ce0565b918683036040880152610ce0565b9260843560608201523360808201528060a4359535940390a4604051908152f35b634e487b7160e01b5f52604160045260245ffd5b634e487b7160e01b5f52602160045260245ffd5b015190508c806105be565b9250600385015f5260205f20905f935b601f198416851061077c576001945083601f19811610610764575b505050811b0160038301556105d5565b01515f1960f88460031b161c191690558c8080610754565b81810151835560209485019460019093019290910190610739565b909150600385015f5260205f20601f840160051c8101602085106107e0575b90849392915b601f830160051c820181106107d25750506105a8565b5f81558594506001016107bc565b50806107b6565b015190508c80610562565b9250600285015f5260205f20905f935b601f1984168510610845576001945083601f1981161061082d575b505050811b016002830155610579565b01515f1960f88460031b161c191690558c808061081d565b81810151835560209485019460019093019290910190610802565b909150600285015f5260205f20601f840160051c8101602085106108a9575b90849392915b601f830160051c8201811061089b57505061054c565b5f8155859450600101610885565b508061087f565b015190508c80610506565b9250600185015f5260205f20905f935b601f198416851061090e576001945083601f198116106108f6575b505050811b01600183015561051d565b01515f1960f88460031b161c191690558c80806108e6565b818101518355602094850194600190930192909101906108cb565b909150600185015f5260205f20601f840160051c810160208510610972575b90849392915b601f830160051c820181106109645750506104f0565b5f815585945060010161094e565b5080610948565b634e487b7160e01b5f52601160045260245ffd5b85906f111150511312539157d25397d41054d560821b6040519162461bcd60e51b83526020600484015260106024840152820152fd5b859075135155105110551057d21054d217d49154555254915160521b6040519162461bcd60e51b83526020600484015260166024840152820152fd5b85907314d3d55490d157d21054d217d49154555254915160621b6040519162461bcd60e51b83526020600484015260146024840152820152fd5b85907214d3d55490d157d5549317d491545552549151606a1b6040519162461bcd60e51b83526020600484015260136024840152820152fd5b6d151255131157d49154555254915160921b879262461bcd60e51b835260206004840152600e6024840152820152fd5b9181601f8401121561010c5782359167ffffffffffffffff831161010c576020838186019501011161010c57565b91908251928382525f5b848110610afa575050825f602080949584010152601f8019910116010190565b602081830181015184830182015201610ada565b90600482101561070a5752565b90610b64610b52610b4061014085518552602086015190806020870152850190610ad0565b60408501518482036040860152610ad0565b60608401518382036060850152610ad0565b916080810151608083015260a081015160a083015260c081015160c0830152610b9560e082015160e0840190610b0e565b610100818101516001600160a01b0316908301526101209081015191015290565b610140810190811067ffffffffffffffff8211176106f657604052565b90601f8019910116810190811067ffffffffffffffff8211176106f657604052565b92919267ffffffffffffffff82116106f65760405191610c1f601f8201601f191660200184610bd3565b82948184528183011161010c578281602093845f960137010152565b600482101561070a5752565b90600182811c92168015610c75575b6020831014610c6157565b634e487b7160e01b5f52602260045260245ffd5b91607f1691610c56565b90600481101561070a5760ff80198354169116179055565b600154811015610ccc5760015f527fb10e2d527612073b26eecdfd717e6a320cf44b4afac2b0732d9fcbe2b7fa0cf601905f90565b634e487b7160e01b5f52603260045260245ffd5b908060209392818452848401375f828201840152601f01601f1916010190565b67ffffffffffffffff81116106f65760051b60200190565b60405190610d2582610bb6565b5f6101208382815260606020820152606060408201526060808201528260808201528260a08201528260c08201528260e0820152826101008201520152565b8051821015610ccc5760209160051b010190565b9060405191825f8254610d8a81610c47565b908184526020946001916001811690815f14610df85750600114610dba575b505050610db892500383610bd3565b565b5f90815285812095935091905b818310610de0575050610db893508201015f8080610da9565b85548884018501529485019487945091830191610dc7565b92505050610db894925060ff191682840152151560051b8201015f8080610da9565b15610e2157565b60405162461bcd60e51b8152602060048201526016602482015275105551125517d5105491d15517d393d517d193d5539160521b6044820152606490fdfea264697066735822122094ca29b5bbff12593d62b66f2b5f25de2a472257ac4a4b72c8de68f95a230e0b64736f6c63430008180033",
  "linkReferences": {},
  "deployedLinkReferences": {},
  "immutableReferences": {},
  "inputSourceName": "project/contracts/MarketAuditRegistry.sol",
  "buildInfoId": "solc-0_8_24-f933abcf2a34b535a71304ddf11c44f9b98c95ea"
}