{
  "_format": "hh3-artifact-1",
  "contractName": "ReasoningReceiptRegistry",
  "sourceName": "contracts/ReasoningReceiptRegistry.sol",
  "abi": [
    {
      "anonymous": false,
      "inputs": [
        {
          "indexed": true,
          "internalType": "uint256",
          "name": "receiptId",
          "type": "uint256"
        },
        {
          "indexed": false,
          "internalType": "enum ReasoningReceiptRegistry.LifecycleState",
          "name": "lifecycleState",
          "type": "uint8"
        }
      ],
      "name": "LifecycleUpdated",
      "type": "event"
    },
    {
      "anonymous": false,
      "inputs": [
        {
          "indexed": true,
          "internalType": "uint256",
          "name": "receiptId",
          "type": "uint256"
        },
        {
          "indexed": false,
          "internalType": "string",
          "name": "agentId",
          "type": "string"
        },
        {
          "indexed": true,
          "internalType": "uint256",
          "name": "auditTargetId",
          "type": "uint256"
        },
        {
          "indexed": true,
          "internalType": "bytes32",
          "name": "reasoningHash",
          "type": "bytes32"
        },
        {
          "indexed": false,
          "internalType": "uint16",
          "name": "integrityScore",
          "type": "uint16"
        },
        {
          "indexed": false,
          "internalType": "string",
          "name": "decision",
          "type": "string"
        },
        {
          "indexed": false,
          "internalType": "address",
          "name": "writer",
          "type": "address"
        }
      ],
      "name": "ReceiptWritten",
      "type": "event"
    },
    {
      "inputs": [
        {
          "internalType": "uint256",
          "name": "receiptId",
          "type": "uint256"
        }
      ],
      "name": "getReceipt",
      "outputs": [
        {
          "components": [
            {
              "internalType": "uint256",
              "name": "receiptId",
              "type": "uint256"
            },
            {
              "internalType": "string",
              "name": "agentId",
              "type": "string"
            },
            {
              "internalType": "uint256",
              "name": "auditTargetId",
              "type": "uint256"
            },
            {
              "internalType": "bytes32",
              "name": "signalHash",
              "type": "bytes32"
            },
            {
              "internalType": "bytes32",
              "name": "reasoningHash",
              "type": "bytes32"
            },
            {
              "internalType": "uint16",
              "name": "integrityScore",
              "type": "uint16"
            },
            {
              "internalType": "uint16",
              "name": "agentProbability",
              "type": "uint16"
            },
            {
              "internalType": "uint16",
              "name": "referenceProbability",
              "type": "uint16"
            },
            {
              "internalType": "int256",
              "name": "edgeBps",
              "type": "int256"
            },
            {
              "internalType": "uint256",
              "name": "suggestedTestnetUsdcAmount",
              "type": "uint256"
            },
            {
              "internalType": "string",
              "name": "decision",
              "type": "string"
            },
            {
              "internalType": "enum ReasoningReceiptRegistry.LifecycleState",
              "name": "lifecycleState",
              "type": "uint8"
            },
            {
              "internalType": "uint256",
              "name": "timestamp",
              "type": "uint256"
            },
            {
              "internalType": "address",
              "name": "writer",
              "type": "address"
            }
          ],
          "internalType": "struct ReasoningReceiptRegistry.Receipt",
          "name": "",
          "type": "tuple"
        }
      ],
      "stateMutability": "view",
      "type": "function"
    },
    {
      "inputs": [
        {
          "internalType": "string",
          "name": "agentId",
          "type": "string"
        }
      ],
      "name": "getReceiptsByAgent",
      "outputs": [
        {
          "components": [
            {
              "internalType": "uint256",
              "name": "receiptId",
              "type": "uint256"
            },
            {
              "internalType": "string",
              "name": "agentId",
              "type": "string"
            },
            {
              "internalType": "uint256",
              "name": "auditTargetId",
              "type": "uint256"
            },
            {
              "internalType": "bytes32",
              "name": "signalHash",
              "type": "bytes32"
            },
            {
              "internalType": "bytes32",
              "name": "reasoningHash",
              "type": "bytes32"
            },
            {
              "internalType": "uint16",
              "name": "integrityScore",
              "type": "uint16"
            },
            {
              "internalType": "uint16",
              "name": "agentProbability",
              "type": "uint16"
            },
            {
              "internalType": "uint16",
              "name": "referenceProbability",
              "type": "uint16"
            },
            {
              "internalType": "int256",
              "name": "edgeBps",
              "type": "int256"
            },
            {
              "internalType": "uint256",
              "name": "suggestedTestnetUsdcAmount",
              "type": "uint256"
            },
            {
              "internalType": "string",
              "name": "decision",
              "type": "string"
            },
            {
              "internalType": "enum ReasoningReceiptRegistry.LifecycleState",
              "name": "lifecycleState",
              "type": "uint8"
            },
            {
              "internalType": "uint256",
              "name": "timestamp",
              "type": "uint256"
            },
            {
              "internalType": "address",
              "name": "writer",
              "type": "address"
            }
          ],
          "internalType": "struct ReasoningReceiptRegistry.Receipt[]",
          "name": "results",
          "type": "tuple[]"
        }
      ],
      "stateMutability": "view",
      "type": "function"
    },
    {
      "inputs": [
        {
          "internalType": "uint256",
          "name": "receiptId",
          "type": "uint256"
        },
        {
          "internalType": "enum ReasoningReceiptRegistry.LifecycleState",
          "name": "lifecycleState",
          "type": "uint8"
        }
      ],
      "name": "updateLifecycleState",
      "outputs": [],
      "stateMutability": "nonpayable",
      "type": "function"
    },
    {
      "inputs": [
        {
          "internalType": "string",
          "name": "agentId",
          "type": "string"
        },
        {
          "internalType": "uint256",
          "name": "auditTargetId",
          "type": "uint256"
        },
        {
          "internalType": "bytes32",
          "name": "signalHash",
          "type": "bytes32"
        },
        {
          "internalType": "bytes32",
          "name": "reasoningHash",
          "type": "bytes32"
        },
        {
          "internalType": "uint16",
          "name": "integrityScore",
          "type": "uint16"
        },
        {
          "internalType": "uint16",
          "name": "agentProbability",
          "type": "uint16"
        },
        {
          "internalType": "uint16",
          "name": "referenceProbability",
          "type": "uint16"
        },
        {
          "internalType": "int256",
          "name": "edgeBps",
          "type": "int256"
        },
        {
          "internalType": "uint256",
          "name": "suggestedTestnetUsdcAmount",
          "type": "uint256"
        },
        {
          "internalType": "string",
          "name": "decision",
          "type": "string"
        }
      ],
      "name": "writeReceipt",
      "outputs": [
        {
          "internalType": "uint256",
          "name": "receiptId",
          "type": "uint256"
        }
      ],
      "stateMutability": "nonpayable",
      "type": "function"
    }
  ],
  "bytecode": "0x6080806040523461001a5760015f55610e64908161001f8239f35b5f80fdfe60806040526004361015610011575f80fd5b60e05f3560e01c90816331a294ee14610842575080635f4d654c146107be578063b63e6ac3146106a45763dbfbc8e914610049575f80fd5b346106a0576101403660031901126106a05760043567ffffffffffffffff81116106a05761007b903690600401610a78565b6084359190606461ffff841684036106a05760a4359361ffff851685036106a05760c4359361ffff851685036106a0576101243567ffffffffffffffff81116106a0576100cc903690600401610a78565b919096851561066b578461ffff851611610631578461ffff8216116105f5578461ffff8816116105b1575f54965f19881461059d5761ffff90600189015f55816040519361011985610bb7565b8a8552610127368b88610bf6565b6020860152602435604086015260443560608601528835608086015281881660a08601521660c08401521660e082015260e4356101008201526101043561012082015261017536848a610bf6565b6101408201525f61016082015242610180820152336101a0820152865f52600160205260405f2081518155602082015180519067ffffffffffffffff82116103e65781906101c66001850154610cd0565b601f811161054d575b50602090601f83116001146104df575f926104d4575b50508160011b915f199060031b1c19161760018201555b6040820151600282015560608201516003820155608082015160048201556005810161ffff60a08401511681549063ffff000060c086015160101b169065ffff0000000060e087015160201b169265ffffffffffff191617171790556101008201516006820155610120820151600782015561014082015180519067ffffffffffffffff82116103e65781906102956008850154610cd0565b601f8111610484575b50602090601f8311600114610419575f9261040e575b50508160011b915f199060031b1c19161760088201555b6101608201519060058210156103fa576102ea600b9260098301610df6565b610180830151600a82015501906101a060018060a01b03910151166bffffffffffffffffffffffff60a01b825416179055610326368683610bf6565b602081519101205f52600260205260405f2092835492680100000000000000008410156103e657600184018086558410156103d25760209861ffff6103a66103b9958b7f8ca6aacc5c2e1d63cb37a2b938b994d80c211bb2b720ada5fcf09fb17fe3999998819a5f528e5f2001556040519a60808c5260808c0191610e0e565b93168a8901528783036040890152610e0e565b92336060860152359380602435940390a4604051908152f35b634e487b7160e01b5f52603260045260245ffd5b634e487b7160e01b5f52604160045260245ffd5b634e487b7160e01b5f52602160045260245ffd5b015190505f806102b4565b600885015f908152602081209350601f198516905b81811061046c5750908460019594939210610454575b505050811b0160088201556102cb565b01515f1960f88460031b161c191690555f8080610444565b9293602060018192878601518155019501930161042e565b909150600884015f5260205f20601f840160051c8101602085106104cd575b90849392915b601f830160051c820181106104bf57505061029e565b5f81558594506001016104a9565b50806104a3565b015190505f806101e5565b9250600184015f5260205f20905f935b601f1984168510610532576001945083601f1981161061051a575b505050811b0160018201556101fc565b01515f1960f88460031b161c191690555f808061050a565b818101518355602094850194600190930192909101906104ef565b909150600184015f5260205f20601f840160051c810160208510610596575b90849392915b601f830160051c820181106105885750506101cf565b5f8155859450600101610572565b508061056c565b634e487b7160e01b5f52601160045260245ffd5b60405162461bcd60e51b815260206004820152601960248201527f4241445f5245464552454e43455f50524f424142494c4954590000000000000060448201528590fd5b60405162461bcd60e51b81526020600482015260156024820152744241445f4147454e545f50524f424142494c49545960581b60448201528590fd5b60405162461bcd60e51b81526020600482015260136024820152724241445f494e544547524954595f53434f524560681b60448201528590fd5b60405162461bcd60e51b815260206004820152600e60248201526d1051d1539517d49154555254915160921b60448201528590fd5b5f80fd5b346106a0576020806003193601126106a0576004356106c1610c54565b50805f52600182526106db600a60405f2001541515610db6565b5f526001815260405f2090604051916106f383610bb7565b8054835261070360018201610d08565b82840152600281015460408401526003810154606084015260048101546080840152600581015461ffff9081811660a0860152818160101c1660c0860152831c1660e08401526006810154610100840152600781015461012084015261076b60088201610d08565b61014084015261078660ff6009830154166101608501610daa565b600a810154610180840152600b01546001600160a01b03166101a08301526040518181529182916107ba9190830190610af1565b0390f35b346106a05760403660031901126106a05760043560243560058110156106a05760207f05793ae55a91f2e4613bfd41e271bf4378995073bfbe4cba18bede561586d39491835f526001825261081b600a60405f2001541515610db6565b835f526001825261083281600960405f2001610df6565b61083f6040518092610ae4565ba2005b346106a057602090816003193601126106a05760043567ffffffffffffffff81116106a05761087861087f913690600401610a78565b3691610bf6565b8281519101205f526002906002835260405f20916040518084868296549384815201905f52865f20925f5b88828210610a62575050506108c192500384610bd4565b8251916108e66108d084610c3c565b936108de6040519586610bd4565b808552610c3c565b601f1901855f5b828110610a4c575050505f5b84518110156109ef578061090f60019287610cbc565b515f528180885260405f206109356040519261092a84610bb7565b825484528201610d08565b898301528581015460408301526003810154606083015260048101546080830152600581015461ffff9081811660a0850152818160101c1660c08501528a1c16858301526006810154610100830152600781015461012083015261099b60088201610d08565b6101408301526109b660ff6009830154166101608401610daa565b600a810154610180830152600b848060a01b03910154166101a08201526109dd8287610cbc565b526109e88186610cbc565b50016108f9565b6040805187815285518189018190525f92600582901b8301810191888b01918b9085015b828710610a205785850386f35b909192938280610a3c600193603f198a82030186528851610af1565b9601920196019592919092610a13565b610a54610c54565b8282880101520186906108ed565b85548452600195860195899550930192016108aa565b9181601f840112156106a05782359167ffffffffffffffff83116106a057602083818601950101116106a057565b91908251928382525f5b848110610ad0575050825f602080949584010152601f8019910116010190565b602081830181015184830182015201610ab0565b9060058210156103fa5752565b90610b82610b136101c084518452602085015190806020860152840190610aa6565b60408401516040840152606084015160608401526080840151608084015260a084015161ffff80911660a08501528060c08601511660c085015260e08501511660e084015261010080850151908401526101208085015190840152610140808501519084830390850152610aa6565b91610b966101608083015190840190610ae4565b61018081810151908301526101a0908101516001600160a01b031691015290565b6101c0810190811067ffffffffffffffff8211176103e657604052565b90601f8019910116810190811067ffffffffffffffff8211176103e657604052565b92919267ffffffffffffffff82116103e65760405191610c20601f8201601f191660200184610bd4565b8294818452818301116106a0578281602093845f960137010152565b67ffffffffffffffff81116103e65760051b60200190565b60405190610c6182610bb7565b5f6101a083828152606060208201528260408201528260608201528260808201528260a08201528260c08201528260e08201528261010082015282610120820152606061014082015282610160820152826101808201520152565b80518210156103d25760209160051b010190565b90600182811c92168015610cfe575b6020831014610cea57565b634e487b7160e01b5f52602260045260245ffd5b91607f1691610cdf565b9060405191825f8254610d1a81610cd0565b908184526020946001916001811690815f14610d885750600114610d4a575b505050610d4892500383610bd4565b565b5f90815285812095935091905b818310610d70575050610d4893508201015f8080610d39565b85548884018501529485019487945091830191610d57565b92505050610d4894925060ff191682840152151560051b8201015f8080610d39565b60058210156103fa5752565b15610dbd57565b60405162461bcd60e51b8152602060048201526011602482015270149150d152541517d393d517d193d55391607a1b6044820152606490fd5b9060058110156103fa5760ff80198354169116179055565b908060209392818452848401375f828201840152601f01601f191601019056fea2646970667358221220d2b816845124bd44ae4ed0e1d27397cc5d10b40b480ff37ffa3e84124133be5f64736f6c63430008180033",
  "linkReferences": {},
  "deployedLinkReferences": {},
  "immutableReferences": {},
  "inputSourceName": "project/contracts/ReasoningReceiptRegistry.sol",
  "buildInfoId": "solc-0_8_24-f933abcf2a34b535a71304ddf11c44f9b98c95ea"
}